{
  "_format": "hh-sol-artifact-1",
  "contractName": "FiberRouter",
  "sourceName": "contracts/multiswap-contracts/FiberRouter.sol",
  "abi": [
    {
      "anonymous": false,
      "inputs": [
        {
          "indexed": true,
          "internalType": "address",
          "name": "burnToken",
          "type": "address"
        },
        {
          "indexed": false,
          "internalType": "uint256",
          "name": "sourceAmount",
          "type": "uint256"
        },
        {
          "indexed": false,
          "internalType": "uint256",
          "name": "sourceChainId",
          "type": "uint256"
        },
        {
          "indexed": false,
          "internalType": "uint256",
          "name": "targetChainId",
          "type": "uint256"
        },
        {
          "indexed": false,
          "internalType": "address",
          "name": "sourceAddress",
          "type": "address"
        },
        {
          "indexed": false,
          "internalType": "address",
          "name": "targetAddress",
          "type": "address"
        },
        {
          "indexed": false,
          "internalType": "uint64",
          "name": "depositNonce",
          "type": "uint64"
        }
      ],
      "name": "CCTPSwap",
      "type": "event"
    },
    {
      "anonymous": false,
      "inputs": [
        {
          "indexed": true,
          "internalType": "address",
          "name": "previousOwner",
          "type": "address"
        },
        {
          "indexed": true,
          "internalType": "address",
          "name": "newOwner",
          "type": "address"
        }
      ],
      "name": "OwnershipTransferred",
      "type": "event"
    },
    {
      "anonymous": false,
      "inputs": [
        {
          "indexed": false,
          "internalType": "address",
          "name": "router",
          "type": "address"
        },
        {
          "indexed": false,
          "internalType": "bytes",
          "name": "selector",
          "type": "bytes"
        }
      ],
      "name": "RouterAndSelectorRemoved",
      "type": "event"
    },
    {
      "anonymous": false,
      "inputs": [
        {
          "indexed": false,
          "internalType": "address",
          "name": "router",
          "type": "address"
        },
        {
          "indexed": false,
          "internalType": "bytes",
          "name": "selector",
          "type": "bytes"
        }
      ],
      "name": "RouterAndSelectorWhitelisted",
      "type": "event"
    },
    {
      "anonymous": false,
      "inputs": [
        {
          "indexed": false,
          "internalType": "address",
          "name": "sourceToken",
          "type": "address"
        },
        {
          "indexed": false,
          "internalType": "address",
          "name": "targetToken",
          "type": "address"
        },
        {
          "indexed": false,
          "internalType": "uint256",
          "name": "sourceChainId",
          "type": "uint256"
        },
        {
          "indexed": false,
          "internalType": "uint256",
          "name": "targetChainId",
          "type": "uint256"
        },
        {
          "indexed": false,
          "internalType": "uint256",
          "name": "sourceAmount",
          "type": "uint256"
        },
        {
          "indexed": false,
          "internalType": "address",
          "name": "sourceAddress",
          "type": "address"
        },
        {
          "indexed": false,
          "internalType": "address",
          "name": "targetAddress",
          "type": "address"
        },
        {
          "indexed": false,
          "internalType": "uint256",
          "name": "settledAmount",
          "type": "uint256"
        },
        {
          "indexed": false,
          "internalType": "bytes32",
          "name": "withdrawalData",
          "type": "bytes32"
        },
        {
          "indexed": false,
          "internalType": "uint256",
          "name": "gasAmount",
          "type": "uint256"
        }
      ],
      "name": "Swap",
      "type": "event"
    },
    {
      "anonymous": false,
      "inputs": [
        {
          "indexed": false,
          "internalType": "address",
          "name": "sourceToken",
          "type": "address"
        },
        {
          "indexed": false,
          "internalType": "address",
          "name": "targetToken",
          "type": "address"
        },
        {
          "indexed": false,
          "internalType": "uint256",
          "name": "sourceAmount",
          "type": "uint256"
        },
        {
          "indexed": false,
          "internalType": "uint256",
          "name": "settledAmount",
          "type": "uint256"
        },
        {
          "indexed": false,
          "internalType": "address",
          "name": "sourceAddress",
          "type": "address"
        },
        {
          "indexed": false,
          "internalType": "address",
          "name": "targetAddress",
          "type": "address"
        }
      ],
      "name": "SwapSameNetwork",
      "type": "event"
    },
    {
      "anonymous": false,
      "inputs": [
        {
          "indexed": false,
          "internalType": "address",
          "name": "token",
          "type": "address"
        },
        {
          "indexed": false,
          "internalType": "address",
          "name": "receiver",
          "type": "address"
        },
        {
          "indexed": false,
          "internalType": "uint256",
          "name": "amount",
          "type": "uint256"
        },
        {
          "indexed": false,
          "internalType": "bytes32",
          "name": "salt",
          "type": "bytes32"
        },
        {
          "indexed": false,
          "internalType": "bytes",
          "name": "signature",
          "type": "bytes"
        }
      ],
      "name": "Withdraw",
      "type": "event"
    },
    {
      "anonymous": false,
      "inputs": [
        {
          "indexed": false,
          "internalType": "address",
          "name": "to",
          "type": "address"
        },
        {
          "indexed": false,
          "internalType": "uint256",
          "name": "amountIn",
          "type": "uint256"
        },
        {
          "indexed": false,
          "internalType": "uint256",
          "name": "amountOut",
          "type": "uint256"
        },
        {
          "indexed": false,
          "internalType": "address",
          "name": "foundryToken",
          "type": "address"
        },
        {
          "indexed": false,
          "internalType": "address",
          "name": "targetToken",
          "type": "address"
        },
        {
          "indexed": false,
          "internalType": "address",
          "name": "router",
          "type": "address"
        },
        {
          "indexed": false,
          "internalType": "bytes",
          "name": "routerCalldata",
          "type": "bytes"
        },
        {
          "indexed": false,
          "internalType": "bytes32",
          "name": "salt",
          "type": "bytes32"
        },
        {
          "indexed": false,
          "internalType": "bytes",
          "name": "multiSignature",
          "type": "bytes"
        }
      ],
      "name": "WithdrawWithSwap",
      "type": "event"
    },
    {
      "inputs": [
        {
          "internalType": "address",
          "name": "router",
          "type": "address"
        },
        {
          "internalType": "bytes",
          "name": "selector",
          "type": "bytes"
        }
      ],
      "name": "addRouterAndSelector",
      "outputs": [],
      "stateMutability": "nonpayable",
      "type": "function"
    },
    {
      "inputs": [],
      "name": "cctpTokenMessenger",
      "outputs": [
        {
          "internalType": "address",
          "name": "",
          "type": "address"
        }
      ],
      "stateMutability": "view",
      "type": "function"
    },
    {
      "inputs": [],
      "name": "gasWallet",
      "outputs": [
        {
          "internalType": "address payable",
          "name": "",
          "type": "address"
        }
      ],
      "stateMutability": "view",
      "type": "function"
    },
    {
      "inputs": [
        {
          "internalType": "address",
          "name": "_cctpTokenMessenger",
          "type": "address"
        },
        {
          "internalType": "address",
          "name": "_usdcToken",
          "type": "address"
        },
        {
          "internalType": "address",
          "name": "_sourceCCTPFundManager",
          "type": "address"
        }
      ],
      "name": "initCCTP",
      "outputs": [],
      "stateMutability": "nonpayable",
      "type": "function"
    },
    {
      "inputs": [
        {
          "internalType": "address",
          "name": "",
          "type": "address"
        }
      ],
      "name": "inventory",
      "outputs": [
        {
          "internalType": "uint256",
          "name": "",
          "type": "uint256"
        }
      ],
      "stateMutability": "view",
      "type": "function"
    },
    {
      "inputs": [
        {
          "internalType": "address",
          "name": "router",
          "type": "address"
        },
        {
          "internalType": "bytes",
          "name": "selector",
          "type": "bytes"
        }
      ],
      "name": "isAllowListed",
      "outputs": [
        {
          "internalType": "bool",
          "name": "",
          "type": "bool"
        }
      ],
      "stateMutability": "view",
      "type": "function"
    },
    {
      "inputs": [],
      "name": "owner",
      "outputs": [
        {
          "internalType": "address",
          "name": "",
          "type": "address"
        }
      ],
      "stateMutability": "view",
      "type": "function"
    },
    {
      "inputs": [],
      "name": "pool",
      "outputs": [
        {
          "internalType": "address",
          "name": "",
          "type": "address"
        }
      ],
      "stateMutability": "view",
      "type": "function"
    },
    {
      "inputs": [
        {
          "internalType": "address",
          "name": "router",
          "type": "address"
        },
        {
          "internalType": "bytes",
          "name": "selector",
          "type": "bytes"
        }
      ],
      "name": "removeRouterAndSelector",
      "outputs": [],
      "stateMutability": "nonpayable",
      "type": "function"
    },
    {
      "inputs": [],
      "name": "renounceOwnership",
      "outputs": [],
      "stateMutability": "nonpayable",
      "type": "function"
    },
    {
      "inputs": [
        {
          "internalType": "address payable",
          "name": "_gasWallet",
          "type": "address"
        }
      ],
      "name": "setGasWallet",
      "outputs": [],
      "stateMutability": "nonpayable",
      "type": "function"
    },
    {
      "inputs": [
        {
          "internalType": "address",
          "name": "_pool",
          "type": "address"
        }
      ],
      "name": "setPool",
      "outputs": [],
      "stateMutability": "nonpayable",
      "type": "function"
    },
    {
      "inputs": [
        {
          "internalType": "uint256",
          "name": "_chainID",
          "type": "uint256"
        },
        {
          "internalType": "uint32",
          "name": "_targetNetworkDomain",
          "type": "uint32"
        },
        {
          "internalType": "address",
          "name": "_targetCCTPFundManager",
          "type": "address"
        }
      ],
      "name": "setTargetCCTPNetwork",
      "outputs": [],
      "stateMutability": "nonpayable",
      "type": "function"
    },
    {
      "inputs": [
        {
          "internalType": "address",
          "name": "_weth",
          "type": "address"
        }
      ],
      "name": "setWeth",
      "outputs": [],
      "stateMutability": "nonpayable",
      "type": "function"
    },
    {
      "inputs": [],
      "name": "sourceCCTPFundManager",
      "outputs": [
        {
          "internalType": "address",
          "name": "",
          "type": "address"
        }
      ],
      "stateMutability": "view",
      "type": "function"
    },
    {
      "inputs": [
        {
          "internalType": "address",
          "name": "token",
          "type": "address"
        },
        {
          "internalType": "uint256",
          "name": "amount",
          "type": "uint256"
        },
        {
          "internalType": "uint256",
          "name": "targetNetwork",
          "type": "uint256"
        },
        {
          "internalType": "address",
          "name": "targetToken",
          "type": "address"
        },
        {
          "internalType": "address",
          "name": "targetAddress",
          "type": "address"
        },
        {
          "internalType": "bytes32",
          "name": "withdrawalData",
          "type": "bytes32"
        },
        {
          "internalType": "bool",
          "name": "cctpType",
          "type": "bool"
        }
      ],
      "name": "swap",
      "outputs": [],
      "stateMutability": "payable",
      "type": "function"
    },
    {
      "inputs": [
        {
          "internalType": "uint256",
          "name": "amountIn",
          "type": "uint256"
        },
        {
          "internalType": "uint256",
          "name": "minAmountOut",
          "type": "uint256"
        },
        {
          "internalType": "address",
          "name": "fromToken",
          "type": "address"
        },
        {
          "internalType": "address",
          "name": "foundryToken",
          "type": "address"
        },
        {
          "internalType": "address",
          "name": "router",
          "type": "address"
        },
        {
          "internalType": "bytes",
          "name": "routerCalldata",
          "type": "bytes"
        },
        {
          "internalType": "uint256",
          "name": "crossTargetNetwork",
          "type": "uint256"
        },
        {
          "internalType": "address",
          "name": "crossTargetToken",
          "type": "address"
        },
        {
          "internalType": "address",
          "name": "crossTargetAddress",
          "type": "address"
        },
        {
          "internalType": "bytes32",
          "name": "withdrawalData",
          "type": "bytes32"
        },
        {
          "internalType": "bool",
          "name": "cctpType",
          "type": "bool"
        }
      ],
      "name": "swapAndCrossRouter",
      "outputs": [],
      "stateMutability": "payable",
      "type": "function"
    },
    {
      "inputs": [
        {
          "internalType": "uint256",
          "name": "minAmountOut",
          "type": "uint256"
        },
        {
          "internalType": "address",
          "name": "foundryToken",
          "type": "address"
        },
        {
          "internalType": "uint256",
          "name": "gasFee",
          "type": "uint256"
        },
        {
          "internalType": "address",
          "name": "router",
          "type": "address"
        },
        {
          "internalType": "bytes",
          "name": "routerCalldata",
          "type": "bytes"
        },
        {
          "internalType": "uint256",
          "name": "crossTargetNetwork",
          "type": "uint256"
        },
        {
          "internalType": "address",
          "name": "crossTargetToken",
          "type": "address"
        },
        {
          "internalType": "address",
          "name": "crossTargetAddress",
          "type": "address"
        },
        {
          "internalType": "bytes32",
          "name": "withdrawalData",
          "type": "bytes32"
        },
        {
          "internalType": "bool",
          "name": "cctpType",
          "type": "bool"
        }
      ],
      "name": "swapAndCrossRouterETH",
      "outputs": [],
      "stateMutability": "payable",
      "type": "function"
    },
    {
      "inputs": [
        {
          "internalType": "uint256",
          "name": "amountIn",
          "type": "uint256"
        },
        {
          "internalType": "uint256",
          "name": "minAmountOut",
          "type": "uint256"
        },
        {
          "internalType": "address",
          "name": "fromToken",
          "type": "address"
        },
        {
          "internalType": "address",
          "name": "toToken",
          "type": "address"
        },
        {
          "internalType": "address",
          "name": "targetAddress",
          "type": "address"
        },
        {
          "internalType": "address",
          "name": "router",
          "type": "address"
        },
        {
          "internalType": "bytes",
          "name": "routerCalldata",
          "type": "bytes"
        }
      ],
      "name": "swapOnSameNetwork",
      "outputs": [],
      "stateMutability": "nonpayable",
      "type": "function"
    },
    {
      "inputs": [
        {
          "internalType": "uint256",
          "name": "minAmountOut",
          "type": "uint256"
        },
        {
          "internalType": "address",
          "name": "toToken",
          "type": "address"
        },
        {
          "internalType": "address",
          "name": "targetAddress",
          "type": "address"
        },
        {
          "internalType": "address",
          "name": "router",
          "type": "address"
        },
        {
          "internalType": "bytes",
          "name": "routerCalldata",
          "type": "bytes"
        }
      ],
      "name": "swapOnSameNetworkETH",
      "outputs": [],
      "stateMutability": "payable",
      "type": "function"
    },
    {
      "inputs": [
        {
          "internalType": "uint256",
          "name": "",
          "type": "uint256"
        }
      ],
      "name": "targetNetworks",
      "outputs": [
        {
          "internalType": "uint32",
          "name": "targetNetworkDomain",
          "type": "uint32"
        },
        {
          "internalType": "address",
          "name": "targetCCTPFundManager",
          "type": "address"
        }
      ],
      "stateMutability": "view",
      "type": "function"
    },
    {
      "inputs": [
        {
          "internalType": "address",
          "name": "newOwner",
          "type": "address"
        }
      ],
      "name": "transferOwnership",
      "outputs": [],
      "stateMutability": "nonpayable",
      "type": "function"
    },
    {
      "inputs": [],
      "name": "usdcToken",
      "outputs": [
        {
          "internalType": "address",
          "name": "",
          "type": "address"
        }
      ],
      "stateMutability": "view",
      "type": "function"
    },
    {
      "inputs": [],
      "name": "weth",
      "outputs": [
        {
          "internalType": "address",
          "name": "",
          "type": "address"
        }
      ],
      "stateMutability": "view",
      "type": "function"
    },
    {
      "inputs": [
        {
          "internalType": "address",
          "name": "token",
          "type": "address"
        },
        {
          "internalType": "address",
          "name": "payee",
          "type": "address"
        },
        {
          "internalType": "uint256",
          "name": "amount",
          "type": "uint256"
        },
        {
          "internalType": "bytes32",
          "name": "salt",
          "type": "bytes32"
        },
        {
          "internalType": "uint256",
          "name": "expiry",
          "type": "uint256"
        },
        {
          "internalType": "bytes",
          "name": "multiSignature",
          "type": "bytes"
        },
        {
          "internalType": "bool",
          "name": "cctpType",
          "type": "bool"
        }
      ],
      "name": "withdrawSigned",
      "outputs": [],
      "stateMutability": "nonpayable",
      "type": "function"
    },
    {
      "inputs": [
        {
          "internalType": "address payable",
          "name": "to",
          "type": "address"
        },
        {
          "internalType": "uint256",
          "name": "amountIn",
          "type": "uint256"
        },
        {
          "internalType": "uint256",
          "name": "minAmountOut",
          "type": "uint256"
        },
        {
          "internalType": "address",
          "name": "foundryToken",
          "type": "address"
        },
        {
          "internalType": "address",
          "name": "targetToken",
          "type": "address"
        },
        {
          "internalType": "address",
          "name": "router",
          "type": "address"
        },
        {
          "internalType": "bytes",
          "name": "routerCalldata",
          "type": "bytes"
        },
        {
          "internalType": "bytes32",
          "name": "salt",
          "type": "bytes32"
        },
        {
          "internalType": "uint256",
          "name": "expiry",
          "type": "uint256"
        },
        {
          "internalType": "bytes",
          "name": "multiSignature",
          "type": "bytes"
        },
        {
          "internalType": "bool",
          "name": "cctpType",
          "type": "bool"
        }
      ],
      "name": "withdrawSignedAndSwapRouter",
      "outputs": [],
      "stateMutability": "nonpayable",
      "type": "function"
    }
  ],
  "bytecode": "0x608060405234801561001057600080fd5b50600080546001600160a01b031916339081178255604051909182917f8be0079c531659141344cd1fd0a4f28419497f9722a3daafe3b4186f6b6457e0908290a35060018055613ac1806100656000396000f3fe6080604052600436106101815760003560e01c80639748cf7c116100d1578063b8d1452f1161008a578063e371aa8711610064578063e371aa8714610498578063e45c17e1146104b8578063f2fde38b146104d8578063fa71ebff146104f857610181565b8063b8d1452f14610438578063bebb1b7314610458578063d424c8501461047857610181565b80639748cf7c14610384578063b0161b7d146103a4578063b316ae7b146103b7578063b5fd282a146103d7578063b695c6da14610412578063b86b92441461042557610181565b80634437152a1161013e578063561d58ab11610118578063561d58ab146102b8578063625f2a7c14610321578063715018a6146103515780638da5cb5b1461036657610181565b80634437152a146102585780634adf35bc1461027857806352e199c51461029857610181565b806307fdc6681461018657806311eac8551461019b57806316f0115b146101d85780632aecedbf146101f85780632e5ca38a146102185780633fc8cef314610238575b600080fd5b610199610194366004612f1f565b610518565b005b3480156101a757600080fd5b506007546101bb906001600160a01b031681565b6040516001600160a01b0390911681526020015b60405180910390f35b3480156101e457600080fd5b506004546101bb906001600160a01b031681565b34801561020457600080fd5b50610199610213366004612c93565b610975565b34801561022457600080fd5b50610199610233366004613269565b610c39565b34801561024457600080fd5b506003546101bb906001600160a01b031681565b34801561026457600080fd5b50610199610273366004612c77565b610dbc565b34801561028457600080fd5b50610199610293366004612e51565b610e5e565b3480156102a457600080fd5b506005546101bb906001600160a01b031681565b3480156102c457600080fd5b506102fd6102d3366004612fa5565b600a6020526000908152604090205463ffffffff811690600160201b90046001600160a01b031682565b6040805163ffffffff90931683526001600160a01b039091166020830152016101cf565b34801561032d57600080fd5b5061034161033c366004612ed1565b610f33565b60405190151581526020016101cf565b34801561035d57600080fd5b50610199610f6b565b34801561037257600080fd5b506000546001600160a01b03166101bb565b34801561039057600080fd5b506008546101bb906001600160a01b031681565b6101996103b23660046131ae565b610fdf565b3480156103c357600080fd5b506101996103d2366004612e51565b6113b8565b3480156103e357600080fd5b506104046103f2366004612c77565b60026020526000908152604090205481565b6040519081526020016101cf565b610199610420366004613052565b611480565b610199610433366004612fd5565b6118c4565b34801561044457600080fd5b50610199610453366004612c77565b611a81565b34801561046457600080fd5b50610199610473366004613115565b611b23565b34801561048457600080fd5b50610199610493366004612dbf565b611c51565b3480156104a457600080fd5b506101996104b3366004612d75565b611e89565b3480156104c457600080fd5b506101996104d3366004612c77565b61201a565b3480156104e457600080fd5b506101996104f3366004612c77565b6120ca565b34801561050457600080fd5b506009546101bb906001600160a01b031681565b600260015414156105445760405162461bcd60e51b815260040161053b90613985565b60405180910390fd5b60026001556001600160a01b03871661059f5760405162461bcd60e51b815260206004820181905260248201527f46523a20546f6b656e20616464726573732063616e6e6f74206265207a65726f604482015260640161053b565b6001600160a01b0384166105c55760405162461bcd60e51b815260040161053b906137f5565b846106125760405162461bcd60e51b815260206004820152601e60248201527f46523a20546172676574206e6574776f726b2069732072657175697265640000604482015260640161053b565b6001600160a01b0383166106385760405162461bcd60e51b815260040161053b906137b4565b856106555760405162461bcd60e51b815260040161053b90613871565b816106725760405162461bcd60e51b815260040161053b906135dc565b3461068f5760405162461bcd60e51b815260040161053b9061371f565b6005546040516000916001600160a01b03169034908381818185875af1925050503d80600081146106dc576040519150601f19603f3d011682016040523d82523d6000602084013e6106e1565b606091505b50509050806107025760405162461bcd60e51b815260040161053b90613664565b811561087c576000868152600a60205260409020805463ffffffff1661073a5760405162461bcd60e51b815260040161053b9061369b565b8054600160201b90046001600160a01b03166107685760405162461bcd60e51b815260040161053b90613767565b6007546001600160a01b038a81169116146107db5760405162461bcd60e51b815260206004820152602d60248201527f46523a204f6e6c792055534443206465706f7369747320616c6c6f776564206660448201526c6f72204343545020737761707360981b606482015260840161053b565b6107e78933308b6121b4565b8154909850600090610814908a908c9063ffffffff811690600160201b90046001600160a01b0316612344565b82546040519192506001600160a01b038c8116927fd86ec642024e3d320b1a3ee42a9a2c236d50787af948ae21b1db70bd0f6111319261086d928e92469263ffffffff8116923392600160201b909204169089906139bc565b60405180910390a25050610967565b61089388336004546001600160a01b03168a6121b4565b6004805460405163de7bfcdf60e01b81529299506001600160a01b03169163de7bfcdf916108c9918c918c918c918b9101613556565b602060405180830381600087803b1580156108e357600080fd5b505af11580156108f7573d6000803e3d6000fd5b505050506040513d601f19601f8201168201806040525081019061091b9190612fbd565b96507ff64d04e9c9ca129710a468a2027864f45e5023d37b005f48a4c60a0f3c5d7914888646898b338a8e8b3460405161095e9a999897969594939291906134b8565b60405180910390a15b505060018055505050505050565b600260015414156109985760405162461bcd60e51b815260040161053b90613985565b60026001556001600160a01b0388166109e75760405162461bcd60e51b815260206004820152601160248201527042616420546f6b656e204164647265737360781b604482015260640161053b565b6001600160a01b038716610a0d5760405162461bcd60e51b815260040161053b906137f5565b89610a665760405162461bcd60e51b815260206004820152602360248201527f416d6f756e7420696e206d7573742062652067726561746572207468616e207a60448201526265726f60e81b606482015260840161053b565b88610ac85760405162461bcd60e51b815260206004820152602c60248201527f416d6f756e74206f7574206d696e696d756d206d75737420626520677265617460448201526b6572207468616e207a65726f60a01b606482015260840161053b565b6001600160a01b038816610b125760405162461bcd60e51b815260206004820152601160248201527042616420546f6b656e204164647265737360781b604482015260640161053b565b600081610b2a576004546001600160a01b0316610b37565b6009546001600160a01b03165b604051632e18cb5960e21b81529091506001600160a01b0382169063b8632d6490610b78908f908f908f908f908f908f908f908f908f908f9060040161337d565b602060405180830381600087803b158015610b9257600080fd5b505af1158015610ba6573d6000803e3d6000fd5b505050506040513d601f19601f82011682018060405250810190610bca9190612fbd565b9a506000610bdd8d8b8b8f8f8d8d6124af565b90507f8322b95fa22763107efcad19d19d6efd87bdf712d43c0fb6a43d856ab3ac22e58d8d838d8d8d8d8d8c604051610c1e99989796959493929190613307565b60405180910390a15050600180555050505050505050505050565b63ffffffff8216610c965760405162461bcd60e51b815260206004820152602160248201527f46523a20496e76616c696420546172676574204e6574776f726b20446f6d61696044820152603760f91b606482015260840161053b565b82610cee5760405162461bcd60e51b815260206004820152602260248201527f46523a20496e76616c696420546172676574204e6574776f726b20436861696e604482015261125160f21b606482015260840161053b565b6001600160a01b038116610d595760405162461bcd60e51b815260206004820152602c60248201527f46523a20496e76616c69642054617267657420434354502046756e64204d616e60448201526b61676572206164647265737360a01b606482015260840161053b565b60408051808201825263ffffffff93841681526001600160a01b0392831660208083019182526000968752600a905291909420935184549151909216600160201b02640100000000600160c01b03199290931663ffffffff199091161716179055565b6000546001600160a01b03163314610de65760405162461bcd60e51b815260040161053b9061383c565b6001600160a01b038116610e3c5760405162461bcd60e51b815260206004820181905260248201527f5377617020706f6f6c20616464726573732063616e6e6f74206265207a65726f604482015260640161053b565b600480546001600160a01b0319166001600160a01b0392909216919091179055565b6000546001600160a01b03163314610e885760405162461bcd60e51b815260040161053b9061383c565b600060066000610ece8686868080601f0160208091040260200160405190810160405280939291908181526020018383808284376000920191909152506125b092505050565b815260200190815260200160002060006101000a81548160ff0219169083151502179055507fb16e265ad83879c2003ea0b93cf61954bd91defe1eab29836ff9d710b73bab79838383604051610f2693929190613516565b60405180910390a1505050565b600060066000610f508585602001516001600160e01b0319161790565b815260208101919091526040016000205460ff169392505050565b6000546001600160a01b03163314610f955760405162461bcd60e51b815260040161053b9061383c565b600080546040516001600160a01b03909116907f8be0079c531659141344cd1fd0a4f28419497f9722a3daafe3b4186f6b6457e0908390a3600080546001600160a01b0319169055565b600260015414156110025760405162461bcd60e51b815260040161053b90613985565b60026001556001600160a01b03891661102d5760405162461bcd60e51b815260040161053b90613940565b6001600160a01b0388166110535760405162461bcd60e51b815260040161053b906138b5565b6001600160a01b0384166110795760405162461bcd60e51b815260040161053b906136d2565b8a6110965760405162461bcd60e51b815260040161053b9061361d565b896110b35760405162461bcd60e51b815260040161053b90613594565b8161110a5760405162461bcd60e51b815260206004820152602160248201527f46523a20776974686472617720646174612063616e6e6f7420626520656d70746044820152607960f81b606482015260840161053b565b346111275760405162461bcd60e51b815260040161053b9061371f565b6111338933308e6121b4565b9a50600081156112425761114c308b8b8f8f8d8d6124af565b6000878152600a6020526040902080549192509063ffffffff166111825760405162461bcd60e51b815260040161053b9061369b565b8054600160201b90046001600160a01b03166111b05760405162461bcd60e51b815260040161053b90613767565b80546000906111da9084908d9063ffffffff811690600160201b90046001600160a01b0316612344565b82546040519192506001600160a01b038d8116927fd86ec642024e3d320b1a3ee42a9a2c236d50787af948ae21b1db70bd0f61113192611233928892469263ffffffff8116923392600160201b909204169089906139bc565b60405180910390a250506112e7565b60045461125d906001600160a01b03168b8b8f8f8d8d6124af565b6004805460405163de7bfcdf60e01b81529293506001600160a01b03169163de7bfcdf91611293918d9186918c918b9101613556565b602060405180830381600087803b1580156112ad57600080fd5b505af11580156112c1573d6000803e3d6000fd5b505050506040513d601f19601f820116820180604052508101906112e59190612fbd565b505b6005546040516000916001600160a01b03169034908381818185875af1925050503d8060008114611334576040519150601f19603f3d011682016040523d82523d6000602084013e611339565b606091505b505090508061135a5760405162461bcd60e51b815260040161053b90613664565b8c7ff64d04e9c9ca129710a468a2027864f45e5023d37b005f48a4c60a0f3c5d79148c88468b85338c8a8d3460405161139c9a999897969594939291906134b8565b60405180910390a1505060018055505050505050505050505050565b6000546001600160a01b031633146113e25760405162461bcd60e51b815260040161053b9061383c565b6001600660006114288686868080601f0160208091040260200160405190810160405280939291908181526020018383808284376000920191909152506125b092505050565b815260200190815260200160002060006101000a81548160ff0219169083151502179055507ff8eee9f2d32794fd246806017296afeedaf4f84164911b30e51b7c538cb67dce838383604051610f2693929190613516565b600061148c8934613a00565b9050806114ab5760405162461bcd60e51b815260040161053b9061361d565b886115065760405162461bcd60e51b815260206004820152602560248201527f46523a2047617320666565206d7573742062652067726561746572207468616e604482015264207a65726f60d81b606482015260840161053b565b8a6115235760405162461bcd60e51b815260040161053b90613594565b6001600160a01b0385166115495760405162461bcd60e51b815260040161053b906136d2565b6001600160a01b038a1661156f5760405162461bcd60e51b815260040161053b906138b5565b8261158c5760405162461bcd60e51b815260040161053b906135dc565b600360009054906101000a90046001600160a01b03166001600160a01b031663d0e30db0826040518263ffffffff1660e01b81526004016000604051808303818588803b1580156115dc57600080fd5b505af11580156115f0573d6000803e3d6000fd5b50505050506000808c9050831561172b5760035461161d9030906001600160a01b03168e86858f8f6124af565b6000898152600a6020526040902080549193509063ffffffff166116535760405162461bcd60e51b815260040161053b9061369b565b8054600160201b90046001600160a01b03166116815760405162461bcd60e51b815260040161053b90613767565b60006116ba848f8460000160009054906101000a900463ffffffff168560000160049054906101000a90046001600160a01b0316612344565b82549091506001600160a01b038f16907fd86ec642024e3d320b1a3ee42a9a2c236d50787af948ae21b1db70bd0f611131908690469063ffffffff1633875460405161171c9594939291600160201b90046001600160a01b03169089906139bc565b60405180910390a250506117e9565b60045460035461174c916001600160a01b0390811691168e86858f8f6124af565b9150600460009054906101000a90046001600160a01b03166001600160a01b031663de7bfcdf8d848b8a6040518563ffffffff1660e01b81526004016117959493929190613556565b602060405180830381600087803b1580156117af57600080fd5b505af11580156117c3573d6000803e3d6000fd5b505050506040513d601f19601f820116820180604052508101906117e79190612fbd565b505b6005546040516000916001600160a01b0316908d908381818185875af1925050503d8060008114611836576040519150601f19603f3d011682016040523d82523d6000602084013e61183b565b606091505b505090508061185c5760405162461bcd60e51b815260040161053b90613664565b6003548c907ff64d04e9c9ca129710a468a2027864f45e5023d37b005f48a4c60a0f3c5d7914906001600160a01b03168a468d89338e8b8f8a6040516118ab9a999897969594939291906134b8565b60405180910390a1505050505050505050505050505050565b346001600160a01b0385166118eb5760405162461bcd60e51b815260040161053b906138fd565b806119085760405162461bcd60e51b815260040161053b9061361d565b856119255760405162461bcd60e51b815260040161053b90613594565b6001600160a01b03841661194b5760405162461bcd60e51b815260040161053b906137b4565b81516119995760405162461bcd60e51b815260206004820152601c60248201527f46523a2043616c6c646174612063616e6e6f7420626520656d70747900000000604482015260640161053b565b600360009054906101000a90046001600160a01b03166001600160a01b031663d0e30db0826040518263ffffffff1660e01b81526004016000604051808303818588803b1580156119e957600080fd5b505af11580156119fd573d6000803e3d6000fd5b505060035460009350611a2192508791506001600160a01b031688858b89896124af565b90507fc6562e79ad83f12b8cbb0ee246906bb7f35032fa8ea86dbff30673bbd6de9e3073eeeeeeeeeeeeeeeeeeeeeeeeeeeeeeeeeeeeeeee878484338a604051611a709695949392919061347e565b60405180910390a150505050505050565b6000546001600160a01b03163314611aab5760405162461bcd60e51b815260040161053b9061383c565b6001600160a01b038116611b015760405162461bcd60e51b815260206004820152601b60248201527f7765746820616464726573732063616e6e6f74206265207a65726f0000000000604482015260640161053b565b600380546001600160a01b0319166001600160a01b0392909216919091179055565b60026001541415611b465760405162461bcd60e51b815260040161053b90613985565b60026001556001600160a01b038516611b715760405162461bcd60e51b815260040161053b90613940565b6001600160a01b038416611b975760405162461bcd60e51b815260040161053b906138fd565b86611bb45760405162461bcd60e51b815260040161053b9061361d565b85611bd15760405162461bcd60e51b815260040161053b90613594565b6001600160a01b038316611bf75760405162461bcd60e51b815260040161053b906137b4565b611c038533308a6121b4565b96506000611c168487878b8b88886124af565b90507fc6562e79ad83f12b8cbb0ee246906bb7f35032fa8ea86dbff30673bbd6de9e3086868a84338960405161095e9695949392919061347e565b60026001541415611c745760405162461bcd60e51b815260040161053b90613985565b60026001556001600160a01b038716611ccf5760405162461bcd60e51b815260206004820181905260248201527f46523a20546f6b656e20616464726573732063616e6e6f74206265207a65726f604482015260640161053b565b6001600160a01b038616611d255760405162461bcd60e51b815260206004820181905260248201527f46523a20506179656520616464726573732063616e6e6f74206265207a65726f604482015260640161053b565b84611d425760405162461bcd60e51b815260040161053b90613871565b83611da05760405162461bcd60e51b815260206004820152602860248201527f46523a2053616c74206d7573742062652067726561746572207468616e207a65604482015267726f20627974657360c01b606482015260840161053b565b600081611db8576004546001600160a01b0316611dc5565b6009546001600160a01b03165b6040516378ce696960e01b81529091506001600160a01b038216906378ce696990611dfe908b908b908b908b908b908b90600401613435565b602060405180830381600087803b158015611e1857600080fd5b505af1158015611e2c573d6000803e3d6000fd5b505050506040513d601f19601f82011682018060405250810190611e509190612fbd565b95507fddc564cdf1d96bd777ab33f08c46f9281c10a4caf7fd7f841bbfc4a85d550640888888888760405161095e9594939291906133fb565b6000546001600160a01b03163314611eb35760405162461bcd60e51b815260040161053b9061383c565b6001600160a01b038316611f1a5760405162461bcd60e51b815260206004820152602860248201527f46523a20496e76616c6964204343545020546f6b656e204d657373656e676572604482015267206164647265737360c01b606482015260840161053b565b6001600160a01b038216611f705760405162461bcd60e51b815260206004820152601e60248201527f46523a20496e76616c6964205553444320546f6b656e20616464726573730000604482015260640161053b565b6001600160a01b038116611fdb5760405162461bcd60e51b815260206004820152602c60248201527f46523a20496e76616c696420536f7572636520434354502046756e64204d616e60448201526b61676572206164647265737360a01b606482015260840161053b565b600880546001600160a01b039485166001600160a01b031991821617909155600780549385169382169390931790925560098054919093169116179055565b6000546001600160a01b031633146120445760405162461bcd60e51b815260040161053b9061383c565b6001600160a01b0381166120a85760405162461bcd60e51b815260206004820152602560248201527f46523a204761732057616c6c657420616464726573732063616e6e6f74206265604482015264207a65726f60d81b606482015260840161053b565b600580546001600160a01b0319166001600160a01b0392909216919091179055565b6000546001600160a01b031633146120f45760405162461bcd60e51b815260040161053b9061383c565b6001600160a01b0381166121595760405162461bcd60e51b815260206004820152602660248201527f4f776e61626c653a206e6577206f776e657220697320746865207a65726f206160448201526564647265737360d01b606482015260840161053b565b600080546040516001600160a01b03808516939216917f8be0079c531659141344cd1fd0a4f28419497f9722a3daafe3b4186f6b6457e091a3600080546001600160a01b0319166001600160a01b0392909216919091179055565b6040516370a0823160e01b81526001600160a01b03838116600483015260009182918716906370a082319060240160206040518083038186803b1580156121fa57600080fd5b505afa15801561220e573d6000803e3d6000fd5b505050506040513d601f19601f820116820180604052508101906122329190612fbd565b90506122496001600160a01b0387168686866125c2565b6040516370a0823160e01b81526001600160a01b038581166004830152600091908816906370a082319060240160206040518083038186803b15801561228e57600080fd5b505afa1580156122a2573d6000803e3d6000fd5b505050506040513d601f19601f820116820180604052508101906122c69190612fbd565b90506122d28282613a00565b92508383111561233a5760405162461bcd60e51b815260206004820152602d60248201527f53413a2061637475616c20616d6f756e74206c6172676572207468616e20747260448201526c185b9cd9995c88185b5bdd5b9d609a1b606482015260840161053b565b5050949350505050565b60085460405163095ea7b360e01b81526001600160a01b0391821660048201526024810186905260009185169063095ea7b390604401602060405180830381600087803b15801561239457600080fd5b505af11580156123a8573d6000803e3d6000fd5b505050506040513d601f19601f820116820180604052508101906123cc9190612f89565b61240a5760405162461bcd60e51b815260206004820152600f60248201526e105c1c1c9bdd985b0819985a5b1959608a1b604482015260640161053b565b6008546007546040516337e9a82760e11b81526004810188905263ffffffff861660248201526001600160a01b0385811660448301529182166064820152911690636fd3504e90608401602060405180830381600087803b15801561246e57600080fd5b505af1158015612482573d6000803e3d6000fd5b505050506040513d601f19601f820116820180604052508101906124a69190613297565b95945050505050565b60006124bb8383610f33565b6125175760405162461bcd60e51b815260206004820152602760248201527f46523a20526f7574657220616e642073656c6563746f72206e6f742077686974604482015266195b1a5cdd195960ca1b606482015260840161053b565b612522878487612633565b600061252e878a6126e5565b905061253a848461279c565b600081612547898c6126e5565b6125519190613a00565b9050858110156125a35760405162461bcd60e51b815260206004820152601960248201527f46523a20536c69707061676520636865636b206661696c656400000000000000604482015260640161053b565b9998505050505050505050565b602001516001600160e01b0319161790565b6040516001600160a01b038085166024830152831660448201526064810182905261262d9085906323b872dd60e01b906084015b60408051601f198184030181529190526020810180516001600160e01b03166001600160e01b03199093169290921790915261285b565b50505050565b604051636eb1769f60e11b81523060048201526001600160a01b03838116602483015284169063dd62ed3e9060440160206040518083038186803b15801561267a57600080fd5b505afa15801561268e573d6000803e3d6000fd5b505050506040513d601f19601f820116820180604052508101906126b29190612fbd565b156126cc576126cc6001600160a01b03841683600061292d565b6126e06001600160a01b038416838361292d565b505050565b60006001600160a01b03831673eeeeeeeeeeeeeeeeeeeeeeeeeeeeeeeeeeeeeeee14612789576040516370a0823160e01b81526001600160a01b0383811660048301528416906370a082319060240160206040518083038186803b15801561274c57600080fd5b505afa158015612760573d6000803e3d6000fd5b505050506040513d601f19601f820116820180604052508101906127849190612fbd565b612795565b816001600160a01b0316315b9392505050565b600080836001600160a01b0316836040516127b791906132eb565b6000604051808303816000865af19150503d80600081146127f4576040519150601f19603f3d011682016040523d82523d6000602084013e6127f9565b606091505b50915091508161262d578051156128135780518082602001fd5b60405162461bcd60e51b815260206004820152601960248201527f46523a2043616c6c20746f20726f75746572206661696c656400000000000000604482015260640161053b565b60006128b0826040518060400160405280602081526020017f5361666545524332303a206c6f772d6c6576656c2063616c6c206661696c6564815250856001600160a01b0316612a519092919063ffffffff16565b8051909150156126e057808060200190518101906128ce9190612f89565b6126e05760405162461bcd60e51b815260206004820152602a60248201527f5361666545524332303a204552433230206f7065726174696f6e20646964206e6044820152691bdd081cdd58d8d9595960b21b606482015260840161053b565b8015806129b65750604051636eb1769f60e11b81523060048201526001600160a01b03838116602483015284169063dd62ed3e9060440160206040518083038186803b15801561297c57600080fd5b505afa158015612990573d6000803e3d6000fd5b505050506040513d601f19601f820116820180604052508101906129b49190612fbd565b155b612a215760405162461bcd60e51b815260206004820152603660248201527f5361666545524332303a20617070726f76652066726f6d206e6f6e2d7a65726f60448201527520746f206e6f6e2d7a65726f20616c6c6f77616e636560501b606482015260840161053b565b6040516001600160a01b0383166024820152604481018290526126e090849063095ea7b360e01b906064016125f6565b6060612a608484600085612a68565b949350505050565b606082471015612ac95760405162461bcd60e51b815260206004820152602660248201527f416464726573733a20696e73756666696369656e742062616c616e636520666f6044820152651c8818d85b1b60d21b606482015260840161053b565b612ad285612b97565b612b1e5760405162461bcd60e51b815260206004820152601d60248201527f416464726573733a2063616c6c20746f206e6f6e2d636f6e7472616374000000604482015260640161053b565b600080866001600160a01b03168587604051612b3a91906132eb565b60006040518083038185875af1925050503d8060008114612b77576040519150601f19603f3d011682016040523d82523d6000602084013e612b7c565b606091505b5091509150612b8c828286612ba1565b979650505050505050565b803b15155b919050565b60608315612bb0575081612795565b825115612bc05782518084602001fd5b8160405162461bcd60e51b815260040161053b9190613581565b8035612b9c81613a65565b8035612b9c81613a7d565b600082601f830112612c00578081fd5b813567ffffffffffffffff80821115612c1b57612c1b613a4f565b604051601f8301601f19908116603f01168101908282118183101715612c4357612c43613a4f565b81604052838152866020858801011115612c5b578485fd5b8360208701602083013792830160200193909352509392505050565b600060208284031215612c88578081fd5b813561279581613a65565b60008060008060008060008060008060006101608c8e031215612cb4578687fd5b612cbd8c612bda565b9a5060208c0135995060408c01359850612cd960608d01612bda565b9750612ce760808d01612bda565b9650612cf560a08d01612bda565b955067ffffffffffffffff8060c08e01351115612d10578586fd5b612d208e60c08f01358f01612bf0565b955060e08d013594506101008d01359350806101208e01351115612d42578283fd5b50612d548d6101208e01358e01612bf0565b9150612d636101408d01612be5565b90509295989b509295989b9093969950565b600080600060608486031215612d89578283fd5b8335612d9481613a65565b92506020840135612da481613a65565b91506040840135612db481613a65565b809150509250925092565b600080600080600080600060e0888a031215612dd9578283fd5b8735612de481613a65565b96506020880135612df481613a65565b955060408801359450606088013593506080880135925060a088013567ffffffffffffffff811115612e24578283fd5b612e308a828b01612bf0565b92505060c0880135612e4181613a7d565b8091505092959891949750929550565b600080600060408486031215612e65578283fd5b8335612e7081613a65565b9250602084013567ffffffffffffffff80821115612e8c578384fd5b818601915086601f830112612e9f578384fd5b813581811115612ead578485fd5b876020828501011115612ebe578485fd5b6020830194508093505050509250925092565b60008060408385031215612ee3578182fd5b8235612eee81613a65565b9150602083013567ffffffffffffffff811115612f09578182fd5b612f1585828601612bf0565b9150509250929050565b600080600080600080600060e0888a031215612f39578283fd5b8735612f4481613a65565b965060208801359550604088013594506060880135612f6281613a65565b93506080880135612f7281613a65565b925060a0880135915060c0880135612e4181613a7d565b600060208284031215612f9a578081fd5b815161279581613a7d565b600060208284031215612fb6578081fd5b5035919050565b600060208284031215612fce578081fd5b5051919050565b600080600080600060a08688031215612fec578283fd5b853594506020860135612ffe81613a65565b9350604086013561300e81613a65565b9250606086013561301e81613a65565b9150608086013567ffffffffffffffff811115613039578182fd5b61304588828901612bf0565b9150509295509295909350565b6000806000806000806000806000806101408b8d031215613071578384fd5b8a35995060208b013561308381613a65565b985060408b0135975060608b013561309a81613a65565b965060808b013567ffffffffffffffff8111156130b5578485fd5b6130c18d828e01612bf0565b96505060a08b0135945060c08b01356130d981613a65565b935060e08b01356130e981613a65565b92506101008b013591506101208b013561310281613a7d565b809150509295989b9194979a5092959850565b600080600080600080600060e0888a03121561312f578081fd5b8735965060208801359550604088013561314881613a65565b9450606088013561315881613a65565b9350608088013561316881613a65565b925060a088013561317881613a65565b915060c088013567ffffffffffffffff811115613193578182fd5b61319f8a828b01612bf0565b91505092959891949750929550565b60008060008060008060008060008060006101608c8e0312156131cf578485fd5b8b359a5060208c0135995060408c01356131e881613a65565b985060608c01356131f881613a65565b975061320660808d01612bda565b965060a08c013567ffffffffffffffff811115613221578586fd5b61322d8e828f01612bf0565b96505060c08c0135945061324360e08d01612bda565b93506132526101008d01612bda565b92506101208c01359150612d636101408d01612be5565b60008060006060848603121561327d578081fd5b83359250602084013563ffffffff81168114612da4578182fd5b6000602082840312156132a8578081fd5b815167ffffffffffffffff81168114612795578182fd5b600081518084526132d7816020860160208601613a23565b601f01601f19169290920160200192915050565b600082516132fd818460208701613a23565b9190910192915050565b6001600160a01b038a81168252602082018a90526040820189905287811660608301528681166080830152851660a082015261012060c08201819052600090613352838201876132bf565b90508460e084015282810361010084015261336d81856132bf565b9c9b505050505050505050505050565b6001600160a01b038b81168252602082018b9052604082018a905288811660608301528781166080830152861660a082015261014060c082018190526000906133c8838201886132bf565b90508560e0840152846101008401528281036101208401526133ea81856132bf565b9d9c50505050505050505050505050565b6001600160a01b03868116825285166020820152604081018490526060810183905260a060808201819052600090612b8c908301846132bf565b600060018060a01b03808916835280881660208401525085604083015284606083015283608083015260c060a083015261347260c08301846132bf565b98975050505050505050565b6001600160a01b0396871681529486166020860152604085019390935260608401919091528316608083015290911660a082015260c00190565b6001600160a01b039a8b168152988a1660208a015260408901979097526060880195909552608087019390935290861660a086015290941660c084015260e08301939093526101008201929092526101208101919091526101400190565b6001600160a01b03841681526040602082018190528101829052600082846060840137818301606090810191909152601f909201601f1916010192915050565b6001600160a01b03948516815260208101939093526040830191909152909116606082015260800190565b60006020825261279560208301846132bf565b60208082526028908201527f46523a20416d6f756e74206f7574206d7573742062652067726561746572207460408201526768616e207a65726f60c01b606082015260800190565b60208082526021908201527f46523a20576974686472617720646174612063616e6e6f7420626520656d70746040820152607960f81b606082015260800190565b60208082526027908201527f46523a20416d6f756e7420696e206d7573742062652067726561746572207468604082015266616e207a65726f60c81b606082015260800190565b6020808252601b908201527f46523a2047617320666565207472616e73666572206661696c65640000000000604082015260600190565b6020808252601c908201527f46523a20546172676574206e6574776f726b206e6f7420666f756e6400000000604082015260600190565b6020808252602d908201527f46523a2043726f73732074617267657420746f6b656e2061646472657373206360408201526c616e6e6f74206265207a65726f60981b606082015260800190565b60208082526028908201527f46523a2047617320416d6f756e74206d7573742062652067726561746572207460408201526768616e207a65726f60c01b606082015260800190565b6020808252602d908201527f46523a2054617267657420434354502046756e644d616e61676572206164647260408201526c195cdcc81b9bdd08199bdd5b99609a1b606082015260800190565b60208082526021908201527f46523a2054617267657420616464726573732063616e6e6f74206265207a65726040820152606f60f81b606082015260800190565b60208082526027908201527f46523a2054617267657420746f6b656e20616464726573732063616e6e6f74206040820152666265207a65726f60c81b606082015260800190565b6020808252818101527f4f776e61626c653a2063616c6c6572206973206e6f7420746865206f776e6572604082015260600190565b60208082526024908201527f46523a20416d6f756e74206d7573742062652067726561746572207468616e206040820152637a65726f60e01b606082015260800190565b60208082526028908201527f46523a20466f756e64727920746f6b656e20616464726573732063616e6e6f74604082015267206265207a65726f60c01b606082015260800190565b60208082526023908201527f46523a20546f20746f6b656e20616464726573732063616e6e6f74206265207a60408201526265726f60e81b606082015260800190565b60208082526025908201527f46523a2046726f6d20746f6b656e20616464726573732063616e6e6f74206265604082015264207a65726f60d81b606082015260800190565b6020808252601f908201527f5265656e7472616e637947756172643a207265656e7472616e742063616c6c00604082015260600190565b958652602086019490945263ffffffff9290921660408501526001600160a01b03908116606085015216608083015267ffffffffffffffff1660a082015260c00190565b600082821015613a1e57634e487b7160e01b81526011600452602481fd5b500390565b60005b83811015613a3e578181015183820152602001613a26565b8381111561262d5750506000910152565b634e487b7160e01b600052604160045260246000fd5b6001600160a01b0381168114613a7a57600080fd5b50565b8015158114613a7a57600080fdfea2646970667358221220bc265ac460d28fc9688ee3169eb615426081c23c77ea7767b5368a5e5fc612d064736f6c63430008020033",
  "linkReferences": {},
  "deployedLinkReferences": {}
}