{
  "_format": "hh-sol-artifact-1",
  "contractName": "FiberRouter",
  "sourceName": "contracts/upgradeable-Bridge/FiberRouter.sol",
  "abi": [
    {
      "anonymous": false,
      "inputs": [
        {
          "indexed": false,
          "internalType": "uint8",
          "name": "version",
          "type": "uint8"
        }
      ],
      "name": "Initialized",
      "type": "event"
    },
    {
      "anonymous": false,
      "inputs": [
        {
          "indexed": true,
          "internalType": "address",
          "name": "previousOwner",
          "type": "address"
        },
        {
          "indexed": true,
          "internalType": "address",
          "name": "newOwner",
          "type": "address"
        }
      ],
      "name": "OwnershipTransferred",
      "type": "event"
    },
    {
      "inputs": [
        {
          "internalType": "address",
          "name": "_token",
          "type": "address"
        }
      ],
      "name": "getFoundryTokenPrice",
      "outputs": [
        {
          "internalType": "uint256",
          "name": "",
          "type": "uint256"
        }
      ],
      "stateMutability": "view",
      "type": "function"
    },
    {
      "inputs": [],
      "name": "initialize",
      "outputs": [],
      "stateMutability": "nonpayable",
      "type": "function"
    },
    {
      "inputs": [],
      "name": "owner",
      "outputs": [
        {
          "internalType": "address",
          "name": "",
          "type": "address"
        }
      ],
      "stateMutability": "view",
      "type": "function"
    },
    {
      "inputs": [],
      "name": "pool",
      "outputs": [
        {
          "internalType": "address",
          "name": "",
          "type": "address"
        }
      ],
      "stateMutability": "view",
      "type": "function"
    },
    {
      "inputs": [
        {
          "internalType": "address",
          "name": "",
          "type": "address"
        }
      ],
      "name": "priceFeed",
      "outputs": [
        {
          "internalType": "contract AggregatorV3Interface",
          "name": "",
          "type": "address"
        }
      ],
      "stateMutability": "view",
      "type": "function"
    },
    {
      "inputs": [],
      "name": "renounceOwnership",
      "outputs": [],
      "stateMutability": "nonpayable",
      "type": "function"
    },
    {
      "inputs": [
        {
          "internalType": "address",
          "name": "_token",
          "type": "address"
        },
        {
          "internalType": "address",
          "name": "_oracleAddress",
          "type": "address"
        }
      ],
      "name": "setOracle",
      "outputs": [],
      "stateMutability": "nonpayable",
      "type": "function"
    },
    {
      "inputs": [
        {
          "internalType": "address",
          "name": "_pool",
          "type": "address"
        }
      ],
      "name": "setPool",
      "outputs": [],
      "stateMutability": "nonpayable",
      "type": "function"
    },
    {
      "inputs": [
        {
          "internalType": "address",
          "name": "token",
          "type": "address"
        },
        {
          "internalType": "uint256",
          "name": "amount",
          "type": "uint256"
        },
        {
          "internalType": "uint256",
          "name": "targetNetwork",
          "type": "uint256"
        },
        {
          "internalType": "address",
          "name": "targetToken",
          "type": "address"
        },
        {
          "internalType": "address",
          "name": "targetAddress",
          "type": "address"
        }
      ],
      "name": "swap",
      "outputs": [],
      "stateMutability": "nonpayable",
      "type": "function"
    },
    {
      "inputs": [
        {
          "internalType": "address",
          "name": "swapRouter",
          "type": "address"
        },
        {
          "internalType": "uint256",
          "name": "amountIn",
          "type": "uint256"
        },
        {
          "internalType": "uint256",
          "name": "amountCrossMin",
          "type": "uint256"
        },
        {
          "internalType": "address[]",
          "name": "path",
          "type": "address[]"
        },
        {
          "internalType": "uint256",
          "name": "deadline",
          "type": "uint256"
        },
        {
          "internalType": "uint256",
          "name": "crossTargetNetwork",
          "type": "uint256"
        },
        {
          "internalType": "address",
          "name": "crossTargetFoundryToken",
          "type": "address"
        }
      ],
      "name": "swapAndCross",
      "outputs": [],
      "stateMutability": "nonpayable",
      "type": "function"
    },
    {
      "inputs": [
        {
          "internalType": "address",
          "name": "swapRouter",
          "type": "address"
        },
        {
          "internalType": "uint256",
          "name": "amountCrossMin",
          "type": "uint256"
        },
        {
          "internalType": "address[]",
          "name": "path",
          "type": "address[]"
        },
        {
          "internalType": "uint256",
          "name": "deadline",
          "type": "uint256"
        },
        {
          "internalType": "uint256",
          "name": "crossTargetNetwork",
          "type": "uint256"
        },
        {
          "internalType": "address",
          "name": "crossTargetFoundryToken",
          "type": "address"
        }
      ],
      "name": "swapAndCrossETH",
      "outputs": [],
      "stateMutability": "payable",
      "type": "function"
    },
    {
      "inputs": [
        {
          "internalType": "address",
          "name": "to",
          "type": "address"
        },
        {
          "internalType": "address",
          "name": "swapRouter",
          "type": "address"
        },
        {
          "internalType": "uint256",
          "name": "amountIn",
          "type": "uint256"
        },
        {
          "internalType": "uint256",
          "name": "amountOutMin",
          "type": "uint256"
        },
        {
          "internalType": "address[]",
          "name": "path",
          "type": "address[]"
        },
        {
          "internalType": "uint256",
          "name": "deadline",
          "type": "uint256"
        }
      ],
      "name": "swapETHForTokenSameNetwork",
      "outputs": [],
      "stateMutability": "payable",
      "type": "function"
    },
    {
      "inputs": [
        {
          "internalType": "address",
          "name": "to",
          "type": "address"
        },
        {
          "internalType": "address",
          "name": "swapRouter",
          "type": "address"
        },
        {
          "internalType": "uint256",
          "name": "amountIn",
          "type": "uint256"
        },
        {
          "internalType": "uint256",
          "name": "amountOutMin",
          "type": "uint256"
        },
        {
          "internalType": "address[]",
          "name": "path",
          "type": "address[]"
        },
        {
          "internalType": "uint256",
          "name": "deadline",
          "type": "uint256"
        }
      ],
      "name": "swapTokenForETHSameNetwork",
      "outputs": [],
      "stateMutability": "nonpayable",
      "type": "function"
    },
    {
      "inputs": [
        {
          "internalType": "address",
          "name": "to",
          "type": "address"
        },
        {
          "internalType": "address",
          "name": "swapRouter",
          "type": "address"
        },
        {
          "internalType": "uint256",
          "name": "amountIn",
          "type": "uint256"
        },
        {
          "internalType": "uint256",
          "name": "amountOutMin",
          "type": "uint256"
        },
        {
          "internalType": "address[]",
          "name": "path",
          "type": "address[]"
        },
        {
          "internalType": "uint256",
          "name": "deadline",
          "type": "uint256"
        }
      ],
      "name": "swapTokenForTokenSameNetwork",
      "outputs": [],
      "stateMutability": "nonpayable",
      "type": "function"
    },
    {
      "inputs": [
        {
          "internalType": "address",
          "name": "newOwner",
          "type": "address"
        }
      ],
      "name": "transferOwnership",
      "outputs": [],
      "stateMutability": "nonpayable",
      "type": "function"
    },
    {
      "inputs": [
        {
          "internalType": "address",
          "name": "token",
          "type": "address"
        },
        {
          "internalType": "address",
          "name": "payee",
          "type": "address"
        },
        {
          "internalType": "uint256",
          "name": "amount",
          "type": "uint256"
        },
        {
          "internalType": "bytes32",
          "name": "salt",
          "type": "bytes32"
        },
        {
          "internalType": "bytes",
          "name": "multiSignature",
          "type": "bytes"
        }
      ],
      "name": "withdrawSigned",
      "outputs": [],
      "stateMutability": "nonpayable",
      "type": "function"
    },
    {
      "inputs": [
        {
          "internalType": "address",
          "name": "to",
          "type": "address"
        },
        {
          "internalType": "address",
          "name": "swapRouter",
          "type": "address"
        },
        {
          "internalType": "uint256",
          "name": "amountIn",
          "type": "uint256"
        },
        {
          "internalType": "uint256",
          "name": "amountOutMin",
          "type": "uint256"
        },
        {
          "internalType": "address[]",
          "name": "path",
          "type": "address[]"
        },
        {
          "internalType": "uint256",
          "name": "deadline",
          "type": "uint256"
        },
        {
          "internalType": "bytes32",
          "name": "salt",
          "type": "bytes32"
        },
        {
          "internalType": "bytes",
          "name": "multiSignature",
          "type": "bytes"
        }
      ],
      "name": "withdrawSignedAndSwap",
      "outputs": [],
      "stateMutability": "nonpayable",
      "type": "function"
    },
    {
      "inputs": [
        {
          "internalType": "address",
          "name": "to",
          "type": "address"
        },
        {
          "internalType": "address",
          "name": "swapRouter",
          "type": "address"
        },
        {
          "internalType": "uint256",
          "name": "amountIn",
          "type": "uint256"
        },
        {
          "internalType": "uint256",
          "name": "amountOutMin",
          "type": "uint256"
        },
        {
          "internalType": "address[]",
          "name": "path",
          "type": "address[]"
        },
        {
          "internalType": "uint256",
          "name": "deadline",
          "type": "uint256"
        },
        {
          "internalType": "bytes32",
          "name": "salt",
          "type": "bytes32"
        },
        {
          "internalType": "bytes",
          "name": "multiSignature",
          "type": "bytes"
        }
      ],
      "name": "withdrawSignedAndSwapETH",
      "outputs": [],
      "stateMutability": "nonpayable",
      "type": "function"
    },
    {
      "inputs": [
        {
          "internalType": "address",
          "name": "bridgeFoundry",
          "type": "address"
        },
        {
          "internalType": "address",
          "name": "targetFoundry",
          "type": "address"
        },
        {
          "internalType": "address",
          "name": "payee",
          "type": "address"
        },
        {
          "internalType": "uint256",
          "name": "amount",
          "type": "uint256"
        },
        {
          "internalType": "bytes32",
          "name": "salt",
          "type": "bytes32"
        },
        {
          "internalType": "bytes",
          "name": "multiSignature",
          "type": "bytes"
        }
      ],
      "name": "withdrawSignedAndSwapToFoundry",
      "outputs": [],
      "stateMutability": "nonpayable",
      "type": "function"
    },
    {
      "stateMutability": "payable",
      "type": "receive"
    }
  ],
  "bytecode": "0x608060405234801561001057600080fd5b50612843806100206000396000f3fe6080604052600436106101185760003560e01c80638129fc1c116100a0578063bdb519b411610064578063bdb519b4146102f5578063c695e98e14610315578063e450219d14610335578063f1aaf72d14610355578063f2fde38b146103755761011f565b80638129fc1c146102625780638d6e9291146102775780638da5cb5b146102975780639f240e7d146102b5578063a81cb92e146102d55761011f565b80633364a4e5116100e75780633364a4e5146101da5780634437152a146101fa578063591a40c41461021a5780635c38eb3a1461022d578063715018a61461024d5761011f565b80630efe792d146101245780630f415c661461015757806316f0115b1461016c5780631fd48b9a146101a45761011f565b3661011f57005b600080fd5b34801561013057600080fd5b5061014461013f366004611fb8565b610395565b6040519081526020015b60405180910390f35b61016a610165366004612121565b6104e2565b005b34801561017857600080fd5b5060975461018c906001600160a01b031681565b6040516001600160a01b03909116815260200161014e565b3480156101b057600080fd5b5061018c6101bf366004611fb8565b6098602052600090815260409020546001600160a01b031681565b3480156101e657600080fd5b5061016a6101f53660046121a4565b6106a8565b34801561020657600080fd5b5061016a610215366004611fb8565b610950565b61016a610228366004612256565b61097a565b34801561023957600080fd5b5061016a610248366004611ff0565b610b5e565b34801561025957600080fd5b5061016a610b94565b34801561026e57600080fd5b5061016a610ba8565b34801561028357600080fd5b5061016a6102923660046120ad565b610cc1565b3480156102a357600080fd5b506065546001600160a01b031661018c565b3480156102c157600080fd5b5061016a6102d03660046121a4565b610d53565b3480156102e157600080fd5b5061016a6102f03660046122db565b610ef6565b34801561030157600080fd5b5061016a610310366004612028565b611077565b34801561032157600080fd5b5061016a610330366004612121565b611133565b34801561034157600080fd5b5061016a610350366004612339565b61131e565b34801561036157600080fd5b5061016a610370366004612121565b6114bd565b34801561038157600080fd5b5061016a610390366004611fb8565b61166d565b6001600160a01b03808216600090815260986020526040808220548151633fabe5a360e21b815291519293849391169163feaf968c9160048083019260a0929190829003018186803b1580156103ea57600080fd5b505afa1580156103fe573d6000803e3d6000fd5b505050506040513d601f19601f8201168201806040525081019061042291906123ff565b5050506001600160a01b03808616600090815260986020908152604080832054815163313ce56760e01b81529151959750929550919092169263313ce56792600480840193919291829003018186803b15801561047e57600080fd5b505afa158015610492573d6000803e3d6000fd5b505050506040513d601f19601f820116820180604052508101906104b6919061244e565b90506104c381601261277d565b6104ce90600a612676565b6104d89083612747565b925050505b919050565b60003490506000876001600160a01b031663ad5c46486040518163ffffffff1660e01b815260040160206040518083038186803b15801561052257600080fd5b505afa158015610536573d6000803e3d6000fd5b505050506040513d601f19601f8201168201806040525081019061055a9190611fd4565b60405163095ea7b360e01b81526001600160a01b038a81166004830152602482018590529192509082169063095ea7b390604401602060405180830381600087803b1580156105a857600080fd5b505af11580156105bc573d6000803e3d6000fd5b505050506040513d601f19601f820116820180604052508101906105e091906123c7565b50806001600160a01b031663d0e30db0836040518263ffffffff1660e01b81526004016000604051808303818588803b15801561061c57600080fd5b505af1158015610630573d6000803e3d6000fd5b5050505050876001600160a01b0316635c11d795838888888e896040518763ffffffff1660e01b815260040161066b9695949392919061259d565b600060405180830381600087803b15801561068557600080fd5b505af1158015610699573d6000803e3d6000fd5b50505050505050505050505050565b600184116106f25760405162461bcd60e51b815260206004820152601260248201527110948e881c185d1a081d1bdbc81cda1bdc9d60721b60448201526064015b60405180910390fd5b6097546001600160a01b0316638d6e9291868660008161072257634e487b7160e01b600052603260045260246000fd5b90506020020160208101906107379190611fb8565b308a86866040518663ffffffff1660e01b815260040161075b9594939291906124b7565b602060405180830381600087803b15801561077557600080fd5b505af1158015610789573d6000803e3d6000fd5b505050506040513d601f19601f820116820180604052508101906107ad91906123e7565b50848460008181106107cf57634e487b7160e01b600052603260045260246000fd5b90506020020160208101906107e49190611fb8565b6040516370a0823160e01b81523060048201526001600160a01b0391909116906370a082319060240160206040518083038186803b15801561082557600080fd5b505afa158015610839573d6000803e3d6000fd5b505050506040513d601f19601f8201168201806040525081019061085d91906123e7565b96508484600081811061088057634e487b7160e01b600052603260045260246000fd5b90506020020160208101906108959190611fb8565b60405163095ea7b360e01b81526001600160a01b038a81166004830152602482018a9052919091169063095ea7b390604401602060405180830381600087803b1580156108e157600080fd5b505af11580156108f5573d6000803e3d6000fd5b505050506040513d601f19601f8201168201806040525081019061091991906123c7565b50876001600160a01b0316635c11d795888888888e896040518763ffffffff1660e01b815260040161066b9695949392919061259d565b6109586116e3565b609780546001600160a01b0319166001600160a01b0392909216919091179055565b468281148015906109d25750816001600160a01b0316868660008181106109b157634e487b7160e01b600052603260045260246000fd5b90506020020160208101906109c69190611fb8565b6001600160a01b031614155b6109ee5760405162461bcd60e51b81526004016106e99061250f565b60003490506000896001600160a01b031663ad5c46486040518163ffffffff1660e01b815260040160206040518083038186803b158015610a2e57600080fd5b505afa158015610a42573d6000803e3d6000fd5b505050506040513d601f19601f82011682018060405250810190610a669190611fd4565b60405163095ea7b360e01b81526001600160a01b038c81166004830152602482018590529192509082169063095ea7b390604401602060405180830381600087803b158015610ab457600080fd5b505af1158015610ac8573d6000803e3d6000fd5b505050506040513d601f19601f82011682018060405250810190610aec91906123c7565b50806001600160a01b031663d0e30db0836040518263ffffffff1660e01b81526004016000604051808303818588803b158015610b2857600080fd5b505af1158015610b3c573d6000803e3d6000fd5b5050505050610b52338b848c8c8c8c8c8c61173d565b50505050505050505050565b610b666116e3565b6001600160a01b03918216600090815260986020526040902080546001600160a01b03191691909216179055565b610b9c6116e3565b610ba6600061190f565b565b600054610100900460ff1615808015610bc85750600054600160ff909116105b80610be25750303b158015610be2575060005460ff166001145b610c455760405162461bcd60e51b815260206004820152602e60248201527f496e697469616c697a61626c653a20636f6e747261637420697320616c72656160448201526d191e481a5b9a5d1a585b1a5e995960921b60648201526084016106e9565b6000805460ff191660011790558015610c68576000805461ff0019166101001790555b610c70611961565b610c78611990565b8015610cbe576000805461ff0019169055604051600181527f7f26b83ff96e1f2b6a682f133852f6798a09c465da95921460cefb38474024989060200160405180910390a15b50565b609754604051638d6e929160e01b81526001600160a01b0390911690638d6e929190610cf990889088908890889088906004016124b7565b602060405180830381600087803b158015610d1357600080fd5b505af1158015610d27573d6000803e3d6000fd5b505050506040513d601f19601f82011682018060405250810190610d4b91906123e7565b505050505050565b6097546001600160a01b0316638d6e92918686600081610d8357634e487b7160e01b600052603260045260246000fd5b9050602002016020810190610d989190611fb8565b308a86866040518663ffffffff1660e01b8152600401610dbc9594939291906124b7565b602060405180830381600087803b158015610dd657600080fd5b505af1158015610dea573d6000803e3d6000fd5b505050506040513d601f19601f82011682018060405250810190610e0e91906123e7565b5084846000818110610e3057634e487b7160e01b600052603260045260246000fd5b9050602002016020810190610e459190611fb8565b6040516370a0823160e01b81523060048201526001600160a01b0391909116906370a082319060240160206040518083038186803b158015610e8657600080fd5b505afa158015610e9a573d6000803e3d6000fd5b505050506040513d601f19601f82011682018060405250810190610ebe91906123e7565b9650876001600160a01b031663791ac947888888888e896040518763ffffffff1660e01b815260040161066b9695949392919061259d565b46838114801590610f195750826001600160a01b0316866001600160a01b031614155b610f355760405162461bcd60e51b81526004016106e99061250f565b610f4a6001600160a01b0387163330886119bf565b60975460405163095ea7b360e01b81526001600160a01b039182166004820152602481018790529087169063095ea7b390604401602060405180830381600087803b158015610f9857600080fd5b505af1158015610fac573d6000803e3d6000fd5b505050506040513d601f19601f82011682018060405250810190610fd091906123c7565b506097546040516352f9567d60e01b81526001600160a01b038881166004830152602482018890526044820187905285811660648301528481166084830152909116906352f9567d9060a401602060405180830381600087803b15801561103657600080fd5b505af115801561104a573d6000803e3d6000fd5b505050506040513d601f19601f8201168201806040525081019061106e91906123e7565b50505050505050565b600061108287610395565b9050600061108f87610395565b905060008161109e8488612747565b6110a89190612610565b609754604051638d6e929160e01b81529192506001600160a01b031690638d6e9291906110e1908b908b9086908b908b906004016124b7565b602060405180830381600087803b1580156110fb57600080fd5b505af115801561110f573d6000803e3d6000fd5b505050506040513d601f19601f82011682018060405250810190610b5291906123e7565b8282600081811061115457634e487b7160e01b600052603260045260246000fd5b90506020020160208101906111699190611fb8565b6040516323b872dd60e01b8152336004820152306024820152604481018790526001600160a01b0391909116906323b872dd90606401602060405180830381600087803b1580156111b957600080fd5b505af11580156111cd573d6000803e3d6000fd5b505050506040513d601f19601f820116820180604052508101906111f191906123c7565b508282600081811061121357634e487b7160e01b600052603260045260246000fd5b90506020020160208101906112289190611fb8565b60405163095ea7b360e01b81526001600160a01b03888116600483015260248201889052919091169063095ea7b390604401602060405180830381600087803b15801561127457600080fd5b505af1158015611288573d6000803e3d6000fd5b505050506040513d601f19601f820116820180604052508101906112ac91906123c7565b5060405163791ac94760e01b81526001600160a01b0387169063791ac947906112e39088908890889088908e90899060040161259d565b600060405180830381600087803b1580156112fd57600080fd5b505af1158015611311573d6000803e3d6000fd5b5050505050505050505050565b611326611a1f565b4682811480159061137e5750816001600160a01b03168686600081811061135d57634e487b7160e01b600052603260045260246000fd5b90506020020160208101906113729190611fb8565b6001600160a01b031614155b61139a5760405162461bcd60e51b81526004016106e99061250f565b6113db868660008181106113be57634e487b7160e01b600052603260045260246000fd5b90506020020160208101906113d39190611fb8565b33308b611a79565b9750858560008181106113fe57634e487b7160e01b600052603260045260246000fd5b90506020020160208101906114139190611fb8565b60405163095ea7b360e01b81526001600160a01b038b81166004830152602482018b9052919091169063095ea7b390604401602060405180830381600087803b15801561145f57600080fd5b505af1158015611473573d6000803e3d6000fd5b505050506040513d601f19601f8201168201806040525081019061149791906123c7565b506114a9338a8a8a8a8a8a8a8a61173d565b506114b360018055565b5050505050505050565b828260008181106114de57634e487b7160e01b600052603260045260246000fd5b90506020020160208101906114f39190611fb8565b6040516323b872dd60e01b8152336004820152306024820152604481018790526001600160a01b0391909116906323b872dd90606401602060405180830381600087803b15801561154357600080fd5b505af1158015611557573d6000803e3d6000fd5b505050506040513d601f19601f8201168201806040525081019061157b91906123c7565b508282600081811061159d57634e487b7160e01b600052603260045260246000fd5b90506020020160208101906115b29190611fb8565b60405163095ea7b360e01b81526001600160a01b03888116600483015260248201889052919091169063095ea7b390604401602060405180830381600087803b1580156115fe57600080fd5b505af1158015611612573d6000803e3d6000fd5b505050506040513d601f19601f8201168201806040525081019061163691906123c7565b50604051635c11d79560e01b81526001600160a01b03871690635c11d795906112e39088908890889088908e90899060040161259d565b6116756116e3565b6001600160a01b0381166116da5760405162461bcd60e51b815260206004820152602660248201527f4f776e61626c653a206e6577206f776e657220697320746865207a65726f206160448201526564647265737360d01b60648201526084016106e9565b610cbe8161190f565b6065546001600160a01b03163314610ba65760405162461bcd60e51b815260206004820181905260248201527f4f776e61626c653a2063616c6c6572206973206e6f7420746865206f776e657260448201526064016106e9565b604051635c11d79560e01b81526001600160a01b03891690635c11d79590611773908a908a908a908a9030908b9060040161259d565b600060405180830381600087803b15801561178d57600080fd5b505af11580156117a1573d6000803e3d6000fd5b50600092508791508690506117b7600182612766565b8181106117d457634e487b7160e01b600052603260045260246000fd5b90506020020160208101906117e99190611fb8565b60975460405163095ea7b360e01b81526001600160a01b039182166004820152602481018a905291925082169063095ea7b390604401602060405180830381600087803b15801561183957600080fd5b505af115801561184d573d6000803e3d6000fd5b505050506040513d601f19601f8201168201806040525081019061187191906123c7565b506097546040516352f9567d60e01b81526001600160a01b038381166004830152602482018a90526044820186905284811660648301528c81166084830152909116906352f9567d9060a401602060405180830381600087803b1580156118d757600080fd5b505af11580156118eb573d6000803e3d6000fd5b505050506040513d601f19601f8201168201806040525081019061131191906123e7565b606580546001600160a01b038381166001600160a01b0319831681179093556040519116919082907f8be0079c531659141344cd1fd0a4f28419497f9722a3daafe3b4186f6b6457e090600090a35050565b600054610100900460ff166119885760405162461bcd60e51b81526004016106e990612552565b610ba6611c0f565b600054610100900460ff166119b75760405162461bcd60e51b81526004016106e990612552565b610ba6611c3f565b604080516001600160a01b0385811660248301528416604482015260648082018490528251808303909101815260849091019091526020810180516001600160e01b03166323b872dd60e01b179052611a19908590611c66565b50505050565b60026001541415611a725760405162461bcd60e51b815260206004820152601f60248201527f5265656e7472616e637947756172643a207265656e7472616e742063616c6c0060448201526064016106e9565b6002600155565b6040516370a0823160e01b81526001600160a01b03838116600483015260009182918716906370a082319060240160206040518083038186803b158015611abf57600080fd5b505afa158015611ad3573d6000803e3d6000fd5b505050506040513d601f19601f82011682018060405250810190611af791906123e7565b9050611b0e6001600160a01b0387168686866119bf565b6040516370a0823160e01b81526001600160a01b038581166004830152600091908816906370a082319060240160206040518083038186803b158015611b5357600080fd5b505afa158015611b67573d6000803e3d6000fd5b505050506040513d601f19601f82011682018060405250810190611b8b91906123e7565b9050611b978282612766565b925083831115611bff5760405162461bcd60e51b815260206004820152602d60248201527f53413a2061637475616c20616d6f756e74206c6172676572207468616e20747260448201526c185b9cd9995c88185b5bdd5b9d609a1b60648201526084016106e9565b5050949350505050565b60018055565b600054610100900460ff16611c365760405162461bcd60e51b81526004016106e990612552565b610ba63361190f565b600054610100900460ff16611c095760405162461bcd60e51b81526004016106e990612552565b6000611cbb826040518060400160405280602081526020017f5361666545524332303a206c6f772d6c6576656c2063616c6c206661696c6564815250856001600160a01b0316611d3d9092919063ffffffff16565b805190915015611d385780806020019051810190611cd991906123c7565b611d385760405162461bcd60e51b815260206004820152602a60248201527f5361666545524332303a204552433230206f7065726174696f6e20646964206e6044820152691bdd081cdd58d8d9595960b21b60648201526084016106e9565b505050565b6060611d4c8484600085611d56565b90505b9392505050565b606082471015611db75760405162461bcd60e51b815260206004820152602660248201527f416464726573733a20696e73756666696369656e742062616c616e636520666f6044820152651c8818d85b1b60d21b60648201526084016106e9565b600080866001600160a01b03168587604051611dd3919061249b565b60006040518083038185875af1925050503d8060008114611e10576040519150601f19603f3d011682016040523d82523d6000602084013e611e15565b606091505b5091509150611e2687838387611e33565b925050505b949350505050565b60608315611e9f578251611e98576001600160a01b0385163b611e985760405162461bcd60e51b815260206004820152601d60248201527f416464726573733a2063616c6c20746f206e6f6e2d636f6e747261637400000060448201526064016106e9565b5081611e2b565b611e2b8383815115611eb45781518083602001fd5b8060405162461bcd60e51b81526004016106e991906124fc565b60008083601f840112611edf578081fd5b50813567ffffffffffffffff811115611ef6578182fd5b6020830191508360208083028501011115611f1057600080fd5b9250929050565b600082601f830112611f27578081fd5b813567ffffffffffffffff80821115611f4257611f426127e2565b604051601f8301601f19908116603f01168101908282118183101715611f6a57611f6a6127e2565b81604052838152866020858801011115611f82578485fd5b8360208701602083013792830160200193909352509392505050565b805169ffffffffffffffffffff811681146104dd57600080fd5b600060208284031215611fc9578081fd5b8135611d4f816127f8565b600060208284031215611fe5578081fd5b8151611d4f816127f8565b60008060408385031215612002578081fd5b823561200d816127f8565b9150602083013561201d816127f8565b809150509250929050565b60008060008060008060c08789031215612040578182fd5b863561204b816127f8565b9550602087013561205b816127f8565b9450604087013561206b816127f8565b9350606087013592506080870135915060a087013567ffffffffffffffff811115612094578182fd5b6120a089828a01611f17565b9150509295509295509295565b600080600080600060a086880312156120c4578081fd5b85356120cf816127f8565b945060208601356120df816127f8565b93506040860135925060608601359150608086013567ffffffffffffffff811115612108578182fd5b61211488828901611f17565b9150509295509295909350565b600080600080600080600060c0888a03121561213b578081fd5b8735612146816127f8565b96506020880135612156816127f8565b95506040880135945060608801359350608088013567ffffffffffffffff81111561217f578182fd5b61218b8a828b01611ece565b989b979a5095989497959660a090950135949350505050565b60008060008060008060008060006101008a8c0312156121c2578182fd5b89356121cd816127f8565b985060208a01356121dd816127f8565b975060408a0135965060608a0135955060808a013567ffffffffffffffff80821115612207578384fd5b6122138d838e01611ece565b909750955060a08c0135945060c08c0135935060e08c0135915080821115612239578283fd5b506122468c828d01611f17565b9150509295985092959850929598565b600080600080600080600060c0888a031215612270578081fd5b873561227b816127f8565b965060208801359550604088013567ffffffffffffffff81111561229d578182fd5b6122a98a828b01611ece565b909650945050606088013592506080880135915060a08801356122cb816127f8565b8091505092959891949750929550565b600080600080600060a086880312156122f2578283fd5b85356122fd816127f8565b94506020860135935060408601359250606086013561231b816127f8565b9150608086013561232b816127f8565b809150509295509295909350565b60008060008060008060008060e0898b031215612354578182fd5b883561235f816127f8565b97506020890135965060408901359550606089013567ffffffffffffffff811115612388578283fd5b6123948b828c01611ece565b9096509450506080890135925060a0890135915060c08901356123b6816127f8565b809150509295985092959890939650565b6000602082840312156123d8578081fd5b81518015158114611d4f578182fd5b6000602082840312156123f8578081fd5b5051919050565b600080600080600060a08688031215612416578283fd5b61241f86611f9e565b945060208601519350604086015192506060860151915061244260808701611f9e565b90509295509295909350565b60006020828403121561245f578081fd5b815160ff81168114611d4f578182fd5b600081518084526124878160208601602086016127a0565b601f01601f19169290920160200192915050565b600082516124ad8184602087016127a0565b9190910192915050565b6001600160a01b03868116825285166020820152604081018490526060810183905260a0608082018190526000906124f19083018461246f565b979650505050505050565b600060208252611d4f602083018461246f565b60208082526023908201527f4552524f523a2053414d4520544f4b454e20574954482053414d45204e4554576040820152624f524b60e81b606082015260800190565b6020808252602b908201527f496e697469616c697a61626c653a20636f6e7472616374206973206e6f74206960408201526a6e697469616c697a696e6760a81b606082015260800190565b868152602080820187905260a0604083018190528201859052600090869060c08401835b888110156125ef5783356125d4816127f8565b6001600160a01b0316825292820192908201906001016125c1565b506001600160a01b0396909616606085015250505060800152949350505050565b60008261262b57634e487b7160e01b81526012600452602481fd5b500490565b80825b6001808611612642575061266d565b818704821115612654576126546127cc565b8086161561266157918102915b9490941c938002612633565b94509492505050565b6000611d4f60001960ff85168460008261269257506001611d4f565b8161269f57506000611d4f565b81600181146126b557600281146126bf576126ec565b6001915050611d4f565b60ff8411156126d0576126d06127cc565b6001841b9150848211156126e6576126e66127cc565b50611d4f565b5060208310610133831016604e8410600b841016171561271f575081810a8381111561271a5761271a6127cc565b611d4f565b61272c8484846001612630565b80860482111561273e5761273e6127cc565b02949350505050565b6000816000190483118215151615612761576127616127cc565b500290565b600082821015612778576127786127cc565b500390565b600060ff821660ff841680821015612797576127976127cc565b90039392505050565b60005b838110156127bb5781810151838201526020016127a3565b83811115611a195750506000910152565b634e487b7160e01b600052601160045260246000fd5b634e487b7160e01b600052604160045260246000fd5b6001600160a01b0381168114610cbe57600080fdfea2646970667358221220d8e370a978966aaf846cb50f864a70785824f7834439dfc987db61be8b73375564736f6c63430008020033",
  "linkReferences": {},
  "deployedLinkReferences": {}
}