{
  "_format": "hh-sol-artifact-1",
  "contractName": "FiberRouter",
  "sourceName": "contracts/upgradeable-Bridge/FiberRouter.sol",
  "abi": [
    {
      "anonymous": false,
      "inputs": [
        {
          "indexed": false,
          "internalType": "uint8",
          "name": "version",
          "type": "uint8"
        }
      ],
      "name": "Initialized",
      "type": "event"
    },
    {
      "anonymous": false,
      "inputs": [
        {
          "indexed": true,
          "internalType": "address",
          "name": "previousOwner",
          "type": "address"
        },
        {
          "indexed": true,
          "internalType": "address",
          "name": "newOwner",
          "type": "address"
        }
      ],
      "name": "OwnershipTransferred",
      "type": "event"
    },
    {
      "inputs": [
        {
          "internalType": "address",
          "name": "_token",
          "type": "address"
        }
      ],
      "name": "getFoundryTokenPrice",
      "outputs": [
        {
          "internalType": "uint256",
          "name": "",
          "type": "uint256"
        }
      ],
      "stateMutability": "view",
      "type": "function"
    },
    {
      "inputs": [],
      "name": "initialize",
      "outputs": [],
      "stateMutability": "nonpayable",
      "type": "function"
    },
    {
      "inputs": [],
      "name": "owner",
      "outputs": [
        {
          "internalType": "address",
          "name": "",
          "type": "address"
        }
      ],
      "stateMutability": "view",
      "type": "function"
    },
    {
      "inputs": [],
      "name": "pool",
      "outputs": [
        {
          "internalType": "address",
          "name": "",
          "type": "address"
        }
      ],
      "stateMutability": "view",
      "type": "function"
    },
    {
      "inputs": [
        {
          "internalType": "address",
          "name": "",
          "type": "address"
        }
      ],
      "name": "priceFeed",
      "outputs": [
        {
          "internalType": "contract AggregatorV3Interface",
          "name": "",
          "type": "address"
        }
      ],
      "stateMutability": "view",
      "type": "function"
    },
    {
      "inputs": [],
      "name": "renounceOwnership",
      "outputs": [],
      "stateMutability": "nonpayable",
      "type": "function"
    },
    {
      "inputs": [
        {
          "internalType": "address",
          "name": "_token",
          "type": "address"
        },
        {
          "internalType": "address",
          "name": "_oracleAddress",
          "type": "address"
        }
      ],
      "name": "setOracle",
      "outputs": [],
      "stateMutability": "nonpayable",
      "type": "function"
    },
    {
      "inputs": [
        {
          "internalType": "address",
          "name": "_pool",
          "type": "address"
        }
      ],
      "name": "setPool",
      "outputs": [],
      "stateMutability": "nonpayable",
      "type": "function"
    },
    {
      "inputs": [
        {
          "internalType": "address",
          "name": "token",
          "type": "address"
        },
        {
          "internalType": "uint256",
          "name": "amount",
          "type": "uint256"
        },
        {
          "internalType": "uint256",
          "name": "targetNetwork",
          "type": "uint256"
        },
        {
          "internalType": "address",
          "name": "targetToken",
          "type": "address"
        },
        {
          "internalType": "address",
          "name": "targetAddress",
          "type": "address"
        }
      ],
      "name": "swap",
      "outputs": [],
      "stateMutability": "nonpayable",
      "type": "function"
    },
    {
      "inputs": [
        {
          "internalType": "address",
          "name": "swapRouter",
          "type": "address"
        },
        {
          "internalType": "uint256",
          "name": "amountIn",
          "type": "uint256"
        },
        {
          "internalType": "uint256",
          "name": "amountCrossMin",
          "type": "uint256"
        },
        {
          "internalType": "address[]",
          "name": "path",
          "type": "address[]"
        },
        {
          "internalType": "uint256",
          "name": "deadline",
          "type": "uint256"
        },
        {
          "internalType": "uint256",
          "name": "crossTargetNetwork",
          "type": "uint256"
        },
        {
          "internalType": "address",
          "name": "crossTargetToken",
          "type": "address"
        }
      ],
      "name": "swapAndCross",
      "outputs": [],
      "stateMutability": "nonpayable",
      "type": "function"
    },
    {
      "inputs": [
        {
          "internalType": "address",
          "name": "swapRouter",
          "type": "address"
        },
        {
          "internalType": "uint256",
          "name": "amountCrossMin",
          "type": "uint256"
        },
        {
          "internalType": "address[]",
          "name": "path",
          "type": "address[]"
        },
        {
          "internalType": "uint256",
          "name": "deadline",
          "type": "uint256"
        },
        {
          "internalType": "uint256",
          "name": "crossTargetNetwork",
          "type": "uint256"
        },
        {
          "internalType": "address",
          "name": "crossTargetToken",
          "type": "address"
        }
      ],
      "name": "swapAndCrossETH",
      "outputs": [],
      "stateMutability": "payable",
      "type": "function"
    },
    {
      "inputs": [
        {
          "internalType": "address",
          "name": "token",
          "type": "address"
        },
        {
          "internalType": "uint256",
          "name": "amount",
          "type": "uint256"
        },
        {
          "internalType": "uint256",
          "name": "targetNetwork",
          "type": "uint256"
        },
        {
          "internalType": "address",
          "name": "targetToken",
          "type": "address"
        },
        {
          "internalType": "address",
          "name": "targetAddress",
          "type": "address"
        },
        {
          "internalType": "bytes32",
          "name": "salt",
          "type": "bytes32"
        },
        {
          "internalType": "bytes",
          "name": "multiignature",
          "type": "bytes"
        }
      ],
      "name": "swapSigned",
      "outputs": [],
      "stateMutability": "nonpayable",
      "type": "function"
    },
    {
      "inputs": [
        {
          "internalType": "address",
          "name": "newOwner",
          "type": "address"
        }
      ],
      "name": "transferOwnership",
      "outputs": [],
      "stateMutability": "nonpayable",
      "type": "function"
    },
    {
      "inputs": [
        {
          "internalType": "address",
          "name": "token",
          "type": "address"
        },
        {
          "internalType": "address",
          "name": "payee",
          "type": "address"
        },
        {
          "internalType": "uint256",
          "name": "amount",
          "type": "uint256"
        }
      ],
      "name": "withdraw",
      "outputs": [],
      "stateMutability": "nonpayable",
      "type": "function"
    },
    {
      "inputs": [
        {
          "internalType": "address",
          "name": "to",
          "type": "address"
        },
        {
          "internalType": "address",
          "name": "swapRouter",
          "type": "address"
        },
        {
          "internalType": "uint256",
          "name": "amountIn",
          "type": "uint256"
        },
        {
          "internalType": "uint256",
          "name": "amountOutMin",
          "type": "uint256"
        },
        {
          "internalType": "address[]",
          "name": "path",
          "type": "address[]"
        },
        {
          "internalType": "uint256",
          "name": "deadline",
          "type": "uint256"
        }
      ],
      "name": "withdrawAndSwap",
      "outputs": [],
      "stateMutability": "nonpayable",
      "type": "function"
    },
    {
      "inputs": [
        {
          "internalType": "address",
          "name": "bridgeFoundry",
          "type": "address"
        },
        {
          "internalType": "address",
          "name": "targetFoundry",
          "type": "address"
        },
        {
          "internalType": "address",
          "name": "payee",
          "type": "address"
        },
        {
          "internalType": "uint256",
          "name": "amount",
          "type": "uint256"
        }
      ],
      "name": "withdrawAndSwapToFoundry",
      "outputs": [],
      "stateMutability": "nonpayable",
      "type": "function"
    },
    {
      "inputs": [
        {
          "internalType": "address",
          "name": "token",
          "type": "address"
        },
        {
          "internalType": "address",
          "name": "payee",
          "type": "address"
        },
        {
          "internalType": "uint256",
          "name": "amount",
          "type": "uint256"
        },
        {
          "internalType": "bytes32",
          "name": "salt",
          "type": "bytes32"
        },
        {
          "internalType": "bytes",
          "name": "multiSignature",
          "type": "bytes"
        }
      ],
      "name": "withdrawSigned",
      "outputs": [],
      "stateMutability": "nonpayable",
      "type": "function"
    },
    {
      "inputs": [
        {
          "internalType": "address",
          "name": "to",
          "type": "address"
        },
        {
          "internalType": "address",
          "name": "swapRouter",
          "type": "address"
        },
        {
          "internalType": "uint256",
          "name": "amountIn",
          "type": "uint256"
        },
        {
          "internalType": "uint256",
          "name": "amountOutMin",
          "type": "uint256"
        },
        {
          "internalType": "address[]",
          "name": "path",
          "type": "address[]"
        },
        {
          "internalType": "uint256",
          "name": "deadline",
          "type": "uint256"
        },
        {
          "internalType": "bytes32",
          "name": "salt",
          "type": "bytes32"
        },
        {
          "internalType": "bytes",
          "name": "multiSignature",
          "type": "bytes"
        }
      ],
      "name": "withdrawSignedAndSwap",
      "outputs": [],
      "stateMutability": "nonpayable",
      "type": "function"
    },
    {
      "inputs": [
        {
          "internalType": "address",
          "name": "to",
          "type": "address"
        },
        {
          "internalType": "address",
          "name": "swapRouter",
          "type": "address"
        },
        {
          "internalType": "uint256",
          "name": "amountIn",
          "type": "uint256"
        },
        {
          "internalType": "uint256",
          "name": "amountOutMin",
          "type": "uint256"
        },
        {
          "internalType": "address[]",
          "name": "path",
          "type": "address[]"
        },
        {
          "internalType": "uint256",
          "name": "deadline",
          "type": "uint256"
        },
        {
          "internalType": "bytes32",
          "name": "salt",
          "type": "bytes32"
        },
        {
          "internalType": "bytes",
          "name": "multiSignature",
          "type": "bytes"
        }
      ],
      "name": "withdrawSignedAndSwapETH",
      "outputs": [],
      "stateMutability": "nonpayable",
      "type": "function"
    },
    {
      "inputs": [
        {
          "internalType": "address",
          "name": "bridgeFoundry",
          "type": "address"
        },
        {
          "internalType": "address",
          "name": "targetFoundry",
          "type": "address"
        },
        {
          "internalType": "address",
          "name": "payee",
          "type": "address"
        },
        {
          "internalType": "uint256",
          "name": "amount",
          "type": "uint256"
        },
        {
          "internalType": "bytes32",
          "name": "salt",
          "type": "bytes32"
        },
        {
          "internalType": "bytes",
          "name": "multiSignature",
          "type": "bytes"
        }
      ],
      "name": "withdrawSignedAndSwapToFoundry",
      "outputs": [],
      "stateMutability": "nonpayable",
      "type": "function"
    },
    {
      "stateMutability": "payable",
      "type": "receive"
    }
  ],
  "bytecode": "0x608060405234801561001057600080fd5b50612824806100206000396000f3fe6080604052600436106101235760003560e01c80638cd9f668116100a0578063a9bc9bc311610064578063a9bc9bc31461032d578063bdb519b41461034d578063d9caed121461036d578063e450219d1461038d578063f2fde38b146103ad5761012a565b80638cd9f6681461028f5780638d6e9291146102af5780638da5cb5b146102cf5780639f240e7d146102ed578063a81cb92e1461030d5761012a565b8063591a40c4116100e7578063591a40c4146102125780635c38eb3a14610225578063715018a6146102455780638129fc1c1461025a57806386214d801461026f5761012a565b80630efe792d1461012f57806316f0115b146101625780631fd48b9a1461019a5780633364a4e5146101d05780634437152a146101f25761012a565b3661012a57005b600080fd5b34801561013b57600080fd5b5061014f61014a366004611e46565b6103cd565b6040519081526020015b60405180910390f35b34801561016e57600080fd5b50609754610182906001600160a01b031681565b6040516001600160a01b039091168152602001610159565b3480156101a657600080fd5b506101826101b5366004611e46565b6098602052600090815260409020546001600160a01b031681565b3480156101dc57600080fd5b506101f06101eb3660046120c2565b61051a565b005b3480156101fe57600080fd5b506101f061020d366004611e46565b6107ff565b6101f0610220366004612174565b610829565b34801561023157600080fd5b506101f0610240366004611e7e565b610998565b34801561025157600080fd5b506101f06109ce565b34801561026657600080fd5b506101f06109e2565b34801561027b57600080fd5b506101f061028a36600461203f565b610afb565b34801561029b57600080fd5b506101f06102aa366004612257565b610dd5565b3480156102bb57600080fd5b506101f06102ca366004611fcb565b610f08565b3480156102db57600080fd5b506065546001600160a01b0316610182565b3480156102f957600080fd5b506101f06103083660046120c2565b610f9a565b34801561031957600080fd5b506101f06103283660046121f9565b61113d565b34801561033957600080fd5b506101f0610348366004611eb6565b611229565b34801561035957600080fd5b506101f0610368366004611f06565b61128f565b34801561037957600080fd5b506101f0610388366004611f8b565b611357565b34801561039957600080fd5b506101f06103a83660046122e7565b6113e3565b3480156103b957600080fd5b506101f06103c8366004611e46565b611503565b6001600160a01b03808216600090815260986020526040808220548151633fabe5a360e21b815291519293849391169163feaf968c9160048083019260a0929190829003018186803b15801561042257600080fd5b505afa158015610436573d6000803e3d6000fd5b505050506040513d601f19601f8201168201806040525081019061045a91906123ad565b5050506001600160a01b03808616600090815260986020908152604080832054815163313ce56760e01b81529151959750929550919092169263313ce56792600480840193919291829003018186803b1580156104b657600080fd5b505afa1580156104ca573d6000803e3d6000fd5b505050506040513d601f19601f820116820180604052508101906104ee91906123fc565b90506104fb81601261275e565b61050690600a612657565b6105109083612728565b925050505b919050565b600184116105645760405162461bcd60e51b815260206004820152601260248201527110948e881c185d1a081d1bdbc81cda1bdc9d60721b60448201526064015b60405180910390fd5b6097546001600160a01b0316638d6e9291868660008161059457634e487b7160e01b600052603260045260246000fd5b90506020020160208101906105a99190611e46565b308a86866040518663ffffffff1660e01b81526004016105cd959493929190612489565b602060405180830381600087803b1580156105e757600080fd5b505af11580156105fb573d6000803e3d6000fd5b505050506040513d601f19601f8201168201806040525081019061061f9190612395565b508484600081811061064157634e487b7160e01b600052603260045260246000fd5b90506020020160208101906106569190611e46565b6040516370a0823160e01b81523060048201526001600160a01b0391909116906370a082319060240160206040518083038186803b15801561069757600080fd5b505afa1580156106ab573d6000803e3d6000fd5b505050506040513d601f19601f820116820180604052508101906106cf9190612395565b9650848460008181106106f257634e487b7160e01b600052603260045260246000fd5b90506020020160208101906107079190611e46565b60405163095ea7b360e01b81526001600160a01b038a81166004830152602482018a9052919091169063095ea7b390604401602060405180830381600087803b15801561075357600080fd5b505af1158015610767573d6000803e3d6000fd5b505050506040513d601f19601f8201168201806040525081019061078b9190612375565b50876001600160a01b0316635c11d795888888888e896040518763ffffffff1660e01b81526004016107c29695949392919061257e565b600060405180830381600087803b1580156107dc57600080fd5b505af11580156107f0573d6000803e3d6000fd5b50505050505050505050505050565b610807611579565b609780546001600160a01b0319166001600160a01b0392909216919091179055565b60003490506000886001600160a01b031663ad5c46486040518163ffffffff1660e01b815260040160206040518083038186803b15801561086957600080fd5b505afa15801561087d573d6000803e3d6000fd5b505050506040513d601f19601f820116820180604052508101906108a19190611e62565b60405163095ea7b360e01b81526001600160a01b038b81166004830152602482018590529192509082169063095ea7b390604401602060405180830381600087803b1580156108ef57600080fd5b505af1158015610903573d6000803e3d6000fd5b505050506040513d601f19601f820116820180604052508101906109279190612375565b50806001600160a01b031663d0e30db0836040518263ffffffff1660e01b81526004016000604051808303818588803b15801561096357600080fd5b505af1158015610977573d6000803e3d6000fd5b505050505061098d338a848b8b8b8b8b8b6115d3565b505050505050505050565b6109a0611579565b6001600160a01b03918216600090815260986020526040902080546001600160a01b03191691909216179055565b6109d6611579565b6109e060006117a5565b565b600054610100900460ff1615808015610a025750600054600160ff909116105b80610a1c5750303b158015610a1c575060005460ff166001145b610a7f5760405162461bcd60e51b815260206004820152602e60248201527f496e697469616c697a61626c653a20636f6e747261637420697320616c72656160448201526d191e481a5b9a5d1a585b1a5e995960921b606482015260840161055b565b6000805460ff191660011790558015610aa2576000805461ff0019166101001790555b610aaa6117f7565b610ab2611826565b8015610af8576000805461ff0019169055604051600181527f7f26b83ff96e1f2b6a682f133852f6798a09c465da95921460cefb38474024989060200160405180910390a15b50565b60018211610b405760405162461bcd60e51b815260206004820152601260248201527110948e881c185d1a081d1bdbc81cda1bdc9d60721b604482015260640161055b565b6097546001600160a01b031663d9caed128484600081610b7057634e487b7160e01b600052603260045260246000fd5b9050602002016020810190610b859190611e46565b30886040518463ffffffff1660e01b8152600401610ba593929190612465565b602060405180830381600087803b158015610bbf57600080fd5b505af1158015610bd3573d6000803e3d6000fd5b505050506040513d601f19601f82011682018060405250810190610bf79190612395565b5082826000818110610c1957634e487b7160e01b600052603260045260246000fd5b9050602002016020810190610c2e9190611e46565b6040516370a0823160e01b81523060048201526001600160a01b0391909116906370a082319060240160206040518083038186803b158015610c6f57600080fd5b505afa158015610c83573d6000803e3d6000fd5b505050506040513d601f19601f82011682018060405250810190610ca79190612395565b945082826000818110610cca57634e487b7160e01b600052603260045260246000fd5b9050602002016020810190610cdf9190611e46565b60405163095ea7b360e01b81526001600160a01b03888116600483015260248201889052919091169063095ea7b390604401602060405180830381600087803b158015610d2b57600080fd5b505af1158015610d3f573d6000803e3d6000fd5b505050506040513d601f19601f82011682018060405250810190610d639190612375565b50604051635c11d79560e01b81526001600160a01b03871690635c11d79590610d9a9088908890889088908e90899060040161257e565b600060405180830381600087803b158015610db457600080fd5b505af1158015610dc8573d6000803e3d6000fd5b5050505050505050505050565b610dea6001600160a01b038816333089611855565b60975460405163095ea7b360e01b81526001600160a01b039182166004820152602481018890529088169063095ea7b390604401602060405180830381600087803b158015610e3857600080fd5b505af1158015610e4c573d6000803e3d6000fd5b505050506040513d601f19601f82011682018060405250810190610e709190612375565b50609754604051622be25d60ea1b81526001600160a01b039091169063af89740090610eac908a908a908a908a908a908a908a906004016124ce565b602060405180830381600087803b158015610ec657600080fd5b505af1158015610eda573d6000803e3d6000fd5b505050506040513d601f19601f82011682018060405250810190610efe9190612395565b5050505050505050565b609754604051638d6e929160e01b81526001600160a01b0390911690638d6e929190610f409088908890889088908890600401612489565b602060405180830381600087803b158015610f5a57600080fd5b505af1158015610f6e573d6000803e3d6000fd5b505050506040513d601f19601f82011682018060405250810190610f929190612395565b505050505050565b6097546001600160a01b0316638d6e92918686600081610fca57634e487b7160e01b600052603260045260246000fd5b9050602002016020810190610fdf9190611e46565b308a86866040518663ffffffff1660e01b8152600401611003959493929190612489565b602060405180830381600087803b15801561101d57600080fd5b505af1158015611031573d6000803e3d6000fd5b505050506040513d601f19601f820116820180604052508101906110559190612395565b508484600081811061107757634e487b7160e01b600052603260045260246000fd5b905060200201602081019061108c9190611e46565b6040516370a0823160e01b81523060048201526001600160a01b0391909116906370a082319060240160206040518083038186803b1580156110cd57600080fd5b505afa1580156110e1573d6000803e3d6000fd5b505050506040513d601f19601f820116820180604052508101906111059190612395565b9650876001600160a01b031663791ac947888888888e896040518763ffffffff1660e01b81526004016107c29695949392919061257e565b6111526001600160a01b038616333087611855565b60975460405163095ea7b360e01b81526001600160a01b039182166004820152602481018690529086169063095ea7b390604401602060405180830381600087803b1580156111a057600080fd5b505af11580156111b4573d6000803e3d6000fd5b505050506040513d601f19601f820116820180604052508101906111d89190612375565b506097546040516352f9567d60e01b81526001600160a01b038781166004830152602482018790526044820186905284811660648301528381166084830152909116906352f9567d9060a401610f40565b6000611234856103cd565b90506000611241856103cd565b90506000816112508486612728565b61125a91906125f1565b609754604051636ce5768960e11b81529192506001600160a01b03169063d9caed1290610eac90899089908690600401612465565b600061129a876103cd565b905060006112a7876103cd565b90506000816112b68488612728565b6112c091906125f1565b609754604051638d6e929160e01b81529192506001600160a01b031690638d6e9291906112f9908b908b9086908b908b90600401612489565b602060405180830381600087803b15801561131357600080fd5b505af1158015611327573d6000803e3d6000fd5b505050506040513d601f19601f8201168201806040525081019061134b9190612395565b50505050505050505050565b609754604051636ce5768960e11b81526001600160a01b039091169063d9caed129061138b90869086908690600401612465565b602060405180830381600087803b1580156113a557600080fd5b505af11580156113b9573d6000803e3d6000fd5b505050506040513d601f19601f820116820180604052508101906113dd9190612395565b50505050565b6113eb6118ad565b61142c8585600081811061140f57634e487b7160e01b600052603260045260246000fd5b90506020020160208101906114249190611e46565b33308a611907565b96508484600081811061144f57634e487b7160e01b600052603260045260246000fd5b90506020020160208101906114649190611e46565b60405163095ea7b360e01b81526001600160a01b038a81166004830152602482018a9052919091169063095ea7b390604401602060405180830381600087803b1580156114b057600080fd5b505af11580156114c4573d6000803e3d6000fd5b505050506040513d601f19601f820116820180604052508101906114e89190612375565b506114fa3389898989898989896115d3565b610efe60018055565b61150b611579565b6001600160a01b0381166115705760405162461bcd60e51b815260206004820152602660248201527f4f776e61626c653a206e6577206f776e657220697320746865207a65726f206160448201526564647265737360d01b606482015260840161055b565b610af8816117a5565b6065546001600160a01b031633146109e05760405162461bcd60e51b815260206004820181905260248201527f4f776e61626c653a2063616c6c6572206973206e6f7420746865206f776e6572604482015260640161055b565b604051635c11d79560e01b81526001600160a01b03891690635c11d79590611609908a908a908a908a9030908b9060040161257e565b600060405180830381600087803b15801561162357600080fd5b505af1158015611637573d6000803e3d6000fd5b506000925087915086905061164d600182612747565b81811061166a57634e487b7160e01b600052603260045260246000fd5b905060200201602081019061167f9190611e46565b60975460405163095ea7b360e01b81526001600160a01b039182166004820152602481018a905291925082169063095ea7b390604401602060405180830381600087803b1580156116cf57600080fd5b505af11580156116e3573d6000803e3d6000fd5b505050506040513d601f19601f820116820180604052508101906117079190612375565b506097546040516352f9567d60e01b81526001600160a01b038381166004830152602482018a90526044820186905284811660648301528c81166084830152909116906352f9567d9060a401602060405180830381600087803b15801561176d57600080fd5b505af1158015611781573d6000803e3d6000fd5b505050506040513d601f19601f82011682018060405250810190610dc89190612395565b606580546001600160a01b038381166001600160a01b0319831681179093556040519116919082907f8be0079c531659141344cd1fd0a4f28419497f9722a3daafe3b4186f6b6457e090600090a35050565b600054610100900460ff1661181e5760405162461bcd60e51b815260040161055b90612533565b6109e0611a9d565b600054610100900460ff1661184d5760405162461bcd60e51b815260040161055b90612533565b6109e0611acd565b6113dd846323b872dd60e01b85858560405160240161187693929190612465565b60408051601f198184030181529190526020810180516001600160e01b03166001600160e01b031990931692909217909152611af4565b600260015414156119005760405162461bcd60e51b815260206004820152601f60248201527f5265656e7472616e637947756172643a207265656e7472616e742063616c6c00604482015260640161055b565b6002600155565b6040516370a0823160e01b81526001600160a01b03838116600483015260009182918716906370a082319060240160206040518083038186803b15801561194d57600080fd5b505afa158015611961573d6000803e3d6000fd5b505050506040513d601f19601f820116820180604052508101906119859190612395565b905061199c6001600160a01b038716868686611855565b6040516370a0823160e01b81526001600160a01b038581166004830152600091908816906370a082319060240160206040518083038186803b1580156119e157600080fd5b505afa1580156119f5573d6000803e3d6000fd5b505050506040513d601f19601f82011682018060405250810190611a199190612395565b9050611a258282612747565b925083831115611a8d5760405162461bcd60e51b815260206004820152602d60248201527f53413a2061637475616c20616d6f756e74206c6172676572207468616e20747260448201526c185b9cd9995c88185b5bdd5b9d609a1b606482015260840161055b565b5050949350505050565b60018055565b600054610100900460ff16611ac45760405162461bcd60e51b815260040161055b90612533565b6109e0336117a5565b600054610100900460ff16611a975760405162461bcd60e51b815260040161055b90612533565b6000611b49826040518060400160405280602081526020017f5361666545524332303a206c6f772d6c6576656c2063616c6c206661696c6564815250856001600160a01b0316611bcb9092919063ffffffff16565b805190915015611bc65780806020019051810190611b679190612375565b611bc65760405162461bcd60e51b815260206004820152602a60248201527f5361666545524332303a204552433230206f7065726174696f6e20646964206e6044820152691bdd081cdd58d8d9595960b21b606482015260840161055b565b505050565b6060611bda8484600085611be4565b90505b9392505050565b606082471015611c455760405162461bcd60e51b815260206004820152602660248201527f416464726573733a20696e73756666696369656e742062616c616e636520666f6044820152651c8818d85b1b60d21b606482015260840161055b565b600080866001600160a01b03168587604051611c619190612449565b60006040518083038185875af1925050503d8060008114611c9e576040519150601f19603f3d011682016040523d82523d6000602084013e611ca3565b606091505b5091509150611cb487838387611cc1565b925050505b949350505050565b60608315611d2d578251611d26576001600160a01b0385163b611d265760405162461bcd60e51b815260206004820152601d60248201527f416464726573733a2063616c6c20746f206e6f6e2d636f6e7472616374000000604482015260640161055b565b5081611cb9565b611cb98383815115611d425781518083602001fd5b8060405162461bcd60e51b815260040161055b9190612520565b60008083601f840112611d6d578081fd5b50813567ffffffffffffffff811115611d84578182fd5b6020830191508360208083028501011115611d9e57600080fd5b9250929050565b600082601f830112611db5578081fd5b813567ffffffffffffffff80821115611dd057611dd06127c3565b604051601f8301601f19908116603f01168101908282118183101715611df857611df86127c3565b81604052838152866020858801011115611e10578485fd5b8360208701602083013792830160200193909352509392505050565b805169ffffffffffffffffffff8116811461051557600080fd5b600060208284031215611e57578081fd5b8135611bdd816127d9565b600060208284031215611e73578081fd5b8151611bdd816127d9565b60008060408385031215611e90578081fd5b8235611e9b816127d9565b91506020830135611eab816127d9565b809150509250929050565b60008060008060808587031215611ecb578182fd5b8435611ed6816127d9565b93506020850135611ee6816127d9565b92506040850135611ef6816127d9565b9396929550929360600135925050565b60008060008060008060c08789031215611f1e578182fd5b8635611f29816127d9565b95506020870135611f39816127d9565b94506040870135611f49816127d9565b9350606087013592506080870135915060a087013567ffffffffffffffff811115611f72578182fd5b611f7e89828a01611da5565b9150509295509295509295565b600080600060608486031215611f9f578283fd5b8335611faa816127d9565b92506020840135611fba816127d9565b929592945050506040919091013590565b600080600080600060a08688031215611fe2578081fd5b8535611fed816127d9565b94506020860135611ffd816127d9565b93506040860135925060608601359150608086013567ffffffffffffffff811115612026578182fd5b61203288828901611da5565b9150509295509295909350565b600080600080600080600060c0888a031215612059578081fd5b8735612064816127d9565b96506020880135612074816127d9565b95506040880135945060608801359350608088013567ffffffffffffffff81111561209d578182fd5b6120a98a828b01611d5c565b989b979a5095989497959660a090950135949350505050565b60008060008060008060008060006101008a8c0312156120e0578283fd5b89356120eb816127d9565b985060208a01356120fb816127d9565b975060408a0135965060608a0135955060808a013567ffffffffffffffff80821115612125578485fd5b6121318d838e01611d5c565b909750955060a08c0135945060c08c0135935060e08c0135915080821115612157578283fd5b506121648c828d01611da5565b9150509295985092959850929598565b600080600080600080600060c0888a03121561218e578081fd5b8735612199816127d9565b965060208801359550604088013567ffffffffffffffff8111156121bb578182fd5b6121c78a828b01611d5c565b909650945050606088013592506080880135915060a08801356121e9816127d9565b8091505092959891949750929550565b600080600080600060a08688031215612210578283fd5b853561221b816127d9565b945060208601359350604086013592506060860135612239816127d9565b91506080860135612249816127d9565b809150509295509295909350565b600080600080600080600060e0888a031215612271578081fd5b873561227c816127d9565b96506020880135955060408801359450606088013561229a816127d9565b935060808801356122aa816127d9565b925060a0880135915060c088013567ffffffffffffffff8111156122cc578182fd5b6122d88a828b01611da5565b91505092959891949750929550565b60008060008060008060008060e0898b031215612302578182fd5b883561230d816127d9565b97506020890135965060408901359550606089013567ffffffffffffffff811115612336578283fd5b6123428b828c01611d5c565b9096509450506080890135925060a0890135915060c0890135612364816127d9565b809150509295985092959890939650565b600060208284031215612386578081fd5b81518015158114611bdd578182fd5b6000602082840312156123a6578081fd5b5051919050565b600080600080600060a086880312156123c4578283fd5b6123cd86611e2c565b94506020860151935060408601519250606086015191506123f060808701611e2c565b90509295509295909350565b60006020828403121561240d578081fd5b815160ff81168114611bdd578182fd5b60008151808452612435816020860160208601612781565b601f01601f19169290920160200192915050565b6000825161245b818460208701612781565b9190910192915050565b6001600160a01b039384168152919092166020820152604081019190915260600190565b6001600160a01b03868116825285166020820152604081018490526060810183905260a0608082018190526000906124c39083018461241d565b979650505050505050565b600060018060a01b03808a16835288602084015287604084015280871660608401528086166080840152508360a083015260e060c083015261251360e083018461241d565b9998505050505050505050565b600060208252611bdd602083018461241d565b6020808252602b908201527f496e697469616c697a61626c653a20636f6e7472616374206973206e6f74206960408201526a6e697469616c697a696e6760a81b606082015260800190565b868152602080820187905260a0604083018190528201859052600090869060c08401835b888110156125d05783356125b5816127d9565b6001600160a01b0316825292820192908201906001016125a2565b506001600160a01b0396909616606085015250505060800152949350505050565b60008261260c57634e487b7160e01b81526012600452602481fd5b500490565b80825b6001808611612623575061264e565b818704821115612635576126356127ad565b8086161561264257918102915b9490941c938002612614565b94509492505050565b6000611bdd60001960ff85168460008261267357506001611bdd565b8161268057506000611bdd565b816001811461269657600281146126a0576126cd565b6001915050611bdd565b60ff8411156126b1576126b16127ad565b6001841b9150848211156126c7576126c76127ad565b50611bdd565b5060208310610133831016604e8410600b8410161715612700575081810a838111156126fb576126fb6127ad565b611bdd565b61270d8484846001612611565b80860482111561271f5761271f6127ad565b02949350505050565b6000816000190483118215151615612742576127426127ad565b500290565b600082821015612759576127596127ad565b500390565b600060ff821660ff841680821015612778576127786127ad565b90039392505050565b60005b8381101561279c578181015183820152602001612784565b838111156113dd5750506000910152565b634e487b7160e01b600052601160045260246000fd5b634e487b7160e01b600052604160045260246000fd5b6001600160a01b0381168114610af857600080fdfea2646970667358221220de9895529e87b58d8aafc7b6869a9425d5baa48210b3bde2bd6f7be80b4b196664736f6c63430008020033",
  "linkReferences": {},
  "deployedLinkReferences": {}
}