{
  "_format": "hh-sol-artifact-1",
  "contractName": "FundManager",
  "sourceName": "contracts/upgradeable-Bridge/FundManager.sol",
  "abi": [
    {
      "anonymous": false,
      "inputs": [
        {
          "indexed": false,
          "internalType": "address",
          "name": "admin",
          "type": "address"
        }
      ],
      "name": "AdminSet",
      "type": "event"
    },
    {
      "anonymous": false,
      "inputs": [
        {
          "indexed": false,
          "internalType": "address",
          "name": "actor",
          "type": "address"
        },
        {
          "indexed": false,
          "internalType": "address",
          "name": "token",
          "type": "address"
        },
        {
          "indexed": false,
          "internalType": "uint256",
          "name": "amount",
          "type": "uint256"
        }
      ],
      "name": "BridgeLiquidityAdded",
      "type": "event"
    },
    {
      "anonymous": false,
      "inputs": [
        {
          "indexed": false,
          "internalType": "address",
          "name": "actor",
          "type": "address"
        },
        {
          "indexed": false,
          "internalType": "address",
          "name": "token",
          "type": "address"
        },
        {
          "indexed": false,
          "internalType": "uint256",
          "name": "amount",
          "type": "uint256"
        }
      ],
      "name": "BridgeLiquidityRemoved",
      "type": "event"
    },
    {
      "anonymous": false,
      "inputs": [
        {
          "indexed": false,
          "internalType": "address",
          "name": "from",
          "type": "address"
        },
        {
          "indexed": true,
          "internalType": "address",
          "name": "token",
          "type": "address"
        },
        {
          "indexed": false,
          "internalType": "uint256",
          "name": "targetNetwork",
          "type": "uint256"
        },
        {
          "indexed": false,
          "internalType": "address",
          "name": "targetToken",
          "type": "address"
        },
        {
          "indexed": false,
          "internalType": "address",
          "name": "targetAddrdess",
          "type": "address"
        },
        {
          "indexed": false,
          "internalType": "uint256",
          "name": "amount",
          "type": "uint256"
        }
      ],
      "name": "BridgeSwap",
      "type": "event"
    },
    {
      "anonymous": false,
      "inputs": [
        {
          "indexed": false,
          "internalType": "uint8",
          "name": "version",
          "type": "uint8"
        }
      ],
      "name": "Initialized",
      "type": "event"
    },
    {
      "anonymous": false,
      "inputs": [
        {
          "indexed": true,
          "internalType": "address",
          "name": "previousOwner",
          "type": "address"
        },
        {
          "indexed": true,
          "internalType": "address",
          "name": "newOwner",
          "type": "address"
        }
      ],
      "name": "OwnershipTransferred",
      "type": "event"
    },
    {
      "anonymous": false,
      "inputs": [
        {
          "indexed": false,
          "internalType": "address",
          "name": "signer",
          "type": "address"
        },
        {
          "indexed": false,
          "internalType": "address",
          "name": "receiver",
          "type": "address"
        },
        {
          "indexed": false,
          "internalType": "address",
          "name": "token",
          "type": "address"
        },
        {
          "indexed": false,
          "internalType": "uint256",
          "name": "amount",
          "type": "uint256"
        }
      ],
      "name": "TransferBySignature",
      "type": "event"
    },
    {
      "inputs": [
        {
          "internalType": "address",
          "name": "token",
          "type": "address"
        }
      ],
      "name": "addFoundryAsset",
      "outputs": [],
      "stateMutability": "nonpayable",
      "type": "function"
    },
    {
      "inputs": [
        {
          "internalType": "address",
          "name": "token",
          "type": "address"
        },
        {
          "internalType": "uint256",
          "name": "amount",
          "type": "uint256"
        }
      ],
      "name": "addLiquidity",
      "outputs": [],
      "stateMutability": "nonpayable",
      "type": "function"
    },
    {
      "inputs": [
        {
          "internalType": "address",
          "name": "_signer",
          "type": "address"
        }
      ],
      "name": "addSigner",
      "outputs": [],
      "stateMutability": "nonpayable",
      "type": "function"
    },
    {
      "inputs": [],
      "name": "admin",
      "outputs": [
        {
          "internalType": "address",
          "name": "",
          "type": "address"
        }
      ],
      "stateMutability": "view",
      "type": "function"
    },
    {
      "inputs": [
        {
          "internalType": "address",
          "name": "token",
          "type": "address"
        },
        {
          "internalType": "uint256",
          "name": "chainId",
          "type": "uint256"
        },
        {
          "internalType": "address",
          "name": "targetToken",
          "type": "address"
        }
      ],
      "name": "allowTarget",
      "outputs": [],
      "stateMutability": "nonpayable",
      "type": "function"
    },
    {
      "inputs": [
        {
          "internalType": "address",
          "name": "",
          "type": "address"
        },
        {
          "internalType": "uint256",
          "name": "",
          "type": "uint256"
        }
      ],
      "name": "allowedTargets",
      "outputs": [
        {
          "internalType": "address",
          "name": "",
          "type": "address"
        }
      ],
      "stateMutability": "view",
      "type": "function"
    },
    {
      "inputs": [
        {
          "internalType": "address",
          "name": "token",
          "type": "address"
        },
        {
          "internalType": "uint256",
          "name": "chainId",
          "type": "uint256"
        }
      ],
      "name": "disallowTarget",
      "outputs": [],
      "stateMutability": "nonpayable",
      "type": "function"
    },
    {
      "inputs": [],
      "name": "feeDistributor",
      "outputs": [
        {
          "internalType": "address",
          "name": "",
          "type": "address"
        }
      ],
      "stateMutability": "view",
      "type": "function"
    },
    {
      "inputs": [
        {
          "internalType": "address",
          "name": "",
          "type": "address"
        }
      ],
      "name": "fees",
      "outputs": [
        {
          "internalType": "uint256",
          "name": "",
          "type": "uint256"
        }
      ],
      "stateMutability": "view",
      "type": "function"
    },
    {
      "inputs": [],
      "name": "initialize",
      "outputs": [],
      "stateMutability": "nonpayable",
      "type": "function"
    },
    {
      "inputs": [
        {
          "internalType": "address",
          "name": "",
          "type": "address"
        }
      ],
      "name": "isFoundryAsset",
      "outputs": [
        {
          "internalType": "bool",
          "name": "",
          "type": "bool"
        }
      ],
      "stateMutability": "view",
      "type": "function"
    },
    {
      "inputs": [
        {
          "internalType": "address",
          "name": "token",
          "type": "address"
        },
        {
          "internalType": "address",
          "name": "liquidityAdder",
          "type": "address"
        }
      ],
      "name": "liquidity",
      "outputs": [
        {
          "internalType": "uint256",
          "name": "",
          "type": "uint256"
        }
      ],
      "stateMutability": "view",
      "type": "function"
    },
    {
      "inputs": [],
      "name": "owner",
      "outputs": [
        {
          "internalType": "address",
          "name": "",
          "type": "address"
        }
      ],
      "stateMutability": "view",
      "type": "function"
    },
    {
      "inputs": [
        {
          "internalType": "address",
          "name": "token",
          "type": "address"
        }
      ],
      "name": "removeFoundryAsset",
      "outputs": [],
      "stateMutability": "nonpayable",
      "type": "function"
    },
    {
      "inputs": [
        {
          "internalType": "address",
          "name": "token",
          "type": "address"
        },
        {
          "internalType": "uint256",
          "name": "amount",
          "type": "uint256"
        }
      ],
      "name": "removeLiquidityIfPossible",
      "outputs": [
        {
          "internalType": "uint256",
          "name": "",
          "type": "uint256"
        }
      ],
      "stateMutability": "nonpayable",
      "type": "function"
    },
    {
      "inputs": [
        {
          "internalType": "address",
          "name": "_signer",
          "type": "address"
        }
      ],
      "name": "removeSigner",
      "outputs": [],
      "stateMutability": "nonpayable",
      "type": "function"
    },
    {
      "inputs": [],
      "name": "renounceOwnership",
      "outputs": [],
      "stateMutability": "nonpayable",
      "type": "function"
    },
    {
      "inputs": [],
      "name": "router",
      "outputs": [
        {
          "internalType": "address",
          "name": "",
          "type": "address"
        }
      ],
      "stateMutability": "view",
      "type": "function"
    },
    {
      "inputs": [
        {
          "internalType": "address",
          "name": "_admin",
          "type": "address"
        }
      ],
      "name": "setAdmin",
      "outputs": [],
      "stateMutability": "nonpayable",
      "type": "function"
    },
    {
      "inputs": [
        {
          "internalType": "address",
          "name": "token",
          "type": "address"
        },
        {
          "internalType": "uint256",
          "name": "fee10000",
          "type": "uint256"
        }
      ],
      "name": "setFee",
      "outputs": [],
      "stateMutability": "nonpayable",
      "type": "function"
    },
    {
      "inputs": [
        {
          "internalType": "address",
          "name": "_feeDistributor",
          "type": "address"
        }
      ],
      "name": "setFeeDistributor",
      "outputs": [],
      "stateMutability": "nonpayable",
      "type": "function"
    },
    {
      "inputs": [
        {
          "internalType": "address",
          "name": "_router",
          "type": "address"
        }
      ],
      "name": "setRouter",
      "outputs": [],
      "stateMutability": "nonpayable",
      "type": "function"
    },
    {
      "inputs": [
        {
          "internalType": "address",
          "name": "",
          "type": "address"
        }
      ],
      "name": "signers",
      "outputs": [
        {
          "internalType": "bool",
          "name": "",
          "type": "bool"
        }
      ],
      "stateMutability": "view",
      "type": "function"
    },
    {
      "inputs": [
        {
          "internalType": "address",
          "name": "token",
          "type": "address"
        },
        {
          "internalType": "uint256",
          "name": "amount",
          "type": "uint256"
        },
        {
          "internalType": "uint256",
          "name": "targetNetwork",
          "type": "uint256"
        },
        {
          "internalType": "address",
          "name": "targetToken",
          "type": "address"
        }
      ],
      "name": "swap",
      "outputs": [
        {
          "internalType": "uint256",
          "name": "",
          "type": "uint256"
        }
      ],
      "stateMutability": "nonpayable",
      "type": "function"
    },
    {
      "inputs": [
        {
          "internalType": "address",
          "name": "token",
          "type": "address"
        },
        {
          "internalType": "uint256",
          "name": "amount",
          "type": "uint256"
        },
        {
          "internalType": "uint256",
          "name": "targetNetwork",
          "type": "uint256"
        },
        {
          "internalType": "address",
          "name": "targetToken",
          "type": "address"
        },
        {
          "internalType": "address",
          "name": "targetAddress",
          "type": "address"
        }
      ],
      "name": "swapToAddress",
      "outputs": [
        {
          "internalType": "uint256",
          "name": "",
          "type": "uint256"
        }
      ],
      "stateMutability": "nonpayable",
      "type": "function"
    },
    {
      "inputs": [
        {
          "internalType": "address",
          "name": "newOwner",
          "type": "address"
        }
      ],
      "name": "transferOwnership",
      "outputs": [],
      "stateMutability": "nonpayable",
      "type": "function"
    },
    {
      "inputs": [
        {
          "internalType": "bytes32",
          "name": "",
          "type": "bytes32"
        }
      ],
      "name": "usedHashes",
      "outputs": [
        {
          "internalType": "bool",
          "name": "",
          "type": "bool"
        }
      ],
      "stateMutability": "view",
      "type": "function"
    },
    {
      "inputs": [
        {
          "internalType": "address",
          "name": "token",
          "type": "address"
        },
        {
          "internalType": "address",
          "name": "payee",
          "type": "address"
        },
        {
          "internalType": "uint256",
          "name": "amount",
          "type": "uint256"
        }
      ],
      "name": "withdraw",
      "outputs": [
        {
          "internalType": "uint256",
          "name": "",
          "type": "uint256"
        }
      ],
      "stateMutability": "nonpayable",
      "type": "function"
    },
    {
      "inputs": [
        {
          "internalType": "address",
          "name": "token",
          "type": "address"
        },
        {
          "internalType": "address",
          "name": "payee",
          "type": "address"
        },
        {
          "internalType": "uint256",
          "name": "amount",
          "type": "uint256"
        },
        {
          "internalType": "bytes32",
          "name": "salt",
          "type": "bytes32"
        },
        {
          "internalType": "bytes",
          "name": "signature",
          "type": "bytes"
        }
      ],
      "name": "withdrawSigned",
      "outputs": [
        {
          "internalType": "uint256",
          "name": "",
          "type": "uint256"
        }
      ],
      "stateMutability": "nonpayable",
      "type": "function"
    },
    {
      "inputs": [
        {
          "internalType": "address",
          "name": "token",
          "type": "address"
        },
        {
          "internalType": "address",
          "name": "payee",
          "type": "address"
        },
        {
          "internalType": "uint256",
          "name": "amount",
          "type": "uint256"
        },
        {
          "internalType": "bytes32",
          "name": "salt",
          "type": "bytes32"
        },
        {
          "internalType": "bytes",
          "name": "signature",
          "type": "bytes"
        }
      ],
      "name": "withdrawSignedVerify",
      "outputs": [
        {
          "internalType": "bytes32",
          "name": "",
          "type": "bytes32"
        },
        {
          "internalType": "address",
          "name": "",
          "type": "address"
        }
      ],
      "stateMutability": "view",
      "type": "function"
    }
  ],
  "bytecode": "0x608060405234801561001057600080fd5b506128d4806100206000396000f3fe608060405234801561001057600080fd5b50600436106101da5760003560e01c8063aef18bf711610104578063e91b79bc116100a2578063f3e6ea8a11610071578063f3e6ea8a14610486578063f851a44014610499578063f887ea40146104ac578063faaebd21146104bf576101da565b8063e91b79bc1461043a578063eb12d61e1461044d578063f2117d4514610460578063f2fde38b14610473576101da565b8063ccfc2e8d116100de578063ccfc2e8d146103ee578063d9caed1214610401578063dcb0f2d314610414578063e55156b514610427576101da565b8063aef18bf71461037f578063b2217281146103a2578063c0d78655146103db576101da565b8063704b6c021161017c5780638d6e92911161014b5780638d6e9291146103085780638da5cb5b1461031b5780639d90d0a11461032c578063aa36acfb1461034f576101da565b8063704b6c02146102b2578063715018a6146102c5578063736c0d5b146102cd5780638129fc1c14610300576101da565b80632839c21a116101b85780632839c21a1461025857806344da82711461026b57806352f9567d1461027e578063566887001461029f576101da565b80630d43e8ad146101df5780630e316ab71461020f578063278c13fe14610224575b600080fd5b60a0546101f2906001600160a01b031681565b6040516001600160a01b0390911681526020015b60405180910390f35b61022261021d36600461235e565b6104df565b005b6101f2610232366004612565565b609f6020908152600092835260408084209091529082529020546001600160a01b031681565b61022261026636600461235e565b610550565b61022261027936600461258e565b6105d9565b61029161028c36600461260e565b6106fc565b604051908152602001610206565b6102226102ad366004612565565b6107a5565b6102226102c036600461235e565b610929565b610222610986565b6102f06102db36600461235e565b609c6020526000908152604090205460ff1681565b6040519015158152602001610206565b61022261099a565b610291610316366004612484565b610b0c565b6068546001600160a01b03166101f2565b6102f061033a36600461235e565b60a16020526000908152604090205460ff1681565b61036261035d3660046123e3565b610cff565b604080519283526001600160a01b03909116602083015201610206565b6102f061038d366004612684565b60356020526000908152604090205460ff1681565b6102916103b036600461237f565b6001600160a01b039182166000908152609d6020908152604080832093909416825291909152205490565b6102226103e936600461235e565b610d67565b6102226103fc36600461235e565b610ddd565b61029161040f3660046123a8565b610e07565b610222610422366004612565565b611027565b610222610435366004612565565b6110fa565b610291610448366004612565565b6111bd565b61022261045b36600461235e565b61145f565b61022261046e36600461235e565b6114ce565b61022261048136600461235e565b611554565b6102916104943660046125c9565b6115ca565b609a546101f2906001600160a01b031681565b609b546101f2906001600160a01b031681565b6102916104cd36600461235e565b609e6020526000908152604090205481565b6104e7611610565b6001600160a01b03811661052f5760405162461bcd60e51b815260206004820152600a6024820152692130b21039b4b3b732b960b11b60448201526064015b60405180910390fd5b6001600160a01b03166000908152609c60205260409020805460ff19169055565b609a546001600160a01b031633148061057357506068546001600160a01b031633145b61058f5760405162461bcd60e51b81526004016105269061274e565b6001600160a01b0381166105b55760405162461bcd60e51b81526004016105269061272b565b6001600160a01b0316600090815260a160205260409020805460ff19166001179055565b609a546001600160a01b03163314806105fc57506068546001600160a01b031633145b6106185760405162461bcd60e51b81526004016105269061274e565b6001600160a01b03831661063e5760405162461bcd60e51b81526004016105269061272b565b6001600160a01b0381166106865760405162461bcd60e51b815260206004820152600f60248201526e2130b2103a30b933b2ba2a37b5b2b760891b6044820152606401610526565b816106c15760405162461bcd60e51b815260206004820152600b60248201526a1098590818da185a5b925960aa1b6044820152606401610526565b6001600160a01b039283166000908152609f602090815260408083209483529390529190912080546001600160a01b03191691909216179055565b609b546000906001600160a01b031633146107295760405162461bcd60e51b81526004016105269061279c565b6001600160a01b03821661078d5760405162461bcd60e51b815260206004820152602560248201527f427269646765506f6f6c3a2074617267657441646472657373206973207265716044820152641d5a5c995960da1b6064820152608401610526565b61079b33878787878761166a565b9695505050505050565b806107ec5760405162461bcd60e51b8152602060048201526017602482015276416d6f756e74206d75737420626520706f73697469766560481b6044820152606401610526565b6001600160a01b0382166108125760405162461bcd60e51b81526004016105269061272b565b6001600160a01b038216600090815260a1602052604090205460ff16151560011461087f5760405162461bcd60e51b815260206004820181905260248201527f4f6e6c7920666f756e647279206173736574732063616e2062652061646465646044820152606401610526565b61088b82333084611876565b6001600160a01b0383166000908152609d602090815260408083203384529091529020549091506108bd908290612817565b6001600160a01b0383166000818152609d6020908152604080832033808552908352928190209490945583519182528101919091529081018290527fef3f81f7842dc4087d754ab30e98bb596b7345a806ff6db3c82f0c7d77b749609060600160405180910390a15050565b610931611610565b609a80546001600160a01b0319166001600160a01b0383169081179091556040519081527f8fe72c3e0020beb3234e76ae6676fa576fbfcae600af1c4fea44784cf0db329c906020015b60405180910390a150565b61098e611610565b6109986000611a06565b565b600054610100900460ff16158080156109ba5750600054600160ff909116105b806109db57506109c930611a58565b1580156109db575060005460ff166001145b610a3e5760405162461bcd60e51b815260206004820152602e60248201527f496e697469616c697a61626c653a20636f6e747261637420697320616c72656160448201526d191e481a5b9a5d1a585b1a5e995960921b6064820152608401610526565b6000805460ff191660011790558015610a61576000805461ff0019166101001790555b610abf6040518060400160405280601881526020017f46455252554d5f544f4b454e5f4252494447455f504f4f4c0000000000000000815250604051806040016040528060078152602001660c0c0c0b8c0c0d60ca1b815250611a6b565b610ac7611aa0565b8015610b09576000805461ff0019169055604051600181527f7f26b83ff96e1f2b6a682f133852f6798a09c465da95921460cefb38474024989060200161097b565b50565b609b546000906001600160a01b03163314610b395760405162461bcd60e51b81526004016105269061279c565b6001600160a01b038616610b5f5760405162461bcd60e51b815260040161052690612775565b6001600160a01b038516610ba55760405162461bcd60e51b815260206004820152600d60248201526c42503a2062616420706179656560981b6044820152606401610526565b82610be15760405162461bcd60e51b815260206004820152600c60248201526b10940e88189859081cd85b1d60a21b6044820152606401610526565b83610bfe5760405162461bcd60e51b815260040161052690612703565b6000610c0c87878787611acf565b90506000610c1a8285611b3f565b9050610c2581611bc7565b6001600160a01b0381166000908152609c602052604090205460ff16610c8d5760405162461bcd60e51b815260206004820152601a60248201527f427269646765506f6f6c3a20496e76616c6964207369676e65720000000000006044820152606401610526565b610ca16001600160a01b0389168888611c0f565b604080516001600160a01b03838116825289811660208301528a16818301526060810188905290517f20866f1bbd1aa6fdb9e631ab723d2060dcc7e4719ec6a43ecd7231557dcec8d99181900360800190a150939695505050505050565b6000806000610d1089898989611acf565b9050600080610d558388888080601f016020809104026020016040519081016040528093929190818152602001838380828437600092019190915250611c7792505050565b909c909b509950505050505050505050565b610d6f611610565b6001600160a01b038116610dbb5760405162461bcd60e51b815260206004820152601360248201527210940e881c9bdd5d195c881c995c5d5c9a5959606a1b6044820152606401610526565b609b80546001600160a01b0319166001600160a01b0392909216919091179055565b610de5611610565b60a080546001600160a01b0319166001600160a01b0392909216919091179055565b609b546000906001600160a01b03163314610e345760405162461bcd60e51b81526004016105269061279c565b6001600160a01b038416610e5a5760405162461bcd60e51b815260040161052690612775565b6001600160a01b038316610ea05760405162461bcd60e51b815260206004820152600d60248201526c42503a2062616420706179656560981b6044820152606401610526565b81610ebd5760405162461bcd60e51b815260040161052690612703565b6001600160a01b038416600090815260a1602052604090205460ff161515600114610f2a5760405162461bcd60e51b815260206004820152601a60248201527f746f6b656e206973206e6f7420666f756e6472792061737365740000000000006044820152606401610526565b6040516370a0823160e01b81523060048201526000906001600160a01b038616906370a082319060240160206040518083038186803b158015610f6c57600080fd5b505afa158015610f80573d6000803e3d6000fd5b505050506040513d601f19601f82011682018060405250810190610fa4919061269c565b90508281101561100a5760405162461bcd60e51b815260206004820152602b60248201527f696e73756666696369656e7420666f756e647279206173736574206c6971756960448201526a191a5d1e48185b5bdd5b9d60aa1b6064820152608401610526565b61101e6001600160a01b0386168585611c0f565b50909392505050565b609a546001600160a01b031633148061104a57506068546001600160a01b031633145b6110665760405162461bcd60e51b81526004016105269061274e565b6001600160a01b03821661108c5760405162461bcd60e51b81526004016105269061272b565b806110c75760405162461bcd60e51b815260206004820152600b60248201526a1098590818da185a5b925960aa1b6044820152606401610526565b6001600160a01b039091166000908152609f602090815260408083209383529290522080546001600160a01b0319169055565b609a546001600160a01b031633148061111d57506068546001600160a01b031633145b6111395760405162461bcd60e51b81526004016105269061274e565b6001600160a01b03821661115f5760405162461bcd60e51b81526004016105269061272b565b6103e88111156111a15760405162461bcd60e51b815260206004820152600d60248201526c46656520746f6f206c6172676560981b6044820152606401610526565b6001600160a01b039091166000908152609e6020526040902055565b6000816112065760405162461bcd60e51b8152602060048201526017602482015276416d6f756e74206d75737420626520706f73697469766560481b6044820152606401610526565b6001600160a01b03831661122c5760405162461bcd60e51b81526004016105269061272b565b6001600160a01b038316600090815260a1602052604090205460ff1615156001146112a45760405162461bcd60e51b815260206004820152602260248201527f4f6e6c7920666f756e647279206173736574732063616e2062652072656d6f76604482015261195960f21b6064820152608401610526565b6001600160a01b0383166000908152609d602090815260408083203384529091529020548281101561130f5760405162461bcd60e51b81526020600482015260146024820152734e6f7420656e6f756768206c697175696469747960601b6044820152606401610526565b6040516370a0823160e01b81523060048201526000906001600160a01b038616906370a082319060240160206040518083038186803b15801561135157600080fd5b505afa158015611365573d6000803e3d6000fd5b505050506040513d601f19601f82011682018060405250810190611389919061269c565b9050600084821161139a578161139c565b845b6001600160a01b0387166000908152609d602090815260408083203384529091529020549091506113ce90829061282f565b6001600160a01b0387166000908152609d6020908152604080832033845290915290205580156114565761140c6001600160a01b0387163383611c0f565b604080513381526001600160a01b03881660208201529081018690527f5204091f3aba3d16dbb7fcc090386ce24245ac12f57ae5bf9785e0ab9a79be739060600160405180910390a15b95945050505050565b611467611610565b6001600160a01b0381166114aa5760405162461bcd60e51b815260206004820152600a6024820152692130b21039b4b3b732b960b11b6044820152606401610526565b6001600160a01b03166000908152609c60205260409020805460ff19166001179055565b609a546001600160a01b03163314806114f157506068546001600160a01b031633145b61150d5760405162461bcd60e51b81526004016105269061274e565b6001600160a01b0381166115335760405162461bcd60e51b81526004016105269061272b565b6001600160a01b0316600090815260a160205260409020805460ff19169055565b61155c611610565b6001600160a01b0381166115c15760405162461bcd60e51b815260206004820152602660248201527f4f776e61626c653a206e6577206f776e657220697320746865207a65726f206160448201526564647265737360d01b6064820152608401610526565b610b0981611a06565b609b546000906001600160a01b031633146115f75760405162461bcd60e51b81526004016105269061279c565b61160533868686863361166a565b90505b949350505050565b6068546001600160a01b031633146109985760405162461bcd60e51b815260206004820181905260248201527f4f776e61626c653a2063616c6c6572206973206e6f7420746865206f776e65726044820152606401610526565b60006001600160a01b0387166116b15760405162461bcd60e51b815260206004820152600c60248201526b42503a206261642066726f6d60a01b6044820152606401610526565b6001600160a01b0386166116d75760405162461bcd60e51b815260040161052690612775565b836117245760405162461bcd60e51b815260206004820152601d60248201527f42503a207461726765744e6574776f726b2069732072657175726965640000006044820152606401610526565b6001600160a01b0383166117715760405162461bcd60e51b815260206004820152601460248201527321281d103130b2103a30b933b2ba103a37b5b2b760611b6044820152606401610526565b8461178e5760405162461bcd60e51b815260040161052690612703565b6001600160a01b038681166000908152609f602090815260408083208884529091529020548116908416146117fe5760405162461bcd60e51b815260206004820152601660248201527510940e881d185c99d95d081b9bdd08185b1b1bddd95960521b6044820152606401610526565b61180a86883088611876565b604080516001600160a01b038a8116825260208201889052868116828401528581166060830152608082018490529151929750908816917f0752ea9a96cdaf45ba08b0e73e0bbecc3d4a19e96da74d1ac80edea784d4c62c9181900360a00190a2509295945050505050565b6040516370a0823160e01b81526001600160a01b03838116600483015260009182918716906370a082319060240160206040518083038186803b1580156118bc57600080fd5b505afa1580156118d0573d6000803e3d6000fd5b505050506040513d601f19601f820116820180604052508101906118f4919061269c565b905061190b6001600160a01b038716868686611c98565b6040516370a0823160e01b81526001600160a01b038581166004830152600091908816906370a082319060240160206040518083038186803b15801561195057600080fd5b505afa158015611964573d6000803e3d6000fd5b505050506040513d601f19601f82011682018060405250810190611988919061269c565b9050611994828261282f565b9250838311156119fc5760405162461bcd60e51b815260206004820152602d60248201527f53413a2061637475616c20616d6f756e74206c6172676572207468616e20747260448201526c185b9cd9995c88185b5bdd5b9d609a1b6064820152608401610526565b5050949350505050565b606880546001600160a01b038381166001600160a01b0319831681179093556040519116919082907f8be0079c531659141344cd1fd0a4f28419497f9722a3daafe3b4186f6b6457e090600090a35050565b6001600160a01b0381163b15155b919050565b600054610100900460ff16611a925760405162461bcd60e51b8152600401610526906127cc565b611a9c8282611cd6565b5050565b600054610100900460ff16611ac75760405162461bcd60e51b8152600401610526906127cc565b610998611d17565b604080517fbf78e0e468a2675e8ce0f0c1c79b1d9da1bf9cdef7cb74b324d5f733249250c76020808301919091526001600160a01b0396871682840152949095166060860152608085019290925260a0808501919091528151808503909101815260c09093019052815191012090565b600080611b4c8484611c77565b60008281526035602052604090205490935090915060ff1615611ba85760405162461bcd60e51b815260206004820152601460248201527313595cdcd859d948185b1c9958591e481d5cd95960621b6044820152606401610526565b6000908152603560205260409020805460ff1916600117905592915050565b6040516001600160a01b0382166024820152610b099060440160408051601f198184030181529190526020810180516001600160e01b031663161765e160e11b179052611d47565b6040516001600160a01b038316602482015260448101829052611c7290849063a9059cbb60e01b906064015b60408051601f198184030181529190526020810180516001600160e01b03166001600160e01b031990931692909217909152611d68565b505050565b600080611c8384611e3a565b9150611c8f8284611e8e565b90509250929050565b6040516001600160a01b0380851660248301528316604482015260648101829052611cd09085906323b872dd60e01b90608401611c3b565b50505050565b600054610100900460ff16611cfd5760405162461bcd60e51b8152600401610526906127cc565b815160209283012081519190920120600191909155600255565b600054610100900460ff16611d3e5760405162461bcd60e51b8152600401610526906127cc565b61099833611a06565b80516a636f6e736f6c652e6c6f67602083016000808483855afa5050505050565b6000611dbd826040518060400160405280602081526020017f5361666545524332303a206c6f772d6c6576656c2063616c6c206661696c6564815250856001600160a01b0316611eb29092919063ffffffff16565b805190915015611c725780806020019051810190611ddb9190612664565b611c725760405162461bcd60e51b815260206004820152602a60248201527f5361666545524332303a204552433230206f7065726174696f6e20646964206e6044820152691bdd081cdd58d8d9595960b21b6064820152608401610526565b6000611e88611e47611ec1565b8360405161190160f01b6020820152602281018390526042810182905260009060620160405160208183030381529060405280519060200120905092915050565b92915050565b6000806000611e9d8585611f41565b91509150611eaa81611f87565b509392505050565b6060611608848460008561210f565b6000611f3c7f8b73c3c69bb8fe3d512ecc4cf759cc79239f7b179b0ffacaa9a75d522b39400f611ef060015490565b6002546040805160208101859052908101839052606081018290524660808201523060a082015260009060c0016040516020818303038152906040528051906020012090509392505050565b905090565b600080825160411415611f785760208301516040840151606085015160001a611f6c878285856121ea565b94509450505050611f80565b506000905060025b9250929050565b6000816004811115611fa957634e487b7160e01b600052602160045260246000fd5b1415611fb457610b09565b6001816004811115611fd657634e487b7160e01b600052602160045260246000fd5b14156120245760405162461bcd60e51b815260206004820152601860248201527f45434453413a20696e76616c6964207369676e617475726500000000000000006044820152606401610526565b600281600481111561204657634e487b7160e01b600052602160045260246000fd5b14156120945760405162461bcd60e51b815260206004820152601f60248201527f45434453413a20696e76616c6964207369676e6174757265206c656e677468006044820152606401610526565b60038160048111156120b657634e487b7160e01b600052602160045260246000fd5b1415610b095760405162461bcd60e51b815260206004820152602260248201527f45434453413a20696e76616c6964207369676e6174757265202773272076616c604482015261756560f01b6064820152608401610526565b6060824710156121705760405162461bcd60e51b815260206004820152602660248201527f416464726573733a20696e73756666696369656e742062616c616e636520666f6044820152651c8818d85b1b60d21b6064820152608401610526565b600080866001600160a01b0316858760405161218c91906126b4565b60006040518083038185875af1925050503d80600081146121c9576040519150601f19603f3d011682016040523d82523d6000602084013e6121ce565b606091505b50915091506121df878383876122ae565b979650505050505050565b6000807f7fffffffffffffffffffffffffffffff5d576e7357a4501ddfe92f46681b20a083111561222157506000905060036122a5565b6040805160008082526020820180845289905260ff881692820192909252606081018690526080810185905260019060a0016020604051602081039080840390855afa158015612275573d6000803e3d6000fd5b5050604051601f1901519150506001600160a01b03811661229e576000600192509250506122a5565b9150600090505b94509492505050565b60608315612318578251612311576122c585611a58565b6123115760405162461bcd60e51b815260206004820152601d60248201527f416464726573733a2063616c6c20746f206e6f6e2d636f6e74726163740000006044820152606401610526565b5081611608565b611608838381511561232d5781518083602001fd5b8060405162461bcd60e51b815260040161052691906126d0565b80356001600160a01b0381168114611a6657600080fd5b60006020828403121561236f578081fd5b61237882612347565b9392505050565b60008060408385031215612391578081fd5b61239a83612347565b9150611c8f60208401612347565b6000806000606084860312156123bc578081fd5b6123c584612347565b92506123d360208501612347565b9150604084013590509250925092565b60008060008060008060a087890312156123fb578182fd5b61240487612347565b955061241260208801612347565b94506040870135935060608701359250608087013567ffffffffffffffff8082111561243c578384fd5b818901915089601f83011261244f578384fd5b81358181111561245d578485fd5b8a602082850101111561246e578485fd5b6020830194508093505050509295509295509295565b600080600080600060a0868803121561249b578081fd5b6124a486612347565b94506124b260208701612347565b93506040860135925060608601359150608086013567ffffffffffffffff808211156124dc578283fd5b818801915088601f8301126124ef578283fd5b81358181111561250157612501612888565b604051601f8201601f19908116603f0116810190838211818310171561252957612529612888565b816040528281528b6020848701011115612541578586fd5b82602086016020830137856020848301015280955050505050509295509295909350565b60008060408385031215612577578182fd5b61258083612347565b946020939093013593505050565b6000806000606084860312156125a2578283fd5b6125ab84612347565b9250602084013591506125c060408501612347565b90509250925092565b600080600080608085870312156125de578384fd5b6125e785612347565b9350602085013592506040850135915061260360608601612347565b905092959194509250565b600080600080600060a08688031215612625578081fd5b61262e86612347565b9450602086013593506040860135925061264a60608701612347565b915061265860808701612347565b90509295509295909350565b600060208284031215612675578081fd5b81518015158114612378578182fd5b600060208284031215612695578081fd5b5035919050565b6000602082840312156126ad578081fd5b5051919050565b600082516126c6818460208701612846565b9190910192915050565b60006020825282518060208401526126ef816040850160208701612846565b601f01601f19169190910160400192915050565b6020808252600e908201526d10940e8818985908185b5bdd5b9d60921b604082015260600190565b6020808252600990820152682130b2103a37b5b2b760b91b604082015260600190565b6020808252600d908201526c2ba09d103737ba1030b236b4b760991b604082015260600190565b6020808252600d908201526c21281d103130b2103a37b5b2b760991b604082015260600190565b60208082526016908201527510940e8813db9b1e481c9bdd5d195c881b595d1a1bd960521b604082015260600190565b6020808252602b908201527f496e697469616c697a61626c653a20636f6e7472616374206973206e6f74206960408201526a6e697469616c697a696e6760a81b606082015260800190565b6000821982111561282a5761282a612872565b500190565b60008282101561284157612841612872565b500390565b60005b83811015612861578181015183820152602001612849565b83811115611cd05750506000910152565b634e487b7160e01b600052601160045260246000fd5b634e487b7160e01b600052604160045260246000fdfea264697066735822122032f6b88739cf48c71c8e5a92d9f3710308037790b8679caccf01bd76aabd124764736f6c63430008020033",
  "linkReferences": {},
  "deployedLinkReferences": {}
}