{
  "_format": "hh-sol-artifact-1",
  "contractName": "FundManager",
  "sourceName": "contracts/upgradeable-Bridge/FundManager.sol",
  "abi": [
    {
      "anonymous": false,
      "inputs": [
        {
          "indexed": false,
          "internalType": "address",
          "name": "admin",
          "type": "address"
        }
      ],
      "name": "AdminSet",
      "type": "event"
    },
    {
      "anonymous": false,
      "inputs": [
        {
          "indexed": false,
          "internalType": "address",
          "name": "actor",
          "type": "address"
        },
        {
          "indexed": false,
          "internalType": "address",
          "name": "token",
          "type": "address"
        },
        {
          "indexed": false,
          "internalType": "uint256",
          "name": "amount",
          "type": "uint256"
        }
      ],
      "name": "BridgeLiquidityAdded",
      "type": "event"
    },
    {
      "anonymous": false,
      "inputs": [
        {
          "indexed": false,
          "internalType": "address",
          "name": "actor",
          "type": "address"
        },
        {
          "indexed": false,
          "internalType": "address",
          "name": "token",
          "type": "address"
        },
        {
          "indexed": false,
          "internalType": "uint256",
          "name": "amount",
          "type": "uint256"
        }
      ],
      "name": "BridgeLiquidityRemoved",
      "type": "event"
    },
    {
      "anonymous": false,
      "inputs": [
        {
          "indexed": false,
          "internalType": "address",
          "name": "from",
          "type": "address"
        },
        {
          "indexed": true,
          "internalType": "address",
          "name": "token",
          "type": "address"
        },
        {
          "indexed": false,
          "internalType": "uint256",
          "name": "targetNetwork",
          "type": "uint256"
        },
        {
          "indexed": false,
          "internalType": "address",
          "name": "targetToken",
          "type": "address"
        },
        {
          "indexed": false,
          "internalType": "address",
          "name": "targetAddrdess",
          "type": "address"
        },
        {
          "indexed": false,
          "internalType": "uint256",
          "name": "amount",
          "type": "uint256"
        }
      ],
      "name": "BridgeSwap",
      "type": "event"
    },
    {
      "anonymous": false,
      "inputs": [
        {
          "indexed": false,
          "internalType": "uint8",
          "name": "version",
          "type": "uint8"
        }
      ],
      "name": "Initialized",
      "type": "event"
    },
    {
      "anonymous": false,
      "inputs": [
        {
          "indexed": true,
          "internalType": "address",
          "name": "previousOwner",
          "type": "address"
        },
        {
          "indexed": true,
          "internalType": "address",
          "name": "newOwner",
          "type": "address"
        }
      ],
      "name": "OwnershipTransferred",
      "type": "event"
    },
    {
      "anonymous": false,
      "inputs": [
        {
          "indexed": false,
          "internalType": "address",
          "name": "signer",
          "type": "address"
        },
        {
          "indexed": false,
          "internalType": "address",
          "name": "receiver",
          "type": "address"
        },
        {
          "indexed": false,
          "internalType": "address",
          "name": "token",
          "type": "address"
        },
        {
          "indexed": false,
          "internalType": "uint256",
          "name": "amount",
          "type": "uint256"
        },
        {
          "indexed": false,
          "internalType": "uint256",
          "name": "fee",
          "type": "uint256"
        }
      ],
      "name": "TransferBySignature",
      "type": "event"
    },
    {
      "inputs": [
        {
          "internalType": "address",
          "name": "token",
          "type": "address"
        }
      ],
      "name": "addFoundryAsset",
      "outputs": [],
      "stateMutability": "nonpayable",
      "type": "function"
    },
    {
      "inputs": [
        {
          "internalType": "address",
          "name": "token",
          "type": "address"
        },
        {
          "internalType": "uint256",
          "name": "amount",
          "type": "uint256"
        }
      ],
      "name": "addLiquidity",
      "outputs": [],
      "stateMutability": "nonpayable",
      "type": "function"
    },
    {
      "inputs": [
        {
          "internalType": "address",
          "name": "_signer",
          "type": "address"
        }
      ],
      "name": "addSigner",
      "outputs": [],
      "stateMutability": "nonpayable",
      "type": "function"
    },
    {
      "inputs": [],
      "name": "admin",
      "outputs": [
        {
          "internalType": "address",
          "name": "",
          "type": "address"
        }
      ],
      "stateMutability": "view",
      "type": "function"
    },
    {
      "inputs": [
        {
          "internalType": "address",
          "name": "token",
          "type": "address"
        },
        {
          "internalType": "uint256",
          "name": "chainId",
          "type": "uint256"
        },
        {
          "internalType": "address",
          "name": "targetToken",
          "type": "address"
        }
      ],
      "name": "allowTarget",
      "outputs": [],
      "stateMutability": "nonpayable",
      "type": "function"
    },
    {
      "inputs": [
        {
          "internalType": "address",
          "name": "",
          "type": "address"
        },
        {
          "internalType": "uint256",
          "name": "",
          "type": "uint256"
        }
      ],
      "name": "allowedTargets",
      "outputs": [
        {
          "internalType": "address",
          "name": "",
          "type": "address"
        }
      ],
      "stateMutability": "view",
      "type": "function"
    },
    {
      "inputs": [
        {
          "internalType": "address",
          "name": "token",
          "type": "address"
        },
        {
          "internalType": "uint256",
          "name": "chainId",
          "type": "uint256"
        }
      ],
      "name": "disallowTarget",
      "outputs": [],
      "stateMutability": "nonpayable",
      "type": "function"
    },
    {
      "inputs": [],
      "name": "feeDistributor",
      "outputs": [
        {
          "internalType": "address",
          "name": "",
          "type": "address"
        }
      ],
      "stateMutability": "view",
      "type": "function"
    },
    {
      "inputs": [
        {
          "internalType": "address",
          "name": "",
          "type": "address"
        }
      ],
      "name": "fees",
      "outputs": [
        {
          "internalType": "uint256",
          "name": "",
          "type": "uint256"
        }
      ],
      "stateMutability": "view",
      "type": "function"
    },
    {
      "inputs": [],
      "name": "initialize",
      "outputs": [],
      "stateMutability": "nonpayable",
      "type": "function"
    },
    {
      "inputs": [
        {
          "internalType": "address",
          "name": "",
          "type": "address"
        }
      ],
      "name": "isFoundryAsset",
      "outputs": [
        {
          "internalType": "bool",
          "name": "",
          "type": "bool"
        }
      ],
      "stateMutability": "view",
      "type": "function"
    },
    {
      "inputs": [
        {
          "internalType": "address",
          "name": "token",
          "type": "address"
        },
        {
          "internalType": "address",
          "name": "liquidityAdder",
          "type": "address"
        }
      ],
      "name": "liquidity",
      "outputs": [
        {
          "internalType": "uint256",
          "name": "",
          "type": "uint256"
        }
      ],
      "stateMutability": "view",
      "type": "function"
    },
    {
      "inputs": [],
      "name": "owner",
      "outputs": [
        {
          "internalType": "address",
          "name": "",
          "type": "address"
        }
      ],
      "stateMutability": "view",
      "type": "function"
    },
    {
      "inputs": [
        {
          "internalType": "address",
          "name": "token",
          "type": "address"
        }
      ],
      "name": "removeFoundryAsset",
      "outputs": [],
      "stateMutability": "nonpayable",
      "type": "function"
    },
    {
      "inputs": [
        {
          "internalType": "address",
          "name": "token",
          "type": "address"
        },
        {
          "internalType": "uint256",
          "name": "amount",
          "type": "uint256"
        }
      ],
      "name": "removeLiquidityIfPossible",
      "outputs": [
        {
          "internalType": "uint256",
          "name": "",
          "type": "uint256"
        }
      ],
      "stateMutability": "nonpayable",
      "type": "function"
    },
    {
      "inputs": [
        {
          "internalType": "address",
          "name": "_signer",
          "type": "address"
        }
      ],
      "name": "removeSigner",
      "outputs": [],
      "stateMutability": "nonpayable",
      "type": "function"
    },
    {
      "inputs": [],
      "name": "renounceOwnership",
      "outputs": [],
      "stateMutability": "nonpayable",
      "type": "function"
    },
    {
      "inputs": [],
      "name": "router",
      "outputs": [
        {
          "internalType": "address",
          "name": "",
          "type": "address"
        }
      ],
      "stateMutability": "view",
      "type": "function"
    },
    {
      "inputs": [
        {
          "internalType": "address",
          "name": "_admin",
          "type": "address"
        }
      ],
      "name": "setAdmin",
      "outputs": [],
      "stateMutability": "nonpayable",
      "type": "function"
    },
    {
      "inputs": [
        {
          "internalType": "address",
          "name": "token",
          "type": "address"
        },
        {
          "internalType": "uint256",
          "name": "fee10000",
          "type": "uint256"
        }
      ],
      "name": "setFee",
      "outputs": [],
      "stateMutability": "nonpayable",
      "type": "function"
    },
    {
      "inputs": [
        {
          "internalType": "address",
          "name": "_feeDistributor",
          "type": "address"
        }
      ],
      "name": "setFeeDistributor",
      "outputs": [],
      "stateMutability": "nonpayable",
      "type": "function"
    },
    {
      "inputs": [
        {
          "internalType": "address",
          "name": "_router",
          "type": "address"
        }
      ],
      "name": "setRouter",
      "outputs": [],
      "stateMutability": "nonpayable",
      "type": "function"
    },
    {
      "inputs": [
        {
          "internalType": "address",
          "name": "",
          "type": "address"
        }
      ],
      "name": "signers",
      "outputs": [
        {
          "internalType": "bool",
          "name": "",
          "type": "bool"
        }
      ],
      "stateMutability": "view",
      "type": "function"
    },
    {
      "inputs": [
        {
          "internalType": "address",
          "name": "token",
          "type": "address"
        },
        {
          "internalType": "uint256",
          "name": "amount",
          "type": "uint256"
        },
        {
          "internalType": "uint256",
          "name": "targetNetwork",
          "type": "uint256"
        },
        {
          "internalType": "address",
          "name": "targetToken",
          "type": "address"
        }
      ],
      "name": "swap",
      "outputs": [
        {
          "internalType": "uint256",
          "name": "",
          "type": "uint256"
        }
      ],
      "stateMutability": "nonpayable",
      "type": "function"
    },
    {
      "inputs": [
        {
          "internalType": "address",
          "name": "token",
          "type": "address"
        },
        {
          "internalType": "uint256",
          "name": "amount",
          "type": "uint256"
        },
        {
          "internalType": "uint256",
          "name": "targetNetwork",
          "type": "uint256"
        },
        {
          "internalType": "address",
          "name": "targetToken",
          "type": "address"
        },
        {
          "internalType": "bytes32",
          "name": "salt",
          "type": "bytes32"
        },
        {
          "internalType": "bytes",
          "name": "signature",
          "type": "bytes"
        }
      ],
      "name": "swapSigned",
      "outputs": [
        {
          "internalType": "uint256",
          "name": "",
          "type": "uint256"
        }
      ],
      "stateMutability": "nonpayable",
      "type": "function"
    },
    {
      "inputs": [
        {
          "internalType": "address",
          "name": "token",
          "type": "address"
        },
        {
          "internalType": "uint256",
          "name": "amount",
          "type": "uint256"
        },
        {
          "internalType": "uint256",
          "name": "targetNetwork",
          "type": "uint256"
        },
        {
          "internalType": "address",
          "name": "targetToken",
          "type": "address"
        },
        {
          "internalType": "address",
          "name": "targetAddress",
          "type": "address"
        }
      ],
      "name": "swapToAddress",
      "outputs": [
        {
          "internalType": "uint256",
          "name": "",
          "type": "uint256"
        }
      ],
      "stateMutability": "nonpayable",
      "type": "function"
    },
    {
      "inputs": [
        {
          "internalType": "address",
          "name": "token",
          "type": "address"
        },
        {
          "internalType": "uint256",
          "name": "amount",
          "type": "uint256"
        },
        {
          "internalType": "uint256",
          "name": "targetNetwork",
          "type": "uint256"
        },
        {
          "internalType": "address",
          "name": "targetToken",
          "type": "address"
        },
        {
          "internalType": "address",
          "name": "targetAddress",
          "type": "address"
        },
        {
          "internalType": "bytes32",
          "name": "salt",
          "type": "bytes32"
        },
        {
          "internalType": "bytes",
          "name": "signature",
          "type": "bytes"
        }
      ],
      "name": "swapToAddressSigned",
      "outputs": [
        {
          "internalType": "uint256",
          "name": "",
          "type": "uint256"
        }
      ],
      "stateMutability": "nonpayable",
      "type": "function"
    },
    {
      "inputs": [
        {
          "internalType": "address",
          "name": "newOwner",
          "type": "address"
        }
      ],
      "name": "transferOwnership",
      "outputs": [],
      "stateMutability": "nonpayable",
      "type": "function"
    },
    {
      "inputs": [
        {
          "internalType": "bytes32",
          "name": "",
          "type": "bytes32"
        }
      ],
      "name": "usedHashes",
      "outputs": [
        {
          "internalType": "bool",
          "name": "",
          "type": "bool"
        }
      ],
      "stateMutability": "view",
      "type": "function"
    },
    {
      "inputs": [
        {
          "internalType": "address",
          "name": "token",
          "type": "address"
        },
        {
          "internalType": "address",
          "name": "payee",
          "type": "address"
        },
        {
          "internalType": "uint256",
          "name": "amount",
          "type": "uint256"
        }
      ],
      "name": "withdraw",
      "outputs": [
        {
          "internalType": "uint256",
          "name": "",
          "type": "uint256"
        }
      ],
      "stateMutability": "nonpayable",
      "type": "function"
    },
    {
      "inputs": [
        {
          "internalType": "address",
          "name": "token",
          "type": "address"
        },
        {
          "internalType": "address",
          "name": "payee",
          "type": "address"
        },
        {
          "internalType": "uint256",
          "name": "amount",
          "type": "uint256"
        },
        {
          "internalType": "bytes32",
          "name": "salt",
          "type": "bytes32"
        },
        {
          "internalType": "bytes",
          "name": "signature",
          "type": "bytes"
        }
      ],
      "name": "withdrawSigned",
      "outputs": [
        {
          "internalType": "uint256",
          "name": "",
          "type": "uint256"
        }
      ],
      "stateMutability": "nonpayable",
      "type": "function"
    },
    {
      "inputs": [
        {
          "internalType": "address",
          "name": "token",
          "type": "address"
        },
        {
          "internalType": "address",
          "name": "payee",
          "type": "address"
        },
        {
          "internalType": "uint256",
          "name": "amount",
          "type": "uint256"
        },
        {
          "internalType": "bytes32",
          "name": "salt",
          "type": "bytes32"
        },
        {
          "internalType": "bytes",
          "name": "signature",
          "type": "bytes"
        }
      ],
      "name": "withdrawSignedVerify",
      "outputs": [
        {
          "internalType": "bytes32",
          "name": "",
          "type": "bytes32"
        },
        {
          "internalType": "address",
          "name": "",
          "type": "address"
        }
      ],
      "stateMutability": "view",
      "type": "function"
    }
  ],
  "bytecode": "0x608060405234801561001057600080fd5b50612d8c806100206000396000f3fe608060405234801561001057600080fd5b50600436106101f05760003560e01c8063aef18bf71161010f578063e91b79bc116100a2578063f3e6ea8a11610071578063f3e6ea8a146104c2578063f851a440146104d5578063f887ea40146104e8578063faaebd21146104fb576101f0565b8063e91b79bc14610476578063eb12d61e14610489578063f2117d451461049c578063f2fde38b146104af576101f0565b8063ccfc2e8d116100de578063ccfc2e8d1461042a578063d9caed121461043d578063dcb0f2d314610450578063e55156b514610463576101f0565b8063aef18bf7146103a8578063af897400146103cb578063b2217281146103de578063c0d7865514610417576101f0565b8063704b6c02116101875780638d6e9291116101565780638d6e9291146103315780638da5cb5b146103445780639d90d0a114610355578063aa36acfb14610378576101f0565b8063704b6c02146102db578063715018a6146102ee578063736c0d5b146102f65780638129fc1c14610329576101f0565b806344da8271116101c357806344da82711461028157806352f9567d1461029457806356688700146102b55780636dcdefda146102c8576101f0565b80630d43e8ad146101f55780630e316ab714610225578063278c13fe1461023a5780632839c21a1461026e575b600080fd5b60a054610208906001600160a01b031681565b6040516001600160a01b0390911681526020015b60405180910390f35b61023861023336600461270f565b61051b565b005b6102086102483660046128a5565b609f6020908152600092835260408084209091529082529020546001600160a01b031681565b61023861027c36600461270f565b61058c565b61023861028f3660046128ce565b610615565b6102a76102a236600461294e565b610738565b60405190815260200161021c565b6102386102c33660046128a5565b6107e1565b6102a76102d6366004612a2e565b610965565b6102386102e936600461270f565b610a75565b610238610ad2565b61031961030436600461270f565b609c6020526000908152604090205460ff1681565b604051901515815260200161021c565b610238610ae6565b6102a761033f366004612835565b610c58565b6068546001600160a01b0316610208565b61031961036336600461270f565b60a16020526000908152604090205460ff1681565b61038b610386366004612794565b610f0f565b604080519283526001600160a01b0390911660208301520161021c565b6103196103b6366004612ac6565b60356020526000908152604090205460ff1681565b6102a76103d93660046129a4565b610f77565b6102a76103ec366004612730565b6001600160a01b039182166000908152609d6020908152604080832093909416825291909152205490565b61023861042536600461270f565b611091565b61023861043836600461270f565b611107565b6102a761044b366004612759565b611131565b61023861045e3660046128a5565b611351565b6102386104713660046128a5565b611424565b6102a76104843660046128a5565b6114e7565b61023861049736600461270f565b611789565b6102386104aa36600461270f565b6117f8565b6102386104bd36600461270f565b61187e565b6102a76104d0366004612909565b6118f4565b609a54610208906001600160a01b031681565b609b54610208906001600160a01b031681565b6102a761050936600461270f565b609e6020526000908152604090205481565b61052361193a565b6001600160a01b03811661056b5760405162461bcd60e51b815260206004820152600a6024820152692130b21039b4b3b732b960b11b60448201526064015b60405180910390fd5b6001600160a01b03166000908152609c60205260409020805460ff19169055565b609a546001600160a01b03163314806105af57506068546001600160a01b031633145b6105cb5760405162461bcd60e51b815260040161056290612b90565b6001600160a01b0381166105f15760405162461bcd60e51b815260040161056290612b6d565b6001600160a01b0316600090815260a160205260409020805460ff19166001179055565b609a546001600160a01b031633148061063857506068546001600160a01b031633145b6106545760405162461bcd60e51b815260040161056290612b90565b6001600160a01b03831661067a5760405162461bcd60e51b815260040161056290612b6d565b6001600160a01b0381166106c25760405162461bcd60e51b815260206004820152600f60248201526e2130b2103a30b933b2ba2a37b5b2b760891b6044820152606401610562565b816106fd5760405162461bcd60e51b815260206004820152600b60248201526a1098590818da185a5b925960aa1b6044820152606401610562565b6001600160a01b039283166000908152609f602090815260408083209483529390529190912080546001600160a01b03191691909216179055565b609b546000906001600160a01b031633146107655760405162461bcd60e51b815260040161056290612c15565b6001600160a01b0382166107c95760405162461bcd60e51b815260206004820152602560248201527f427269646765506f6f6c3a2074617267657441646472657373206973207265716044820152641d5a5c995960da1b6064820152608401610562565b6107d7338787878787611994565b9695505050505050565b806108285760405162461bcd60e51b8152602060048201526017602482015276416d6f756e74206d75737420626520706f73697469766560481b6044820152606401610562565b6001600160a01b03821661084e5760405162461bcd60e51b815260040161056290612b6d565b6001600160a01b038216600090815260a1602052604090205460ff1615156001146108bb5760405162461bcd60e51b815260206004820181905260248201527f4f6e6c7920666f756e647279206173736574732063616e2062652061646465646044820152606401610562565b6108c782333084611ba0565b6001600160a01b0383166000908152609d602090815260408083203384529091529020549091506108f9908290612c90565b6001600160a01b0383166000818152609d6020908152604080832033808552908352928190209490945583519182528101919091529081018290527fef3f81f7842dc4087d754ab30e98bb596b7345a806ff6db3c82f0c7d77b749609060600160405180910390a15050565b609b546000906001600160a01b031633146109925760405162461bcd60e51b815260040161056290612c15565b604080517f7f2a3c9c8d143b79021d4564d021699673ea1b8d5787acfd9a1b532f746392ff6020808301919091526001600160a01b03808b1683850152606083018a90526080830187905260a08301899052871660c083015260e08083018790528351808403909101815261010090920190925280519101206000610a178285611d30565b9050610a2281611db8565b6001600160a01b0381166000908152609c602052604090205460ff16610a5a5760405162461bcd60e51b815260040161056290612bb7565b610a68338a8a8a8a33611994565b9998505050505050505050565b610a7d61193a565b609a80546001600160a01b0319166001600160a01b0383169081179091556040519081527f8fe72c3e0020beb3234e76ae6676fa576fbfcae600af1c4fea44784cf0db329c906020015b60405180910390a150565b610ada61193a565b610ae46000611e00565b565b600054610100900460ff1615808015610b065750600054600160ff909116105b80610b275750610b1530611e52565b158015610b27575060005460ff166001145b610b8a5760405162461bcd60e51b815260206004820152602e60248201527f496e697469616c697a61626c653a20636f6e747261637420697320616c72656160448201526d191e481a5b9a5d1a585b1a5e995960921b6064820152608401610562565b6000805460ff191660011790558015610bad576000805461ff0019166101001790555b610c0b6040518060400160405280601881526020017f46455252554d5f544f4b454e5f4252494447455f504f4f4c0000000000000000815250604051806040016040528060078152602001660c0c0c0b8c0c0d60ca1b815250611e65565b610c13611e9a565b8015610c55576000805461ff0019169055604051600181527f7f26b83ff96e1f2b6a682f133852f6798a09c465da95921460cefb384740249890602001610ac7565b50565b609b546000906001600160a01b03163314610c855760405162461bcd60e51b815260040161056290612c15565b6001600160a01b038616610cab5760405162461bcd60e51b815260040161056290612bee565b6001600160a01b038516610cf15760405162461bcd60e51b815260206004820152600d60248201526c42503a2062616420706179656560981b6044820152606401610562565b82610d2d5760405162461bcd60e51b815260206004820152600c60248201526b10940e88189859081cd85b1d60a21b6044820152606401610562565b83610d4a5760405162461bcd60e51b815260040161056290612b45565b6000610d5887878787611ec9565b90506000610d668285611d30565b9050610d7181611db8565b6001600160a01b0381166000908152609c602052604090205460ff16610da95760405162461bcd60e51b815260040161056290612bb7565b60a0546000906001600160a01b03168015610e94576001600160a01b038a166000908152609e602052604090205461271090610de5908a612cc8565b610def9190612ca8565b9150610dfb8289612ce7565b97508115610e9457610e176001600160a01b038b168284611f39565b6040516307ac097560e41b81526001600160a01b038b81166004830152821690637ac0975090602401602060405180830381600087803b158015610e5a57600080fd5b505af1158015610e6e573d6000803e3d6000fd5b505050506040513d601f19601f82011682018060405250810190610e929190612ade565b505b610ea86001600160a01b038b168a8a611f39565b604080516001600160a01b0385811682528b811660208301528c1681830152606081018a90526080810184905290517fc9fbf9f295770004fd3f75553aff7c914cfda0e68ae990146b01fcfa48a276359181900360a00190a1509598975050505050505050565b6000806000610f2089898989611ec9565b9050600080610f658388888080601f016020809104026020016040519081016040528093929190818152602001838380828437600092019190915250611fa192505050565b909c909b509950505050505050505050565b609b546000906001600160a01b03163314610fa45760405162461bcd60e51b815260040161056290612c15565b604080517fd9847a7472256dd162a92e871f499d619f8cab4ce69623725279e8ca08a5df736020808301919091526001600160a01b03808c1683850152606083018b90526080830187905260a083018a905280891660c0840152871660e083015261010080830187905283518084039091018152610120909201909252805191012060006110328285611d30565b905061103d81611db8565b6001600160a01b0381166000908152609c602052604090205460ff166110755760405162461bcd60e51b815260040161056290612bb7565b611083338b8b8b8b33611994565b9a9950505050505050505050565b61109961193a565b6001600160a01b0381166110e55760405162461bcd60e51b815260206004820152601360248201527210940e881c9bdd5d195c881c995c5d5c9a5959606a1b6044820152606401610562565b609b80546001600160a01b0319166001600160a01b0392909216919091179055565b61110f61193a565b60a080546001600160a01b0319166001600160a01b0392909216919091179055565b609b546000906001600160a01b0316331461115e5760405162461bcd60e51b815260040161056290612c15565b6001600160a01b0384166111845760405162461bcd60e51b815260040161056290612bee565b6001600160a01b0383166111ca5760405162461bcd60e51b815260206004820152600d60248201526c42503a2062616420706179656560981b6044820152606401610562565b816111e75760405162461bcd60e51b815260040161056290612b45565b6001600160a01b038416600090815260a1602052604090205460ff1615156001146112545760405162461bcd60e51b815260206004820152601a60248201527f746f6b656e206973206e6f7420666f756e6472792061737365740000000000006044820152606401610562565b6040516370a0823160e01b81523060048201526000906001600160a01b038616906370a082319060240160206040518083038186803b15801561129657600080fd5b505afa1580156112aa573d6000803e3d6000fd5b505050506040513d601f19601f820116820180604052508101906112ce9190612ade565b9050828110156113345760405162461bcd60e51b815260206004820152602b60248201527f696e73756666696369656e7420666f756e647279206173736574206c6971756960448201526a191a5d1e48185b5bdd5b9d60aa1b6064820152608401610562565b6113486001600160a01b0386168585611f39565b50909392505050565b609a546001600160a01b031633148061137457506068546001600160a01b031633145b6113905760405162461bcd60e51b815260040161056290612b90565b6001600160a01b0382166113b65760405162461bcd60e51b815260040161056290612b6d565b806113f15760405162461bcd60e51b815260206004820152600b60248201526a1098590818da185a5b925960aa1b6044820152606401610562565b6001600160a01b039091166000908152609f602090815260408083209383529290522080546001600160a01b0319169055565b609a546001600160a01b031633148061144757506068546001600160a01b031633145b6114635760405162461bcd60e51b815260040161056290612b90565b6001600160a01b0382166114895760405162461bcd60e51b815260040161056290612b6d565b6103e88111156114cb5760405162461bcd60e51b815260206004820152600d60248201526c46656520746f6f206c6172676560981b6044820152606401610562565b6001600160a01b039091166000908152609e6020526040902055565b6000816115305760405162461bcd60e51b8152602060048201526017602482015276416d6f756e74206d75737420626520706f73697469766560481b6044820152606401610562565b6001600160a01b0383166115565760405162461bcd60e51b815260040161056290612b6d565b6001600160a01b038316600090815260a1602052604090205460ff1615156001146115ce5760405162461bcd60e51b815260206004820152602260248201527f4f6e6c7920666f756e647279206173736574732063616e2062652072656d6f76604482015261195960f21b6064820152608401610562565b6001600160a01b0383166000908152609d60209081526040808320338452909152902054828110156116395760405162461bcd60e51b81526020600482015260146024820152734e6f7420656e6f756768206c697175696469747960601b6044820152606401610562565b6040516370a0823160e01b81523060048201526000906001600160a01b038616906370a082319060240160206040518083038186803b15801561167b57600080fd5b505afa15801561168f573d6000803e3d6000fd5b505050506040513d601f19601f820116820180604052508101906116b39190612ade565b905060008482116116c457816116c6565b845b6001600160a01b0387166000908152609d602090815260408083203384529091529020549091506116f8908290612ce7565b6001600160a01b0387166000908152609d602090815260408083203384529091529020558015611780576117366001600160a01b0387163383611f39565b604080513381526001600160a01b03881660208201529081018690527f5204091f3aba3d16dbb7fcc090386ce24245ac12f57ae5bf9785e0ab9a79be739060600160405180910390a15b95945050505050565b61179161193a565b6001600160a01b0381166117d45760405162461bcd60e51b815260206004820152600a6024820152692130b21039b4b3b732b960b11b6044820152606401610562565b6001600160a01b03166000908152609c60205260409020805460ff19166001179055565b609a546001600160a01b031633148061181b57506068546001600160a01b031633145b6118375760405162461bcd60e51b815260040161056290612b90565b6001600160a01b03811661185d5760405162461bcd60e51b815260040161056290612b6d565b6001600160a01b0316600090815260a160205260409020805460ff19169055565b61188661193a565b6001600160a01b0381166118eb5760405162461bcd60e51b815260206004820152602660248201527f4f776e61626c653a206e6577206f776e657220697320746865207a65726f206160448201526564647265737360d01b6064820152608401610562565b610c5581611e00565b609b546000906001600160a01b031633146119215760405162461bcd60e51b815260040161056290612c15565b61192f338686868633611994565b90505b949350505050565b6068546001600160a01b03163314610ae45760405162461bcd60e51b815260206004820181905260248201527f4f776e61626c653a2063616c6c6572206973206e6f7420746865206f776e65726044820152606401610562565b60006001600160a01b0387166119db5760405162461bcd60e51b815260206004820152600c60248201526b42503a206261642066726f6d60a01b6044820152606401610562565b6001600160a01b038616611a015760405162461bcd60e51b815260040161056290612bee565b83611a4e5760405162461bcd60e51b815260206004820152601d60248201527f42503a207461726765744e6574776f726b2069732072657175726965640000006044820152606401610562565b6001600160a01b038316611a9b5760405162461bcd60e51b815260206004820152601460248201527321281d103130b2103a30b933b2ba103a37b5b2b760611b6044820152606401610562565b84611ab85760405162461bcd60e51b815260040161056290612b45565b6001600160a01b038681166000908152609f60209081526040808320888452909152902054811690841614611b285760405162461bcd60e51b815260206004820152601660248201527510940e881d185c99d95d081b9bdd08185b1b1bddd95960521b6044820152606401610562565b611b3486883088611ba0565b604080516001600160a01b038a8116825260208201889052868116828401528581166060830152608082018490529151929750908816917f0752ea9a96cdaf45ba08b0e73e0bbecc3d4a19e96da74d1ac80edea784d4c62c9181900360a00190a2509295945050505050565b6040516370a0823160e01b81526001600160a01b03838116600483015260009182918716906370a082319060240160206040518083038186803b158015611be657600080fd5b505afa158015611bfa573d6000803e3d6000fd5b505050506040513d601f19601f82011682018060405250810190611c1e9190612ade565b9050611c356001600160a01b038716868686611fc2565b6040516370a0823160e01b81526001600160a01b038581166004830152600091908816906370a082319060240160206040518083038186803b158015611c7a57600080fd5b505afa158015611c8e573d6000803e3d6000fd5b505050506040513d601f19601f82011682018060405250810190611cb29190612ade565b9050611cbe8282612ce7565b925083831115611d265760405162461bcd60e51b815260206004820152602d60248201527f53413a2061637475616c20616d6f756e74206c6172676572207468616e20747260448201526c185b9cd9995c88185b5bdd5b9d609a1b6064820152608401610562565b5050949350505050565b600080611d3d8484611fa1565b60008281526035602052604090205490935090915060ff1615611d995760405162461bcd60e51b815260206004820152601460248201527313595cdcd859d948185b1c9958591e481d5cd95960621b6044820152606401610562565b6000908152603560205260409020805460ff1916600117905592915050565b6040516001600160a01b0382166024820152610c559060440160408051601f198184030181529190526020810180516001600160e01b031663161765e160e11b179052612000565b606880546001600160a01b038381166001600160a01b0319831681179093556040519116919082907f8be0079c531659141344cd1fd0a4f28419497f9722a3daafe3b4186f6b6457e090600090a35050565b6001600160a01b0381163b15155b919050565b600054610100900460ff16611e8c5760405162461bcd60e51b815260040161056290612c45565b611e968282612021565b5050565b600054610100900460ff16611ec15760405162461bcd60e51b815260040161056290612c45565b610ae4612062565b604080517fbf78e0e468a2675e8ce0f0c1c79b1d9da1bf9cdef7cb74b324d5f733249250c76020808301919091526001600160a01b0396871682840152949095166060860152608085019290925260a0808501919091528151808503909101815260c09093019052815191012090565b6040516001600160a01b038316602482015260448101829052611f9c90849063a9059cbb60e01b906064015b60408051601f198184030181529190526020810180516001600160e01b03166001600160e01b031990931692909217909152612092565b505050565b600080611fad84612164565b9150611fb982846121b8565b90509250929050565b6040516001600160a01b0380851660248301528316604482015260648101829052611ffa9085906323b872dd60e01b90608401611f65565b50505050565b80516a636f6e736f6c652e6c6f67602083016000808483855afa5050505050565b600054610100900460ff166120485760405162461bcd60e51b815260040161056290612c45565b815160209283012081519190920120600191909155600255565b600054610100900460ff166120895760405162461bcd60e51b815260040161056290612c45565b610ae433611e00565b60006120e7826040518060400160405280602081526020017f5361666545524332303a206c6f772d6c6576656c2063616c6c206661696c6564815250856001600160a01b03166121dc9092919063ffffffff16565b805190915015611f9c57808060200190518101906121059190612aa6565b611f9c5760405162461bcd60e51b815260206004820152602a60248201527f5361666545524332303a204552433230206f7065726174696f6e20646964206e6044820152691bdd081cdd58d8d9595960b21b6064820152608401610562565b60006121b26121716121eb565b8360405161190160f01b6020820152602281018390526042810182905260009060620160405160208183030381529060405280519060200120905092915050565b92915050565b60008060006121c7858561226b565b915091506121d4816122b1565b509392505050565b60606119328484600085612439565b60006122667f8b73c3c69bb8fe3d512ecc4cf759cc79239f7b179b0ffacaa9a75d522b39400f61221a60015490565b6002546040805160208101859052908101839052606081018290524660808201523060a082015260009060c0016040516020818303038152906040528051906020012090509392505050565b905090565b6000808251604114156122a25760208301516040840151606085015160001a61229687828585612514565b945094505050506122aa565b506000905060025b9250929050565b60008160048111156122d357634e487b7160e01b600052602160045260246000fd5b14156122de57610c55565b600181600481111561230057634e487b7160e01b600052602160045260246000fd5b141561234e5760405162461bcd60e51b815260206004820152601860248201527f45434453413a20696e76616c6964207369676e617475726500000000000000006044820152606401610562565b600281600481111561237057634e487b7160e01b600052602160045260246000fd5b14156123be5760405162461bcd60e51b815260206004820152601f60248201527f45434453413a20696e76616c6964207369676e6174757265206c656e677468006044820152606401610562565b60038160048111156123e057634e487b7160e01b600052602160045260246000fd5b1415610c555760405162461bcd60e51b815260206004820152602260248201527f45434453413a20696e76616c6964207369676e6174757265202773272076616c604482015261756560f01b6064820152608401610562565b60608247101561249a5760405162461bcd60e51b815260206004820152602660248201527f416464726573733a20696e73756666696369656e742062616c616e636520666f6044820152651c8818d85b1b60d21b6064820152608401610562565b600080866001600160a01b031685876040516124b69190612af6565b60006040518083038185875af1925050503d80600081146124f3576040519150601f19603f3d011682016040523d82523d6000602084013e6124f8565b606091505b5091509150612509878383876125d8565b979650505050505050565b6000807f7fffffffffffffffffffffffffffffff5d576e7357a4501ddfe92f46681b20a083111561254b57506000905060036125cf565b6040805160008082526020820180845289905260ff881692820192909252606081018690526080810185905260019060a0016020604051602081039080840390855afa15801561259f573d6000803e3d6000fd5b5050604051601f1901519150506001600160a01b0381166125c8576000600192509250506125cf565b9150600090505b94509492505050565b6060831561264257825161263b576125ef85611e52565b61263b5760405162461bcd60e51b815260206004820152601d60248201527f416464726573733a2063616c6c20746f206e6f6e2d636f6e74726163740000006044820152606401610562565b5081611932565b61193283838151156126575781518083602001fd5b8060405162461bcd60e51b81526004016105629190612b12565b80356001600160a01b0381168114611e6057600080fd5b600082601f830112612698578081fd5b813567ffffffffffffffff808211156126b3576126b3612d40565b604051601f8301601f19908116603f011681019082821181831017156126db576126db612d40565b816040528381528660208588010111156126f3578485fd5b8360208701602083013792830160200193909352509392505050565b600060208284031215612720578081fd5b61272982612671565b9392505050565b60008060408385031215612742578081fd5b61274b83612671565b9150611fb960208401612671565b60008060006060848603121561276d578081fd5b61277684612671565b925061278460208501612671565b9150604084013590509250925092565b60008060008060008060a087890312156127ac578182fd5b6127b587612671565b95506127c360208801612671565b94506040870135935060608701359250608087013567ffffffffffffffff808211156127ed578384fd5b818901915089601f830112612800578384fd5b81358181111561280e578485fd5b8a602082850101111561281f578485fd5b6020830194508093505050509295509295509295565b600080600080600060a0868803121561284c578081fd5b61285586612671565b945061286360208701612671565b93506040860135925060608601359150608086013567ffffffffffffffff81111561288c578182fd5b61289888828901612688565b9150509295509295909350565b600080604083850312156128b7578182fd5b6128c083612671565b946020939093013593505050565b6000806000606084860312156128e2578283fd5b6128eb84612671565b92506020840135915061290060408501612671565b90509250925092565b6000806000806080858703121561291e578384fd5b61292785612671565b9350602085013592506040850135915061294360608601612671565b905092959194509250565b600080600080600060a08688031215612965578081fd5b61296e86612671565b9450602086013593506040860135925061298a60608701612671565b915061299860808701612671565b90509295509295909350565b600080600080600080600060e0888a0312156129be578081fd5b6129c788612671565b965060208801359550604088013594506129e360608901612671565b93506129f160808901612671565b925060a0880135915060c088013567ffffffffffffffff811115612a13578182fd5b612a1f8a828b01612688565b91505092959891949750929550565b60008060008060008060c08789031215612a46578384fd5b612a4f87612671565b95506020870135945060408701359350612a6b60608801612671565b92506080870135915060a087013567ffffffffffffffff811115612a8d578182fd5b612a9989828a01612688565b9150509295509295509295565b600060208284031215612ab7578081fd5b81518015158114612729578182fd5b600060208284031215612ad7578081fd5b5035919050565b600060208284031215612aef578081fd5b5051919050565b60008251612b08818460208701612cfe565b9190910192915050565b6000602082528251806020840152612b31816040850160208701612cfe565b601f01601f19169190910160400192915050565b6020808252600e908201526d10940e8818985908185b5bdd5b9d60921b604082015260600190565b6020808252600990820152682130b2103a37b5b2b760b91b604082015260600190565b6020808252600d908201526c2ba09d103737ba1030b236b4b760991b604082015260600190565b6020808252601a908201527f427269646765506f6f6c3a20496e76616c6964207369676e6572000000000000604082015260600190565b6020808252600d908201526c21281d103130b2103a37b5b2b760991b604082015260600190565b60208082526016908201527510940e8813db9b1e481c9bdd5d195c881b595d1a1bd960521b604082015260600190565b6020808252602b908201527f496e697469616c697a61626c653a20636f6e7472616374206973206e6f74206960408201526a6e697469616c697a696e6760a81b606082015260800190565b60008219821115612ca357612ca3612d2a565b500190565b600082612cc357634e487b7160e01b81526012600452602481fd5b500490565b6000816000190483118215151615612ce257612ce2612d2a565b500290565b600082821015612cf957612cf9612d2a565b500390565b60005b83811015612d19578181015183820152602001612d01565b83811115611ffa5750506000910152565b634e487b7160e01b600052601160045260246000fd5b634e487b7160e01b600052604160045260246000fdfea2646970667358221220beaf386848cfa9b12715bf9146a8a8943ca6f61f920f5709a0223ded0ed02af564736f6c63430008020033",
  "linkReferences": {},
  "deployedLinkReferences": {}
}