{
  "_format": "hh-sol-artifact-1",
  "contractName": "FundManager",
  "sourceName": "contracts/multiswap-contracts/FundManager.sol",
  "abi": [
    {
      "inputs": [],
      "stateMutability": "nonpayable",
      "type": "constructor"
    },
    {
      "anonymous": false,
      "inputs": [
        {
          "indexed": false,
          "internalType": "address",
          "name": "admin",
          "type": "address"
        }
      ],
      "name": "AdminSet",
      "type": "event"
    },
    {
      "anonymous": false,
      "inputs": [
        {
          "indexed": false,
          "internalType": "address",
          "name": "actor",
          "type": "address"
        },
        {
          "indexed": false,
          "internalType": "address",
          "name": "token",
          "type": "address"
        },
        {
          "indexed": false,
          "internalType": "uint256",
          "name": "amount",
          "type": "uint256"
        }
      ],
      "name": "BridgeLiquidityAdded",
      "type": "event"
    },
    {
      "anonymous": false,
      "inputs": [
        {
          "indexed": false,
          "internalType": "address",
          "name": "actor",
          "type": "address"
        },
        {
          "indexed": false,
          "internalType": "address",
          "name": "token",
          "type": "address"
        },
        {
          "indexed": false,
          "internalType": "uint256",
          "name": "amount",
          "type": "uint256"
        }
      ],
      "name": "BridgeLiquidityRemoved",
      "type": "event"
    },
    {
      "anonymous": false,
      "inputs": [
        {
          "indexed": false,
          "internalType": "address",
          "name": "from",
          "type": "address"
        },
        {
          "indexed": true,
          "internalType": "address",
          "name": "token",
          "type": "address"
        },
        {
          "indexed": false,
          "internalType": "uint256",
          "name": "targetNetwork",
          "type": "uint256"
        },
        {
          "indexed": false,
          "internalType": "address",
          "name": "targetToken",
          "type": "address"
        },
        {
          "indexed": false,
          "internalType": "address",
          "name": "targetAddrdess",
          "type": "address"
        },
        {
          "indexed": false,
          "internalType": "uint256",
          "name": "amount",
          "type": "uint256"
        }
      ],
      "name": "BridgeSwap",
      "type": "event"
    },
    {
      "anonymous": false,
      "inputs": [
        {
          "indexed": true,
          "internalType": "address",
          "name": "settlementManager",
          "type": "address"
        },
        {
          "indexed": true,
          "internalType": "address",
          "name": "receiver",
          "type": "address"
        },
        {
          "indexed": true,
          "internalType": "address",
          "name": "token",
          "type": "address"
        },
        {
          "indexed": false,
          "internalType": "uint256",
          "name": "amount",
          "type": "uint256"
        },
        {
          "indexed": false,
          "internalType": "bytes32",
          "name": "salt",
          "type": "bytes32"
        }
      ],
      "name": "FailedWithdrawalCancelled",
      "type": "event"
    },
    {
      "anonymous": false,
      "inputs": [
        {
          "indexed": false,
          "internalType": "address",
          "name": "token",
          "type": "address"
        },
        {
          "indexed": false,
          "internalType": "uint256",
          "name": "amount",
          "type": "uint256"
        }
      ],
      "name": "LiquidityAddedByManager",
      "type": "event"
    },
    {
      "anonymous": false,
      "inputs": [
        {
          "indexed": false,
          "internalType": "address",
          "name": "token",
          "type": "address"
        },
        {
          "indexed": false,
          "internalType": "uint256",
          "name": "amount",
          "type": "uint256"
        },
        {
          "indexed": false,
          "internalType": "address",
          "name": "withdrawalAddress",
          "type": "address"
        }
      ],
      "name": "LiquidityRemovedByManager",
      "type": "event"
    },
    {
      "anonymous": false,
      "inputs": [
        {
          "indexed": true,
          "internalType": "address",
          "name": "previousOwner",
          "type": "address"
        },
        {
          "indexed": true,
          "internalType": "address",
          "name": "newOwner",
          "type": "address"
        }
      ],
      "name": "OwnershipTransferred",
      "type": "event"
    },
    {
      "anonymous": false,
      "inputs": [
        {
          "indexed": false,
          "internalType": "address",
          "name": "signer",
          "type": "address"
        },
        {
          "indexed": false,
          "internalType": "address",
          "name": "receiver",
          "type": "address"
        },
        {
          "indexed": false,
          "internalType": "address",
          "name": "token",
          "type": "address"
        },
        {
          "indexed": false,
          "internalType": "uint256",
          "name": "amount",
          "type": "uint256"
        }
      ],
      "name": "TransferBySignature",
      "type": "event"
    },
    {
      "inputs": [],
      "name": "NAME",
      "outputs": [
        {
          "internalType": "string",
          "name": "",
          "type": "string"
        }
      ],
      "stateMutability": "view",
      "type": "function"
    },
    {
      "inputs": [],
      "name": "VERSION",
      "outputs": [
        {
          "internalType": "string",
          "name": "",
          "type": "string"
        }
      ],
      "stateMutability": "view",
      "type": "function"
    },
    {
      "inputs": [
        {
          "internalType": "address",
          "name": "token",
          "type": "address"
        }
      ],
      "name": "addFoundryAsset",
      "outputs": [],
      "stateMutability": "nonpayable",
      "type": "function"
    },
    {
      "inputs": [
        {
          "internalType": "address",
          "name": "token",
          "type": "address"
        },
        {
          "internalType": "uint256",
          "name": "amount",
          "type": "uint256"
        }
      ],
      "name": "addLiquidity",
      "outputs": [],
      "stateMutability": "nonpayable",
      "type": "function"
    },
    {
      "inputs": [
        {
          "internalType": "address",
          "name": "token",
          "type": "address"
        },
        {
          "internalType": "uint256",
          "name": "amount",
          "type": "uint256"
        }
      ],
      "name": "addLiquidityByManager",
      "outputs": [],
      "stateMutability": "nonpayable",
      "type": "function"
    },
    {
      "inputs": [
        {
          "internalType": "address",
          "name": "_signer",
          "type": "address"
        }
      ],
      "name": "addSigner",
      "outputs": [],
      "stateMutability": "nonpayable",
      "type": "function"
    },
    {
      "inputs": [],
      "name": "admin",
      "outputs": [
        {
          "internalType": "address",
          "name": "",
          "type": "address"
        }
      ],
      "stateMutability": "view",
      "type": "function"
    },
    {
      "inputs": [
        {
          "internalType": "address",
          "name": "token",
          "type": "address"
        },
        {
          "internalType": "uint256",
          "name": "chainId",
          "type": "uint256"
        },
        {
          "internalType": "address",
          "name": "targetToken",
          "type": "address"
        }
      ],
      "name": "allowTarget",
      "outputs": [],
      "stateMutability": "nonpayable",
      "type": "function"
    },
    {
      "inputs": [
        {
          "internalType": "address",
          "name": "",
          "type": "address"
        },
        {
          "internalType": "uint256",
          "name": "",
          "type": "uint256"
        }
      ],
      "name": "allowedTargets",
      "outputs": [
        {
          "internalType": "address",
          "name": "",
          "type": "address"
        }
      ],
      "stateMutability": "view",
      "type": "function"
    },
    {
      "inputs": [
        {
          "internalType": "address",
          "name": "token",
          "type": "address"
        },
        {
          "internalType": "address",
          "name": "payee",
          "type": "address"
        },
        {
          "internalType": "uint256",
          "name": "amount",
          "type": "uint256"
        },
        {
          "internalType": "bytes32",
          "name": "salt",
          "type": "bytes32"
        },
        {
          "internalType": "uint256",
          "name": "expiry",
          "type": "uint256"
        },
        {
          "internalType": "bytes",
          "name": "signature",
          "type": "bytes"
        }
      ],
      "name": "cancelFailedWithdrawSigned",
      "outputs": [],
      "stateMutability": "nonpayable",
      "type": "function"
    },
    {
      "inputs": [
        {
          "internalType": "address",
          "name": "to",
          "type": "address"
        },
        {
          "internalType": "uint256",
          "name": "amountIn",
          "type": "uint256"
        },
        {
          "internalType": "uint256",
          "name": "minAmountOut",
          "type": "uint256"
        },
        {
          "internalType": "address",
          "name": "foundryToken",
          "type": "address"
        },
        {
          "internalType": "address",
          "name": "targetToken",
          "type": "address"
        },
        {
          "internalType": "address",
          "name": "router",
          "type": "address"
        },
        {
          "internalType": "bytes",
          "name": "routerCalldata",
          "type": "bytes"
        },
        {
          "internalType": "bytes32",
          "name": "salt",
          "type": "bytes32"
        },
        {
          "internalType": "uint256",
          "name": "expiry",
          "type": "uint256"
        },
        {
          "internalType": "bytes",
          "name": "signature",
          "type": "bytes"
        }
      ],
      "name": "cancelFailedwithdrawSignedAndSwapRouter",
      "outputs": [],
      "stateMutability": "nonpayable",
      "type": "function"
    },
    {
      "inputs": [
        {
          "internalType": "address",
          "name": "token",
          "type": "address"
        },
        {
          "internalType": "uint256",
          "name": "chainId",
          "type": "uint256"
        }
      ],
      "name": "disallowTarget",
      "outputs": [],
      "stateMutability": "nonpayable",
      "type": "function"
    },
    {
      "inputs": [],
      "name": "fiberRouter",
      "outputs": [
        {
          "internalType": "address",
          "name": "",
          "type": "address"
        }
      ],
      "stateMutability": "view",
      "type": "function"
    },
    {
      "inputs": [
        {
          "internalType": "address",
          "name": "",
          "type": "address"
        }
      ],
      "name": "inventory",
      "outputs": [
        {
          "internalType": "uint256",
          "name": "",
          "type": "uint256"
        }
      ],
      "stateMutability": "view",
      "type": "function"
    },
    {
      "inputs": [
        {
          "internalType": "address",
          "name": "",
          "type": "address"
        }
      ],
      "name": "isFoundryAsset",
      "outputs": [
        {
          "internalType": "bool",
          "name": "",
          "type": "bool"
        }
      ],
      "stateMutability": "view",
      "type": "function"
    },
    {
      "inputs": [
        {
          "internalType": "address",
          "name": "token",
          "type": "address"
        },
        {
          "internalType": "address",
          "name": "liquidityAdder",
          "type": "address"
        }
      ],
      "name": "liquidity",
      "outputs": [
        {
          "internalType": "uint256",
          "name": "",
          "type": "uint256"
        }
      ],
      "stateMutability": "view",
      "type": "function"
    },
    {
      "inputs": [],
      "name": "liquidityManager",
      "outputs": [
        {
          "internalType": "address",
          "name": "",
          "type": "address"
        }
      ],
      "stateMutability": "view",
      "type": "function"
    },
    {
      "inputs": [],
      "name": "liquidityManagerBot",
      "outputs": [
        {
          "internalType": "address",
          "name": "",
          "type": "address"
        }
      ],
      "stateMutability": "view",
      "type": "function"
    },
    {
      "inputs": [],
      "name": "owner",
      "outputs": [
        {
          "internalType": "address",
          "name": "",
          "type": "address"
        }
      ],
      "stateMutability": "view",
      "type": "function"
    },
    {
      "inputs": [
        {
          "internalType": "address",
          "name": "token",
          "type": "address"
        }
      ],
      "name": "removeFoundryAsset",
      "outputs": [],
      "stateMutability": "nonpayable",
      "type": "function"
    },
    {
      "inputs": [
        {
          "internalType": "address",
          "name": "token",
          "type": "address"
        },
        {
          "internalType": "uint256",
          "name": "amount",
          "type": "uint256"
        }
      ],
      "name": "removeLiquidityByManager",
      "outputs": [
        {
          "internalType": "uint256",
          "name": "",
          "type": "uint256"
        }
      ],
      "stateMutability": "nonpayable",
      "type": "function"
    },
    {
      "inputs": [
        {
          "internalType": "address",
          "name": "token",
          "type": "address"
        },
        {
          "internalType": "uint256",
          "name": "amount",
          "type": "uint256"
        }
      ],
      "name": "removeLiquidityIfPossible",
      "outputs": [
        {
          "internalType": "uint256",
          "name": "",
          "type": "uint256"
        }
      ],
      "stateMutability": "nonpayable",
      "type": "function"
    },
    {
      "inputs": [
        {
          "internalType": "address",
          "name": "_signer",
          "type": "address"
        }
      ],
      "name": "removeSigner",
      "outputs": [],
      "stateMutability": "nonpayable",
      "type": "function"
    },
    {
      "inputs": [],
      "name": "renounceOwnership",
      "outputs": [],
      "stateMutability": "nonpayable",
      "type": "function"
    },
    {
      "inputs": [
        {
          "internalType": "address",
          "name": "_admin",
          "type": "address"
        }
      ],
      "name": "setAdmin",
      "outputs": [],
      "stateMutability": "nonpayable",
      "type": "function"
    },
    {
      "inputs": [
        {
          "internalType": "address",
          "name": "_liquidityManager",
          "type": "address"
        },
        {
          "internalType": "address",
          "name": "_liquidityManagerBot",
          "type": "address"
        }
      ],
      "name": "setLiquidityManagers",
      "outputs": [],
      "stateMutability": "nonpayable",
      "type": "function"
    },
    {
      "inputs": [
        {
          "internalType": "address",
          "name": "_fiberRouter",
          "type": "address"
        }
      ],
      "name": "setRouter",
      "outputs": [],
      "stateMutability": "nonpayable",
      "type": "function"
    },
    {
      "inputs": [
        {
          "internalType": "address",
          "name": "_settlementManager",
          "type": "address"
        }
      ],
      "name": "setSettlementManager",
      "outputs": [],
      "stateMutability": "nonpayable",
      "type": "function"
    },
    {
      "inputs": [
        {
          "internalType": "address",
          "name": "_withdrawalAddress",
          "type": "address"
        }
      ],
      "name": "setWithdrawalAddress",
      "outputs": [],
      "stateMutability": "nonpayable",
      "type": "function"
    },
    {
      "inputs": [],
      "name": "settlementManager",
      "outputs": [
        {
          "internalType": "address",
          "name": "",
          "type": "address"
        }
      ],
      "stateMutability": "view",
      "type": "function"
    },
    {
      "inputs": [
        {
          "internalType": "address",
          "name": "",
          "type": "address"
        }
      ],
      "name": "signers",
      "outputs": [
        {
          "internalType": "bool",
          "name": "",
          "type": "bool"
        }
      ],
      "stateMutability": "view",
      "type": "function"
    },
    {
      "inputs": [
        {
          "internalType": "address",
          "name": "token",
          "type": "address"
        },
        {
          "internalType": "uint256",
          "name": "amount",
          "type": "uint256"
        },
        {
          "internalType": "uint256",
          "name": "targetNetwork",
          "type": "uint256"
        },
        {
          "internalType": "address",
          "name": "targetAddress",
          "type": "address"
        }
      ],
      "name": "swapToAddress",
      "outputs": [
        {
          "internalType": "uint256",
          "name": "",
          "type": "uint256"
        }
      ],
      "stateMutability": "nonpayable",
      "type": "function"
    },
    {
      "inputs": [
        {
          "internalType": "address",
          "name": "newOwner",
          "type": "address"
        }
      ],
      "name": "transferOwnership",
      "outputs": [],
      "stateMutability": "nonpayable",
      "type": "function"
    },
    {
      "inputs": [
        {
          "internalType": "bytes32",
          "name": "",
          "type": "bytes32"
        }
      ],
      "name": "usedSalt",
      "outputs": [
        {
          "internalType": "bool",
          "name": "",
          "type": "bool"
        }
      ],
      "stateMutability": "view",
      "type": "function"
    },
    {
      "inputs": [
        {
          "internalType": "address",
          "name": "token",
          "type": "address"
        },
        {
          "internalType": "address",
          "name": "payee",
          "type": "address"
        },
        {
          "internalType": "uint256",
          "name": "amount",
          "type": "uint256"
        },
        {
          "internalType": "bytes32",
          "name": "salt",
          "type": "bytes32"
        },
        {
          "internalType": "uint256",
          "name": "expiry",
          "type": "uint256"
        },
        {
          "internalType": "bytes",
          "name": "signature",
          "type": "bytes"
        }
      ],
      "name": "withdrawSigned",
      "outputs": [
        {
          "internalType": "uint256",
          "name": "",
          "type": "uint256"
        }
      ],
      "stateMutability": "nonpayable",
      "type": "function"
    },
    {
      "inputs": [
        {
          "internalType": "address",
          "name": "to",
          "type": "address"
        },
        {
          "internalType": "uint256",
          "name": "amountIn",
          "type": "uint256"
        },
        {
          "internalType": "uint256",
          "name": "minAmountOut",
          "type": "uint256"
        },
        {
          "internalType": "address",
          "name": "foundryToken",
          "type": "address"
        },
        {
          "internalType": "address",
          "name": "targetToken",
          "type": "address"
        },
        {
          "internalType": "address",
          "name": "router",
          "type": "address"
        },
        {
          "internalType": "bytes",
          "name": "routerCalldata",
          "type": "bytes"
        },
        {
          "internalType": "bytes32",
          "name": "salt",
          "type": "bytes32"
        },
        {
          "internalType": "uint256",
          "name": "expiry",
          "type": "uint256"
        },
        {
          "internalType": "bytes",
          "name": "signature",
          "type": "bytes"
        }
      ],
      "name": "withdrawSignedAndSwapRouter",
      "outputs": [
        {
          "internalType": "uint256",
          "name": "",
          "type": "uint256"
        }
      ],
      "stateMutability": "nonpayable",
      "type": "function"
    },
    {
      "inputs": [
        {
          "internalType": "address",
          "name": "to",
          "type": "address"
        },
        {
          "internalType": "uint256",
          "name": "amountIn",
          "type": "uint256"
        },
        {
          "internalType": "uint256",
          "name": "minAmountOut",
          "type": "uint256"
        },
        {
          "internalType": "address",
          "name": "foundryToken",
          "type": "address"
        },
        {
          "internalType": "address",
          "name": "targetToken",
          "type": "address"
        },
        {
          "internalType": "address",
          "name": "router",
          "type": "address"
        },
        {
          "internalType": "bytes",
          "name": "routerCalldata",
          "type": "bytes"
        },
        {
          "internalType": "bytes32",
          "name": "salt",
          "type": "bytes32"
        },
        {
          "internalType": "uint256",
          "name": "expiry",
          "type": "uint256"
        },
        {
          "internalType": "bytes",
          "name": "signature",
          "type": "bytes"
        }
      ],
      "name": "withdrawSignedAndSwapRouterVerify",
      "outputs": [
        {
          "internalType": "bytes32",
          "name": "",
          "type": "bytes32"
        },
        {
          "internalType": "address",
          "name": "",
          "type": "address"
        }
      ],
      "stateMutability": "view",
      "type": "function"
    },
    {
      "inputs": [
        {
          "internalType": "address",
          "name": "token",
          "type": "address"
        },
        {
          "internalType": "address",
          "name": "payee",
          "type": "address"
        },
        {
          "internalType": "uint256",
          "name": "amount",
          "type": "uint256"
        },
        {
          "internalType": "bytes32",
          "name": "salt",
          "type": "bytes32"
        },
        {
          "internalType": "uint256",
          "name": "expiry",
          "type": "uint256"
        },
        {
          "internalType": "bytes",
          "name": "signature",
          "type": "bytes"
        }
      ],
      "name": "withdrawSignedVerify",
      "outputs": [
        {
          "internalType": "bytes32",
          "name": "",
          "type": "bytes32"
        },
        {
          "internalType": "address",
          "name": "",
          "type": "address"
        }
      ],
      "stateMutability": "view",
      "type": "function"
    },
    {
      "inputs": [],
      "name": "withdrawalAddress",
      "outputs": [
        {
          "internalType": "address",
          "name": "",
          "type": "address"
        }
      ],
      "stateMutability": "view",
      "type": "function"
    }
  ],
  "bytecode": "0x61012060405234801561001157600080fd5b50604080518082018252600c81526b232aa7222fa6a0a720a3a2a960a11b60208083019182528351808501855260078152660c0c0c0b8c0c0d60ca1b908201529151902060c08181527fa03408cf072d92154dd19fd8cfe404b94d1b795118dd310c162bfba3a3b7aac160e08190524660a081815286517f8b73c3c69bb8fe3d512ecc4cf759cc79239f7b179b0ffacaa9a75d522b39400f8188018190528189019690965260608101939093526080808401929092523083820152865180840390910181529190920194859052805193019290922090915261010052600080546001600160a01b031916339081178255918291907f8be0079c531659141344cd1fd0a4f28419497f9722a3daafe3b4186f6b6457e0908290a350600160025560805160a05160c05160e0516101005161366e61017460003960006129f001526000612a3f01526000612a1a0152600061299c015260006129c5015261366e6000f3fe608060405234801561001057600080fd5b506004361061023d5760003560e01c80639d5dbd2c1161013b578063dcb0f2d3116100b8578063f2117d451161007c578063f2117d45146105b5578063f2bcd022146105c8578063f2fde38b146105db578063f851a440146105ee578063ffa1ad74146106015761023d565b8063dcb0f2d314610556578063de7bfcdf14610569578063e4d195df1461057c578063e91b79bc1461058f578063eb12d61e146105a25761023d565b8063b5fd282a116100ff578063b5fd282a146104cd578063b8632d64146104ed578063c0d7865514610500578063cc7a665814610513578063d3d0c9f7146105265761023d565b80639d5dbd2c146104135780639d90d0a114610426578063a3f4df7e14610449578063b221728114610481578063b5b3b6d2146104ba5761023d565b806356688700116101c9578063736c0d5b1161018d578063736c0d5b1461038f57806378ce6969146103c2578063816c1c62146103d55780638da5cb5b146103f857806395d5cca8146104005761023d565b8063566887001461032d5780635dbdcdad146103405780636aa1354414610353578063704b6c0214610374578063715018a6146103875761023d565b806325bc62371161021057806325bc6237146102ad578063278c13fe146102c05780632839c21a146102f4578063338274381461030757806344da82711461031a5761023d565b806305088144146102425780630556df0f146102725780630e316ab71461028757806321b8092e1461029a575b600080fd5b600554610255906001600160a01b031681565b6040516001600160a01b0390911681526020015b60405180910390f35b610285610280366004612e8e565b610627565b005b610285610295366004612e8e565b6106d7565b6102856102a8366004612e8e565b61076a565b6102856102bb366004612f51565b6107bb565b6102556102ce366004612fc9565b600b6020908152600092835260408084209091529082529020546001600160a01b031681565b610285610302366004612e8e565b610a2d565b600454610255906001600160a01b031681565b610285610328366004612ff2565b610ac4565b61028561033b366004612fc9565b610bf5565b600854610255906001600160a01b031681565b610366610361366004612fc9565b610d52565b604051908152602001610269565b610285610382366004612e8e565b610f39565b610285610fbc565b6103b261039d366004612e8e565b60096020526000908152604090205460ff1681565b6040519015158152602001610269565b6103666103d0366004612f51565b611035565b6103b26103e3366004613237565b600d6020526000908152604090205460ff1681565b610255611280565b61028561040e366004612ea8565b611290565b610285610421366004612fc9565b611399565b6103b2610434366004612e8e565b600c6020526000908152604090205460ff1681565b6104746040518060400160405280600c81526020016b232aa7222fa6a0a720a3a2a960a11b81525081565b6040516102699190613310565b61036661048f366004612ea8565b6001600160a01b039182166000908152600a6020908152604080832093909416825291909152205490565b600754610255906001600160a01b031681565b6103666104db366004612e8e565b60036020526000908152604090205481565b6103666104fb36600461314b565b6114a3565b61028561050e366004612e8e565b611742565b61028561052136600461314b565b6117e9565b610539610534366004612ed1565b611adf565b604080519283526001600160a01b03909116602083015201610269565b610285610564366004612fc9565b611b8d565b61036661057736600461302d565b611c6e565b61053961058a366004613072565b611e5f565b61036661059d366004612fc9565b611f21565b6102856105b0366004612e8e565b612182565b6102856105c3366004612e8e565b612218565b600654610255906001600160a01b031681565b6102856105e9366004612e8e565b6122ac565b600154610255906001600160a01b031681565b610474604051806040016040528060078152602001660c0c0c0b8c0c0d60ca1b81525081565b33610630611280565b6001600160a01b03161461065f5760405162461bcd60e51b815260040161065690613418565b60405180910390fd5b6001600160a01b0381166106b55760405162461bcd60e51b815260206004820152601a60248201527f464d3a2042616420736574746c656d656e74206d616e616765720000000000006044820152606401610656565b600880546001600160a01b0319166001600160a01b0392909216919091179055565b336106e0611280565b6001600160a01b0316146107065760405162461bcd60e51b815260040161065690613418565b6001600160a01b0381166107495760405162461bcd60e51b815260206004820152600a6024820152692130b21039b4b3b732b960b11b6044820152606401610656565b6001600160a01b03166000908152600960205260409020805460ff19169055565b33610773611280565b6001600160a01b0316146107995760405162461bcd60e51b815260040161065690613418565b600680546001600160a01b0319166001600160a01b0392909216919091179055565b6008546001600160a01b031633146108155760405162461bcd60e51b815260206004820152601b60248201527f464d3a204f6e6c7920536574746c656d656e74204d616e6167657200000000006044820152606401610656565b6001600160a01b03861661083b5760405162461bcd60e51b8152600401610656906133a2565b6001600160a01b0385166108615760405162461bcd60e51b815260040161065690613553565b8261087e5760405162461bcd60e51b81526004016106569061352d565b8361089b5760405162461bcd60e51b815260040161065690613343565b8142106108ba5760405162461bcd60e51b81526004016106569061336b565b6108c762093a80426135b1565b82106108e55760405162461bcd60e51b8152600401610656906134a3565b60007f65ec88abe38b75940cc431ebd9d6fb3fe7530518ece929d9251993609d095bfc878787878760405160200161092296959493929190613283565b6040516020818303038152906040528051906020012090506000610946828461239b565b6001600160a01b03811660009081526009602052604090205490915060ff166109815760405162461bcd60e51b8152600401610656906133ec565b6000858152600d602052604090205460ff16156109b05760405162461bcd60e51b81526004016106569061344d565b6000858152600d602052604090819020805460ff1916600117905560085490516001600160a01b03808b16928a8216929116907f7920f0476a5a3d6e9b3aed4246e558312df4dc04642806553a405af5d684d3e290610a1b908b908b90918252602082015260400190565b60405180910390a45050505050505050565b6001546001600160a01b0316331480610a5e5750610a49611280565b6001600160a01b0316336001600160a01b0316145b610a7a5760405162461bcd60e51b81526004016106569061347c565b6001600160a01b038116610aa05760405162461bcd60e51b8152600401610656906133c9565b6001600160a01b03166000908152600c60205260409020805460ff19166001179055565b6001546001600160a01b0316331480610af55750610ae0611280565b6001600160a01b0316336001600160a01b0316145b610b115760405162461bcd60e51b81526004016106569061347c565b6001600160a01b038316610b375760405162461bcd60e51b8152600401610656906133c9565b6001600160a01b038116610b7f5760405162461bcd60e51b815260206004820152600f60248201526e2130b2103a30b933b2ba2a37b5b2b760891b6044820152606401610656565b81610bba5760405162461bcd60e51b815260206004820152600b60248201526a1098590818da185a5b925960aa1b6044820152606401610656565b6001600160a01b039283166000908152600b602090815260408083209483529390529190912080546001600160a01b03191691909216179055565b80610c125760405162461bcd60e51b8152600401610656906134cf565b6001600160a01b038216610c385760405162461bcd60e51b815260040161065690613506565b6001600160a01b0382166000908152600c602052604090205460ff161515600114610cb15760405162461bcd60e51b8152602060048201526024808201527f464d3a204f6e6c7920666f756e647279206173736574732063616e20626520616044820152631919195960e21b6064820152608401610656565b6001600160a01b0382166000908152600a6020908152604080832033845290915281208054839290610ce49084906135b1565b90915550610cf69050823330846123a8565b9050610d0182612538565b604080513381526001600160a01b03851660208201529081018290529091507fef3f81f7842dc4087d754ab30e98bb596b7345a806ff6db3c82f0c7d77b74960906060015b60405180910390a15050565b6004546000906001600160a01b0316331480610d7857506005546001600160a01b031633145b610dc45760405162461bcd60e51b815260206004820152601b60248201527f464d3a204f6e6c79206c6971756964697479206d616e616765727300000000006044820152606401610656565b81610de15760405162461bcd60e51b8152600401610656906134cf565b6001600160a01b038316610e075760405162461bcd60e51b815260040161065690613506565b6040516370a0823160e01b815230600482015282906001600160a01b038516906370a082319060240160206040518083038186803b158015610e4857600080fd5b505afa158015610e5c573d6000803e3d6000fd5b505050506040513d601f19601f82011682018060405250810190610e80919061324f565b1015610ece5760405162461bcd60e51b815260206004820152601860248201527f464d3a20496e73756666696369656e742062616c616e636500000000000000006044820152606401610656565b600654610ee69084906001600160a01b031684612648565b600654604080516001600160a01b0386811682526020820186905290921682820152517f1f25b5e6960a43be27d599c4643d7e7d7f7c5cc8d0a77ef795583b6abe4ada7d9181900360600190a150919050565b33610f42611280565b6001600160a01b031614610f685760405162461bcd60e51b815260040161065690613418565b600180546001600160a01b0319166001600160a01b0383169081179091556040519081527f8fe72c3e0020beb3234e76ae6676fa576fbfcae600af1c4fea44784cf0db329c9060200160405180910390a150565b33610fc5611280565b6001600160a01b031614610feb5760405162461bcd60e51b815260040161065690613418565b600080546040516001600160a01b03909116907f8be0079c531659141344cd1fd0a4f28419497f9722a3daafe3b4186f6b6457e0908390a3600080546001600160a01b0319169055565b6007546000906001600160a01b031633146110625760405162461bcd60e51b81526004016106569061357a565b6001600160a01b0387166110885760405162461bcd60e51b8152600401610656906133a2565b6001600160a01b0386166110ae5760405162461bcd60e51b815260040161065690613553565b836110cb5760405162461bcd60e51b81526004016106569061352d565b846110e85760405162461bcd60e51b815260040161065690613343565b8242106111075760405162461bcd60e51b81526004016106569061336b565b61111462093a80426135b1565b83106111325760405162461bcd60e51b8152600401610656906134a3565b60007f65ec88abe38b75940cc431ebd9d6fb3fe7530518ece929d9251993609d095bfc888888888860405160200161116f96959493929190613283565b6040516020818303038152906040528051906020012090506000611193828561239b565b6001600160a01b03811660009081526009602052604090205490915060ff166111ce5760405162461bcd60e51b8152600401610656906133ec565b6000868152600d602052604090205460ff16156111fd5760405162461bcd60e51b81526004016106569061344d565b6000868152600d60205260409020805460ff19166001179055611221898989612648565b604080516001600160a01b0383811682528a811660208301528b16818301526060810189905290517f20866f1bbd1aa6fdb9e631ab723d2060dcc7e4719ec6a43ecd7231557dcec8d99181900360800190a15094979650505050505050565b6000546001600160a01b03165b90565b33611299611280565b6001600160a01b0316146112bf5760405162461bcd60e51b815260040161065690613418565b6001600160a01b0382166113155760405162461bcd60e51b815260206004820152601960248201527f464d3a20426164206c6971756964697479206d616e61676572000000000000006044820152606401610656565b6001600160a01b03811661136b5760405162461bcd60e51b815260206004820152601d60248201527f464d3a20426164206c6971756964697479206d616e6167657220626f740000006044820152606401610656565b600480546001600160a01b039384166001600160a01b03199182161790915560058054929093169116179055565b6004546001600160a01b03163314806113bc57506005546001600160a01b031633145b6114085760405162461bcd60e51b815260206004820152601b60248201527f464d3a204f6e6c79206c6971756964697479206d616e616765727300000000006044820152606401610656565b806114255760405162461bcd60e51b8152600401610656906134cf565b6001600160a01b03821661144b5760405162461bcd60e51b815260040161065690613506565b611457823330846123a8565b5061146182612538565b604080516001600160a01b0385168152602081018390529192507fe2a997b821bbe7231610ff5bec588c01d5203839598bc10d13f73e1f7b65c5229101610d46565b6007546000906001600160a01b031633146114d05760405162461bcd60e51b81526004016106569061357a565b6001600160a01b0387166114f65760405162461bcd60e51b8152600401610656906133a2565b6001600160a01b03881661151c5760405162461bcd60e51b8152600401610656906133a2565b6001600160a01b038b166115425760405162461bcd60e51b815260040161065690613553565b8361155f5760405162461bcd60e51b81526004016106569061352d565b8961157c5760405162461bcd60e51b815260040161065690613343565b886115995760405162461bcd60e51b815260040161065690613343565b8242106115b85760405162461bcd60e51b81526004016106569061336b565b6115c562093a80426135b1565b83106115e35760405162461bcd60e51b8152600401610656906134a3565b60007fc371bff2ec98dcd9567bd840cae56a2231f7c54f7847716d62379b7db2a0be428c8c8c8c8c8c8c805190602001208c8c60405160200161162f9a999897969594939291906132b7565b6040516020818303038152906040528051906020012090506000611653828561239b565b6001600160a01b03811660009081526009602052604090205490915060ff1661168e5760405162461bcd60e51b8152600401610656906133ec565b6000868152600d602052604090205460ff16156116bd5760405162461bcd60e51b81526004016106569061344d565b6000868152600d60205260409020805460ff191660011790556116e18a338e612648565b604080516001600160a01b0383811682523360208301528c1681830152606081018e905290517f20866f1bbd1aa6fdb9e631ab723d2060dcc7e4719ec6a43ecd7231557dcec8d99181900360800190a150999b9a5050505050505050505050565b3361174b611280565b6001600160a01b0316146117715760405162461bcd60e51b815260040161065690613418565b6001600160a01b0381166117c75760405162461bcd60e51b815260206004820152601860248201527f464d3a206669626572526f7574657220726571756972656400000000000000006044820152606401610656565b600780546001600160a01b0319166001600160a01b0392909216919091179055565b6008546001600160a01b031633146118435760405162461bcd60e51b815260206004820152601b60248201527f464d3a204f6e6c7920536574746c656d656e74204d616e6167657200000000006044820152606401610656565b6001600160a01b0386166118695760405162461bcd60e51b8152600401610656906133a2565b6001600160a01b03871661188f5760405162461bcd60e51b8152600401610656906133a2565b6001600160a01b038a166118b55760405162461bcd60e51b815260040161065690613553565b826118d25760405162461bcd60e51b81526004016106569061352d565b886118ef5760405162461bcd60e51b815260040161065690613343565b8761190c5760405162461bcd60e51b815260040161065690613343565b81421061192b5760405162461bcd60e51b81526004016106569061336b565b61193862093a80426135b1565b82106119565760405162461bcd60e51b8152600401610656906134a3565b60007fc371bff2ec98dcd9567bd840cae56a2231f7c54f7847716d62379b7db2a0be428b8b8b8b8b8b8b805190602001208b8b6040516020016119a29a999897969594939291906132b7565b60405160208183030381529060405280519060200120905060006119c6828461239b565b6001600160a01b03811660009081526009602052604090205490915060ff16611a015760405162461bcd60e51b8152600401610656906133ec565b6000858152600d602052604090205460ff1615611a305760405162461bcd60e51b81526004016106569061344d565b6001600d600087815260200190815260200160002060006101000a81548160ff021916908315150217905550876001600160a01b03168c6001600160a01b0316600860009054906101000a90046001600160a01b03166001600160a01b03167f7920f0476a5a3d6e9b3aed4246e558312df4dc04642806553a405af5d684d3e28e89604051611ac9929190918252602082015260400190565b60405180910390a4505050505050505050505050565b60008060007f65ec88abe38b75940cc431ebd9d6fb3fe7530518ece929d9251993609d095bfc8a8a8a8a8a604051602001611b1f96959493929190613283565b604051602081830303815290604052805190602001209050600080611b7a8388888080601f0160208091040260200160405190810160405280939291908181526020018383808284376000920191909152506126f392505050565b909d909c509a5050505050505050505050565b6001546001600160a01b0316331480611bbe5750611ba9611280565b6001600160a01b0316336001600160a01b0316145b611bda5760405162461bcd60e51b81526004016106569061347c565b6001600160a01b038216611c005760405162461bcd60e51b8152600401610656906133c9565b80611c3b5760405162461bcd60e51b815260206004820152600b60248201526a1098590818da185a5b925960aa1b6044820152606401610656565b6001600160a01b039091166000908152600b602090815260408083209383529290522080546001600160a01b0319169055565b6007546000906001600160a01b03163314611c9b5760405162461bcd60e51b81526004016106569061357a565b6001600160a01b038086166000818152600b6020908152604080832088845290915290205490911690611ce05760405162461bcd60e51b8152600401610656906133a2565b83611d2d5760405162461bcd60e51b815260206004820152601d60248201527f464d3a207461726765744e6574776f726b2069732072657175726965640000006044820152606401610656565b6001600160a01b038116611d7a5760405162461bcd60e51b815260206004820152601460248201527323269d103130b2103a30b933b2ba103a37b5b2b760611b6044820152606401610656565b6001600160a01b038316611dd05760405162461bcd60e51b815260206004820152601d60248201527f464d3a20746172676574416464726573732069732072657175697265640000006044820152606401610656565b84611ded5760405162461bcd60e51b815260040161065690613343565b611df686612538565b60408051338152602081018790526001600160a01b03848116828401528681166060830152608082018490529151929750908816917f0752ea9a96cdaf45ba08b0e73e0bbecc3d4a19e96da74d1ac80edea784d4c62c9181900360a00190a25092949350505050565b60008060007fc371bff2ec98dcd9567bd840cae56a2231f7c54f7847716d62379b7db2a0be428e8e8e8e8e8e8e805190602001208e8e604051602001611eae9a999897969594939291906132b7565b604051602081830303815290604052805190602001209050600080611f098388888080601f0160208091040260200160405190810160405280939291908181526020018383808284376000920191909152506126f392505050565b90955093505050509b509b9950505050505050505050565b600081611f405760405162461bcd60e51b8152600401610656906134cf565b6001600160a01b038316611f665760405162461bcd60e51b815260040161065690613506565b6001600160a01b0383166000908152600c602052604090205460ff161515600114611fe25760405162461bcd60e51b815260206004820152602660248201527f464d3a204f6e6c7920666f756e647279206173736574732063616e2062652072604482015265195b5bdd995960d21b6064820152608401610656565b6001600160a01b0383166000908152600a60209081526040808320338452909152902054828110156120565760405162461bcd60e51b815260206004820152601860248201527f464d3a204e6f7420656e6f756768206c697175696469747900000000000000006044820152606401610656565b6040516370a0823160e01b81523060048201526000906001600160a01b038616906370a082319060240160206040518083038186803b15801561209857600080fd5b505afa1580156120ac573d6000803e3d6000fd5b505050506040513d601f19601f820116820180604052508101906120d0919061324f565b905060008482116120e157816120e3565b845b90508015612179576001600160a01b0386166000908152600a602090815260408083203384529091528120805483929061211e9084906135c9565b9091555061212f9050863383612648565b604080513381526001600160a01b03881660208201529081018690527f5204091f3aba3d16dbb7fcc090386ce24245ac12f57ae5bf9785e0ab9a79be739060600160405180910390a15b95945050505050565b3361218b611280565b6001600160a01b0316146121b15760405162461bcd60e51b815260040161065690613418565b6001600160a01b0381166121f45760405162461bcd60e51b815260206004820152600a6024820152692130b21039b4b3b732b960b11b6044820152606401610656565b6001600160a01b03166000908152600960205260409020805460ff19166001179055565b6001546001600160a01b03163314806122495750612234611280565b6001600160a01b0316336001600160a01b0316145b6122655760405162461bcd60e51b81526004016106569061347c565b6001600160a01b03811661228b5760405162461bcd60e51b8152600401610656906133c9565b6001600160a01b03166000908152600c60205260409020805460ff19169055565b336122b5611280565b6001600160a01b0316146122db5760405162461bcd60e51b815260040161065690613418565b6001600160a01b0381166123405760405162461bcd60e51b815260206004820152602660248201527f4f776e61626c653a206e6577206f776e657220697320746865207a65726f206160448201526564647265737360d01b6064820152608401610656565b600080546040516001600160a01b03808516939216917f8be0079c531659141344cd1fd0a4f28419497f9722a3daafe3b4186f6b6457e091a3600080546001600160a01b0319166001600160a01b0392909216919091179055565b60008061217984846126f3565b6040516370a0823160e01b81526001600160a01b03838116600483015260009182918716906370a082319060240160206040518083038186803b1580156123ee57600080fd5b505afa158015612402573d6000803e3d6000fd5b505050506040513d601f19601f82011682018060405250810190612426919061324f565b905061243d6001600160a01b038716868686612714565b6040516370a0823160e01b81526001600160a01b038581166004830152600091908816906370a082319060240160206040518083038186803b15801561248257600080fd5b505afa158015612496573d6000803e3d6000fd5b505050506040513d601f19601f820116820180604052508101906124ba919061324f565b90506124c682826135c9565b92508383111561252e5760405162461bcd60e51b815260206004820152602d60248201527f53413a2061637475616c20616d6f756e74206c6172676572207468616e20747260448201526c185b9cd9995c88185b5bdd5b9d609a1b6064820152608401610656565b5050949350505050565b600060028054141561258c5760405162461bcd60e51b815260206004820152601f60248201527f5265656e7472616e637947756172643a207265656e7472616e742063616c6c006044820152606401610656565b600280556001600160a01b0382166000818152600360205260408082205490516370a0823160e01b81523060048201529092906370a082319060240160206040518083038186803b1580156125e057600080fd5b505afa1580156125f4573d6000803e3d6000fd5b505050506040513d601f19601f82011682018060405250810190612618919061324f565b905061262482826135c9565b6001600160a01b039094166000908152600360205260409020555050600160025590565b60028054141561269a5760405162461bcd60e51b815260206004820152601f60248201527f5265656e7472616e637947756172643a207265656e7472616e742063616c6c006044820152606401610656565b600280556001600160a01b0383166000908152600360205260409020546126c29082906135c9565b6001600160a01b0384166000818152600360205260409020919091556126e9908383612785565b5050600160025550565b6000806126ff846127ba565b915061270b8284612810565b90509250929050565b6040516001600160a01b038085166024830152831660448201526064810182905261277f9085906323b872dd60e01b906084015b60408051601f198184030181529190526020810180516001600160e01b03166001600160e01b0319909316929092179091526128c6565b50505050565b6040516001600160a01b0383166024820152604481018290526127b590849063a9059cbb60e01b90606401612748565b505050565b60006128086127c7612998565b8360405161190160f01b6020820152602281018390526042810182905260009060620160405160208183030381529060405280519060200120905092915050565b90505b919050565b60008060008084516041141561283a5750505060208201516040830151606084015160001a6128b0565b8451604014156128685750505060408201516020830151906001600160ff1b0381169060ff1c601b016128b0565b60405162461bcd60e51b815260206004820152601f60248201527f45434453413a20696e76616c6964207369676e6174757265206c656e677468006044820152606401610656565b6128bc86828585612a8f565b9695505050505050565b600061291b826040518060400160405280602081526020017f5361666545524332303a206c6f772d6c6576656c2063616c6c206661696c6564815250856001600160a01b0316612c2f9092919063ffffffff16565b8051909150156127b557808060200190518101906129399190613217565b6127b55760405162461bcd60e51b815260206004820152602a60248201527f5361666545524332303a204552433230206f7065726174696f6e20646964206e6044820152691bdd081cdd58d8d9595960b21b6064820152608401610656565b60007f00000000000000000000000000000000000000000000000000000000000000004614156129e957507f000000000000000000000000000000000000000000000000000000000000000061128d565b50604080517f00000000000000000000000000000000000000000000000000000000000000006020808301919091527f0000000000000000000000000000000000000000000000000000000000000000828401527f000000000000000000000000000000000000000000000000000000000000000060608301524660808301523060a0808401919091528351808403909101815260c0909201909252805191012061128d565b60007f7fffffffffffffffffffffffffffffff5d576e7357a4501ddfe92f46681b20a0821115612b0c5760405162461bcd60e51b815260206004820152602260248201527f45434453413a20696e76616c6964207369676e6174757265202773272076616c604482015261756560f01b6064820152608401610656565b8360ff16601b1480612b2157508360ff16601c145b612b785760405162461bcd60e51b815260206004820152602260248201527f45434453413a20696e76616c6964207369676e6174757265202776272076616c604482015261756560f01b6064820152608401610656565b6040805160008082526020820180845288905260ff871692820192909252606081018590526080810184905260019060a0016020604051602081039080840390855afa158015612bcc573d6000803e3d6000fd5b5050604051601f1901519150506001600160a01b0381166121795760405162461bcd60e51b815260206004820152601860248201527f45434453413a20696e76616c6964207369676e617475726500000000000000006044820152606401610656565b6060612c3e8484600085612c48565b90505b9392505050565b606082471015612ca95760405162461bcd60e51b815260206004820152602660248201527f416464726573733a20696e73756666696369656e742062616c616e636520666f6044820152651c8818d85b1b60d21b6064820152608401610656565b843b612cf75760405162461bcd60e51b815260206004820152601d60248201527f416464726573733a2063616c6c20746f206e6f6e2d636f6e74726163740000006044820152606401610656565b600080866001600160a01b03168587604051612d139190613267565b60006040518083038185875af1925050503d8060008114612d50576040519150601f19603f3d011682016040523d82523d6000602084013e612d55565b606091505b5091509150612d65828286612d70565b979650505050505050565b60608315612d7f575081612c41565b825115612d8f5782518084602001fd5b8160405162461bcd60e51b81526004016106569190613310565b80356001600160a01b038116811461280b57600080fd5b60008083601f840112612dd1578182fd5b50813567ffffffffffffffff811115612de8578182fd5b602083019150836020828501011115612e0057600080fd5b9250929050565b600082601f830112612e17578081fd5b813567ffffffffffffffff80821115612e3257612e32613622565b604051601f8301601f19908116603f01168101908282118183101715612e5a57612e5a613622565b81604052838152866020858801011115612e72578485fd5b8360208701602083013792830160200193909352509392505050565b600060208284031215612e9f578081fd5b612c4182612da9565b60008060408385031215612eba578081fd5b612ec383612da9565b915061270b60208401612da9565b600080600080600080600060c0888a031215612eeb578283fd5b612ef488612da9565b9650612f0260208901612da9565b955060408801359450606088013593506080880135925060a088013567ffffffffffffffff811115612f32578283fd5b612f3e8a828b01612dc0565b989b979a50959850939692959293505050565b60008060008060008060c08789031215612f69578182fd5b612f7287612da9565b9550612f8060208801612da9565b945060408701359350606087013592506080870135915060a087013567ffffffffffffffff811115612fb0578182fd5b612fbc89828a01612e07565b9150509295509295509295565b60008060408385031215612fdb578182fd5b612fe483612da9565b946020939093013593505050565b600080600060608486031215613006578283fd5b61300f84612da9565b92506020840135915061302460408501612da9565b90509250925092565b60008060008060808587031215613042578384fd5b61304b85612da9565b9350602085013592506040850135915061306760608601612da9565b905092959194509250565b60008060008060008060008060008060006101408c8e031215613093578384fd5b61309c8c612da9565b9a5060208c0135995060408c013598506130b860608d01612da9565b97506130c660808d01612da9565b96506130d460a08d01612da9565b955067ffffffffffffffff8060c08e013511156130ef578485fd5b6130ff8e60c08f01358f01612e07565b955060e08d013594506101008d01359350806101208e01351115613121578283fd5b506131338d6101208e01358e01612dc0565b81935080925050509295989b509295989b9093969950565b6000806000806000806000806000806101408b8d03121561316a578384fd5b6131738b612da9565b995060208b0135985060408b0135975061318f60608c01612da9565b965061319d60808c01612da9565b95506131ab60a08c01612da9565b945060c08b013567ffffffffffffffff808211156131c7578586fd5b6131d38e838f01612e07565b955060e08d013594506101008d013593506101208d01359150808211156131f8578283fd5b506132058d828e01612e07565b9150509295989b9194979a5092959850565b600060208284031215613228578081fd5b81518015158114612c41578182fd5b600060208284031215613248578081fd5b5035919050565b600060208284031215613260578081fd5b5051919050565b600082516132798184602087016135e0565b9190910192915050565b9586526001600160a01b0394851660208701529290931660408501526060840152608083019190915260a082015260c00190565b998a526001600160a01b0398891660208b015260408a01979097526060890195909552928616608088015290851660a087015290931660c085015260e08401929092526101008301919091526101208201526101400190565b600060208252825180602084015261332f8160408501602087016135e0565b601f01601f19169190910160400192915050565b6020808252600e908201526d11934e8818985908185b5bdd5b9d60921b604082015260600190565b60208082526017908201527f464d3a207369676e61747572652074696d6564206f7574000000000000000000604082015260600190565b6020808252600d908201526c23269d103130b2103a37b5b2b760991b604082015260600190565b6020808252600990820152682130b2103a37b5b2b760b91b604082015260600190565b60208082526012908201527123269d1024b73b30b634b21039b4b3b732b960711b604082015260600190565b6020808252818101527f4f776e61626c653a2063616c6c6572206973206e6f7420746865206f776e6572604082015260600190565b60208082526015908201527411934e881cd85b1d08185b1c9958591e481d5cd959605a1b604082015260600190565b6020808252600d908201526c2ba09d103737ba1030b236b4b760991b604082015260600190565b60208082526012908201527123269d1032bc3834b93c903a37b7903330b960711b604082015260600190565b6020808252601b908201527f464d3a20416d6f756e74206d75737420626520706f7369746976650000000000604082015260600190565b6020808252600d908201526c23269d102130b2103a37b5b2b760991b604082015260600190565b6020808252600c908201526b11934e88189859081cd85b1d60a21b604082015260600190565b6020808252600d908201526c464d3a2062616420706179656560981b604082015260600190565b6020808252601b908201527f464d3a204f6e6c79206669626572526f75746572206d6574686f640000000000604082015260600190565b600082198211156135c4576135c461360c565b500190565b6000828210156135db576135db61360c565b500390565b60005b838110156135fb5781810151838201526020016135e3565b8381111561277f5750506000910152565b634e487b7160e01b600052601160045260246000fd5b634e487b7160e01b600052604160045260246000fdfea2646970667358221220281ffc75382e77a4bf92c7146052d1b1435dabce4af998581fac706c5932779764736f6c63430008020033",
  "linkReferences": {},
  "deployedLinkReferences": {}
}