{
  "_format": "hh-sol-artifact-1",
  "contractName": "FundManager",
  "sourceName": "contracts/upgradeable-Bridge/FundManager.sol",
  "abi": [
    {
      "anonymous": false,
      "inputs": [
        {
          "indexed": false,
          "internalType": "address",
          "name": "admin",
          "type": "address"
        }
      ],
      "name": "AdminSet",
      "type": "event"
    },
    {
      "anonymous": false,
      "inputs": [
        {
          "indexed": false,
          "internalType": "address",
          "name": "actor",
          "type": "address"
        },
        {
          "indexed": false,
          "internalType": "address",
          "name": "token",
          "type": "address"
        },
        {
          "indexed": false,
          "internalType": "uint256",
          "name": "amount",
          "type": "uint256"
        }
      ],
      "name": "BridgeLiquidityAdded",
      "type": "event"
    },
    {
      "anonymous": false,
      "inputs": [
        {
          "indexed": false,
          "internalType": "address",
          "name": "actor",
          "type": "address"
        },
        {
          "indexed": false,
          "internalType": "address",
          "name": "token",
          "type": "address"
        },
        {
          "indexed": false,
          "internalType": "uint256",
          "name": "amount",
          "type": "uint256"
        }
      ],
      "name": "BridgeLiquidityRemoved",
      "type": "event"
    },
    {
      "anonymous": false,
      "inputs": [
        {
          "indexed": false,
          "internalType": "address",
          "name": "from",
          "type": "address"
        },
        {
          "indexed": true,
          "internalType": "address",
          "name": "token",
          "type": "address"
        },
        {
          "indexed": false,
          "internalType": "uint256",
          "name": "targetNetwork",
          "type": "uint256"
        },
        {
          "indexed": false,
          "internalType": "address",
          "name": "targetToken",
          "type": "address"
        },
        {
          "indexed": false,
          "internalType": "address",
          "name": "targetAddrdess",
          "type": "address"
        },
        {
          "indexed": false,
          "internalType": "uint256",
          "name": "amount",
          "type": "uint256"
        }
      ],
      "name": "BridgeSwap",
      "type": "event"
    },
    {
      "anonymous": false,
      "inputs": [
        {
          "indexed": false,
          "internalType": "uint8",
          "name": "version",
          "type": "uint8"
        }
      ],
      "name": "Initialized",
      "type": "event"
    },
    {
      "anonymous": false,
      "inputs": [
        {
          "indexed": true,
          "internalType": "address",
          "name": "previousOwner",
          "type": "address"
        },
        {
          "indexed": true,
          "internalType": "address",
          "name": "newOwner",
          "type": "address"
        }
      ],
      "name": "OwnershipTransferred",
      "type": "event"
    },
    {
      "anonymous": false,
      "inputs": [
        {
          "indexed": false,
          "internalType": "address",
          "name": "signer",
          "type": "address"
        },
        {
          "indexed": false,
          "internalType": "address",
          "name": "receiver",
          "type": "address"
        },
        {
          "indexed": false,
          "internalType": "address",
          "name": "token",
          "type": "address"
        },
        {
          "indexed": false,
          "internalType": "uint256",
          "name": "amount",
          "type": "uint256"
        },
        {
          "indexed": false,
          "internalType": "uint256",
          "name": "fee",
          "type": "uint256"
        }
      ],
      "name": "TransferBySignature",
      "type": "event"
    },
    {
      "anonymous": false,
      "inputs": [
        {
          "indexed": false,
          "internalType": "address",
          "name": "from",
          "type": "address"
        },
        {
          "indexed": true,
          "internalType": "address",
          "name": "token",
          "type": "address"
        },
        {
          "indexed": false,
          "internalType": "string",
          "name": "targetNetwork",
          "type": "string"
        },
        {
          "indexed": false,
          "internalType": "string",
          "name": "targetToken",
          "type": "string"
        },
        {
          "indexed": false,
          "internalType": "string",
          "name": "targetAddrdess",
          "type": "string"
        },
        {
          "indexed": false,
          "internalType": "uint256",
          "name": "amount",
          "type": "uint256"
        }
      ],
      "name": "nonEvmBridgeSwap",
      "type": "event"
    },
    {
      "inputs": [
        {
          "internalType": "address",
          "name": "token",
          "type": "address"
        }
      ],
      "name": "addFoundryAsset",
      "outputs": [],
      "stateMutability": "nonpayable",
      "type": "function"
    },
    {
      "inputs": [
        {
          "internalType": "address",
          "name": "token",
          "type": "address"
        },
        {
          "internalType": "uint256",
          "name": "amount",
          "type": "uint256"
        }
      ],
      "name": "addLiquidity",
      "outputs": [],
      "stateMutability": "nonpayable",
      "type": "function"
    },
    {
      "inputs": [
        {
          "internalType": "address",
          "name": "_signer",
          "type": "address"
        }
      ],
      "name": "addSigner",
      "outputs": [],
      "stateMutability": "nonpayable",
      "type": "function"
    },
    {
      "inputs": [],
      "name": "admin",
      "outputs": [
        {
          "internalType": "address",
          "name": "",
          "type": "address"
        }
      ],
      "stateMutability": "view",
      "type": "function"
    },
    {
      "inputs": [
        {
          "internalType": "address",
          "name": "token",
          "type": "address"
        },
        {
          "internalType": "uint256",
          "name": "chainId",
          "type": "uint256"
        },
        {
          "internalType": "address",
          "name": "targetToken",
          "type": "address"
        }
      ],
      "name": "allowTarget",
      "outputs": [],
      "stateMutability": "nonpayable",
      "type": "function"
    },
    {
      "inputs": [
        {
          "internalType": "address",
          "name": "",
          "type": "address"
        },
        {
          "internalType": "uint256",
          "name": "",
          "type": "uint256"
        }
      ],
      "name": "allowedTargets",
      "outputs": [
        {
          "internalType": "address",
          "name": "",
          "type": "address"
        }
      ],
      "stateMutability": "view",
      "type": "function"
    },
    {
      "inputs": [
        {
          "internalType": "address",
          "name": "token",
          "type": "address"
        },
        {
          "internalType": "uint256",
          "name": "chainId",
          "type": "uint256"
        }
      ],
      "name": "disallowTarget",
      "outputs": [],
      "stateMutability": "nonpayable",
      "type": "function"
    },
    {
      "inputs": [],
      "name": "feeDistributor",
      "outputs": [
        {
          "internalType": "address",
          "name": "",
          "type": "address"
        }
      ],
      "stateMutability": "view",
      "type": "function"
    },
    {
      "inputs": [
        {
          "internalType": "address",
          "name": "",
          "type": "address"
        }
      ],
      "name": "fees",
      "outputs": [
        {
          "internalType": "uint256",
          "name": "",
          "type": "uint256"
        }
      ],
      "stateMutability": "view",
      "type": "function"
    },
    {
      "inputs": [],
      "name": "initialize",
      "outputs": [],
      "stateMutability": "nonpayable",
      "type": "function"
    },
    {
      "inputs": [
        {
          "internalType": "address",
          "name": "",
          "type": "address"
        }
      ],
      "name": "isFoundryAsset",
      "outputs": [
        {
          "internalType": "bool",
          "name": "",
          "type": "bool"
        }
      ],
      "stateMutability": "view",
      "type": "function"
    },
    {
      "inputs": [
        {
          "internalType": "address",
          "name": "token",
          "type": "address"
        },
        {
          "internalType": "address",
          "name": "liquidityAdder",
          "type": "address"
        }
      ],
      "name": "liquidity",
      "outputs": [
        {
          "internalType": "uint256",
          "name": "",
          "type": "uint256"
        }
      ],
      "stateMutability": "view",
      "type": "function"
    },
    {
      "inputs": [
        {
          "internalType": "address",
          "name": "token",
          "type": "address"
        },
        {
          "internalType": "string",
          "name": "chainId",
          "type": "string"
        },
        {
          "internalType": "string",
          "name": "targetToken",
          "type": "string"
        }
      ],
      "name": "nonEvmAllowTarget",
      "outputs": [],
      "stateMutability": "nonpayable",
      "type": "function"
    },
    {
      "inputs": [
        {
          "internalType": "address",
          "name": "",
          "type": "address"
        },
        {
          "internalType": "string",
          "name": "",
          "type": "string"
        }
      ],
      "name": "nonEvmAllowedTargets",
      "outputs": [
        {
          "internalType": "string",
          "name": "",
          "type": "string"
        }
      ],
      "stateMutability": "view",
      "type": "function"
    },
    {
      "inputs": [
        {
          "internalType": "address",
          "name": "token",
          "type": "address"
        },
        {
          "internalType": "string",
          "name": "chainId",
          "type": "string"
        }
      ],
      "name": "nonEvmDisallowTarget",
      "outputs": [],
      "stateMutability": "nonpayable",
      "type": "function"
    },
    {
      "inputs": [
        {
          "internalType": "address",
          "name": "token",
          "type": "address"
        },
        {
          "internalType": "uint256",
          "name": "amount",
          "type": "uint256"
        },
        {
          "internalType": "string",
          "name": "targetNetwork",
          "type": "string"
        },
        {
          "internalType": "string",
          "name": "targetToken",
          "type": "string"
        },
        {
          "internalType": "string",
          "name": "targetAddress",
          "type": "string"
        }
      ],
      "name": "nonEvmSwapToAddress",
      "outputs": [
        {
          "internalType": "uint256",
          "name": "",
          "type": "uint256"
        }
      ],
      "stateMutability": "nonpayable",
      "type": "function"
    },
    {
      "inputs": [],
      "name": "owner",
      "outputs": [
        {
          "internalType": "address",
          "name": "",
          "type": "address"
        }
      ],
      "stateMutability": "view",
      "type": "function"
    },
    {
      "inputs": [
        {
          "internalType": "address",
          "name": "token",
          "type": "address"
        }
      ],
      "name": "removeFoundryAsset",
      "outputs": [],
      "stateMutability": "nonpayable",
      "type": "function"
    },
    {
      "inputs": [
        {
          "internalType": "address",
          "name": "token",
          "type": "address"
        },
        {
          "internalType": "uint256",
          "name": "amount",
          "type": "uint256"
        }
      ],
      "name": "removeLiquidityIfPossible",
      "outputs": [
        {
          "internalType": "uint256",
          "name": "",
          "type": "uint256"
        }
      ],
      "stateMutability": "nonpayable",
      "type": "function"
    },
    {
      "inputs": [
        {
          "internalType": "address",
          "name": "_signer",
          "type": "address"
        }
      ],
      "name": "removeSigner",
      "outputs": [],
      "stateMutability": "nonpayable",
      "type": "function"
    },
    {
      "inputs": [],
      "name": "renounceOwnership",
      "outputs": [],
      "stateMutability": "nonpayable",
      "type": "function"
    },
    {
      "inputs": [],
      "name": "router",
      "outputs": [
        {
          "internalType": "address",
          "name": "",
          "type": "address"
        }
      ],
      "stateMutability": "view",
      "type": "function"
    },
    {
      "inputs": [
        {
          "internalType": "address",
          "name": "_admin",
          "type": "address"
        }
      ],
      "name": "setAdmin",
      "outputs": [],
      "stateMutability": "nonpayable",
      "type": "function"
    },
    {
      "inputs": [
        {
          "internalType": "address",
          "name": "token",
          "type": "address"
        },
        {
          "internalType": "uint256",
          "name": "fee10000",
          "type": "uint256"
        }
      ],
      "name": "setFee",
      "outputs": [],
      "stateMutability": "nonpayable",
      "type": "function"
    },
    {
      "inputs": [
        {
          "internalType": "address",
          "name": "_feeDistributor",
          "type": "address"
        }
      ],
      "name": "setFeeDistributor",
      "outputs": [],
      "stateMutability": "nonpayable",
      "type": "function"
    },
    {
      "inputs": [
        {
          "internalType": "address",
          "name": "_router",
          "type": "address"
        }
      ],
      "name": "setRouter",
      "outputs": [],
      "stateMutability": "nonpayable",
      "type": "function"
    },
    {
      "inputs": [
        {
          "internalType": "address",
          "name": "",
          "type": "address"
        }
      ],
      "name": "signers",
      "outputs": [
        {
          "internalType": "bool",
          "name": "",
          "type": "bool"
        }
      ],
      "stateMutability": "view",
      "type": "function"
    },
    {
      "inputs": [
        {
          "internalType": "address",
          "name": "token",
          "type": "address"
        },
        {
          "internalType": "uint256",
          "name": "amount",
          "type": "uint256"
        },
        {
          "internalType": "uint256",
          "name": "targetNetwork",
          "type": "uint256"
        },
        {
          "internalType": "address",
          "name": "targetToken",
          "type": "address"
        }
      ],
      "name": "swap",
      "outputs": [
        {
          "internalType": "uint256",
          "name": "",
          "type": "uint256"
        }
      ],
      "stateMutability": "nonpayable",
      "type": "function"
    },
    {
      "inputs": [
        {
          "internalType": "address",
          "name": "token",
          "type": "address"
        },
        {
          "internalType": "uint256",
          "name": "amount",
          "type": "uint256"
        },
        {
          "internalType": "uint256",
          "name": "targetNetwork",
          "type": "uint256"
        },
        {
          "internalType": "address",
          "name": "targetToken",
          "type": "address"
        },
        {
          "internalType": "address",
          "name": "targetAddress",
          "type": "address"
        }
      ],
      "name": "swapToAddress",
      "outputs": [
        {
          "internalType": "uint256",
          "name": "",
          "type": "uint256"
        }
      ],
      "stateMutability": "nonpayable",
      "type": "function"
    },
    {
      "inputs": [
        {
          "internalType": "address",
          "name": "newOwner",
          "type": "address"
        }
      ],
      "name": "transferOwnership",
      "outputs": [],
      "stateMutability": "nonpayable",
      "type": "function"
    },
    {
      "inputs": [
        {
          "internalType": "bytes32",
          "name": "",
          "type": "bytes32"
        }
      ],
      "name": "usedHashes",
      "outputs": [
        {
          "internalType": "bool",
          "name": "",
          "type": "bool"
        }
      ],
      "stateMutability": "view",
      "type": "function"
    },
    {
      "inputs": [
        {
          "internalType": "address",
          "name": "token",
          "type": "address"
        },
        {
          "internalType": "address",
          "name": "payee",
          "type": "address"
        },
        {
          "internalType": "uint256",
          "name": "amount",
          "type": "uint256"
        }
      ],
      "name": "withdraw",
      "outputs": [
        {
          "internalType": "uint256",
          "name": "",
          "type": "uint256"
        }
      ],
      "stateMutability": "nonpayable",
      "type": "function"
    },
    {
      "inputs": [
        {
          "internalType": "address",
          "name": "token",
          "type": "address"
        },
        {
          "internalType": "address",
          "name": "payee",
          "type": "address"
        },
        {
          "internalType": "uint256",
          "name": "amount",
          "type": "uint256"
        },
        {
          "internalType": "bytes32",
          "name": "salt",
          "type": "bytes32"
        },
        {
          "internalType": "bytes",
          "name": "signature",
          "type": "bytes"
        }
      ],
      "name": "withdrawSigned",
      "outputs": [
        {
          "internalType": "uint256",
          "name": "",
          "type": "uint256"
        }
      ],
      "stateMutability": "nonpayable",
      "type": "function"
    },
    {
      "inputs": [
        {
          "internalType": "address",
          "name": "token",
          "type": "address"
        },
        {
          "internalType": "address",
          "name": "payee",
          "type": "address"
        },
        {
          "internalType": "uint256",
          "name": "amount",
          "type": "uint256"
        },
        {
          "internalType": "bytes32",
          "name": "salt",
          "type": "bytes32"
        },
        {
          "internalType": "bytes",
          "name": "signature",
          "type": "bytes"
        }
      ],
      "name": "withdrawSignedVerify",
      "outputs": [
        {
          "internalType": "bytes32",
          "name": "",
          "type": "bytes32"
        },
        {
          "internalType": "address",
          "name": "",
          "type": "address"
        }
      ],
      "stateMutability": "view",
      "type": "function"
    }
  ],
  "bytecode": "0x608060405234801561001057600080fd5b5061325c806100206000396000f3fe608060405234801561001057600080fd5b50600436106102065760003560e01c8063aef18bf71161011a578063e91b79bc116100ad578063f2fde38b1161007c578063f2fde38b146104f8578063f3e6ea8a1461050b578063f851a4401461051e578063f887ea4014610531578063faaebd211461054457610206565b8063e91b79bc146104ac578063eb12d61e146104bf578063ef850c8c146104d2578063f2117d45146104e557610206565b8063d9caed12116100e9578063d9caed1214610460578063dcb0f2d314610473578063dd2a92ca14610486578063e55156b51461049957610206565b8063aef18bf7146103de578063b221728114610401578063c0d786551461043a578063ccfc2e8d1461044d57610206565b8063715018a61161019d5780638da5cb5b1161016c5780638da5cb5b146103475780639a611e69146103585780639d90d0a114610378578063aa36acfb1461039b578063ad934283146103cb57610206565b8063715018a6146102f1578063736c0d5b146102f95780638129fc1c1461032c5780638d6e92911461033457610206565b806344da8271116101d957806344da82711461029757806352f9567d146102aa57806356688700146102cb578063704b6c02146102de57610206565b80630d43e8ad1461020b5780630e316ab71461023b578063278c13fe146102505780632839c21a14610284575b600080fd5b60a15461021e906001600160a01b031681565b6040516001600160a01b0390911681526020015b60405180910390f35b61024e610249366004612a7e565b610564565b005b61021e61025e366004612cdd565b609f6020908152600092835260408084209091529082529020546001600160a01b031681565b61024e610292366004612a7e565b6105d5565b61024e6102a5366004612d06565b61065e565b6102bd6102b8366004612e18565b610781565b604051908152602001610232565b61024e6102d9366004612cdd565b61082a565b61024e6102ec366004612a7e565b6109ae565b61024e610a0b565b61031c610307366004612a7e565b609c6020526000908152604090205460ff1681565b6040519015158152602001610232565b61024e610a1f565b6102bd610342366004612b9d565b610b91565b6068546001600160a01b031661021e565b61036b610366366004612c20565b610e78565b6040516102329190612ffe565b61031c610386366004612a7e565b60a26020526000908152604090205460ff1681565b6103ae6103a9366004612afc565b610f2e565b604080519283526001600160a01b03909116602083015201610232565b6102bd6103d9366004612d41565b610f96565b61031c6103ec366004612e8e565b60356020526000908152604090205460ff1681565b6102bd61040f366004612a98565b6001600160a01b039182166000908152609d6020908152604080832093909416825291909152205490565b61024e610448366004612a7e565b610fd1565b61024e61045b366004612a7e565b611047565b6102bd61046e366004612ac1565b6110bc565b61024e610481366004612cdd565b6112dc565b61024e610494366004612c20565b6113af565b61024e6104a7366004612cdd565b611459565b6102bd6104ba366004612cdd565b61151c565b61024e6104cd366004612a7e565b6117be565b61024e6104e0366004612c6c565b61182d565b61024e6104f3366004612a7e565b6118e3565b61024e610506366004612a7e565b611969565b6102bd610519366004612dd3565b6119df565b609a5461021e906001600160a01b031681565b609b5461021e906001600160a01b031681565b6102bd610552366004612a7e565b609e6020526000908152604090205481565b61056c611a25565b6001600160a01b0381166105b45760405162461bcd60e51b815260206004820152600a6024820152692130b21039b4b3b732b960b11b60448201526064015b60405180910390fd5b6001600160a01b03166000908152609c60205260409020805460ff19169055565b609a546001600160a01b03163314806105f857506068546001600160a01b031633145b6106145760405162461bcd60e51b81526004016105ab9061305c565b6001600160a01b03811661063a5760405162461bcd60e51b81526004016105ab90613039565b6001600160a01b0316600090815260a260205260409020805460ff19166001179055565b609a546001600160a01b031633148061068157506068546001600160a01b031633145b61069d5760405162461bcd60e51b81526004016105ab9061305c565b6001600160a01b0383166106c35760405162461bcd60e51b81526004016105ab90613039565b6001600160a01b03811661070b5760405162461bcd60e51b815260206004820152600f60248201526e2130b2103a30b933b2ba2a37b5b2b760891b60448201526064016105ab565b816107465760405162461bcd60e51b815260206004820152600b60248201526a1098590818da185a5b925960aa1b60448201526064016105ab565b6001600160a01b039283166000908152609f602090815260408083209483529390529190912080546001600160a01b03191691909216179055565b609b546000906001600160a01b031633146107ae5760405162461bcd60e51b81526004016105ab906130aa565b6001600160a01b0382166108125760405162461bcd60e51b815260206004820152602560248201527f427269646765506f6f6c3a2074617267657441646472657373206973207265716044820152641d5a5c995960da1b60648201526084016105ab565b610820338787878787611a7f565b9695505050505050565b806108715760405162461bcd60e51b8152602060048201526017602482015276416d6f756e74206d75737420626520706f73697469766560481b60448201526064016105ab565b6001600160a01b0382166108975760405162461bcd60e51b81526004016105ab90613039565b6001600160a01b038216600090815260a2602052604090205460ff1615156001146109045760405162461bcd60e51b815260206004820181905260248201527f4f6e6c7920666f756e647279206173736574732063616e20626520616464656460448201526064016105ab565b61091082333084611c8f565b6001600160a01b0383166000908152609d60209081526040808320338452909152902054909150610942908290613125565b6001600160a01b0383166000818152609d6020908152604080832033808552908352928190209490945583519182528101919091529081018290527fef3f81f7842dc4087d754ab30e98bb596b7345a806ff6db3c82f0c7d77b749609060600160405180910390a15050565b6109b6611a25565b609a80546001600160a01b0319166001600160a01b0383169081179091556040519081527f8fe72c3e0020beb3234e76ae6676fa576fbfcae600af1c4fea44784cf0db329c906020015b60405180910390a150565b610a13611a25565b610a1d6000611e1f565b565b600054610100900460ff1615808015610a3f5750600054600160ff909116105b80610a605750610a4e30611e71565b158015610a60575060005460ff166001145b610ac35760405162461bcd60e51b815260206004820152602e60248201527f496e697469616c697a61626c653a20636f6e747261637420697320616c72656160448201526d191e481a5b9a5d1a585b1a5e995960921b60648201526084016105ab565b6000805460ff191660011790558015610ae6576000805461ff0019166101001790555b610b446040518060400160405280601881526020017f46455252554d5f544f4b454e5f4252494447455f504f4f4c0000000000000000815250604051806040016040528060078152602001660c0c0c0b8c0c0d60ca1b815250611e84565b610b4c611eb5565b8015610b8e576000805461ff0019169055604051600181527f7f26b83ff96e1f2b6a682f133852f6798a09c465da95921460cefb384740249890602001610a00565b50565b609b546000906001600160a01b03163314610bbe5760405162461bcd60e51b81526004016105ab906130aa565b6001600160a01b038616610be45760405162461bcd60e51b81526004016105ab90613083565b6001600160a01b038516610c2a5760405162461bcd60e51b815260206004820152600d60248201526c42503a2062616420706179656560981b60448201526064016105ab565b82610c665760405162461bcd60e51b815260206004820152600c60248201526b10940e88189859081cd85b1d60a21b60448201526064016105ab565b83610c835760405162461bcd60e51b81526004016105ab90613011565b6000610c9187878787611ee4565b90506000610c9f8285611f54565b9050610caa81611fdc565b6001600160a01b0381166000908152609c602052604090205460ff16610d125760405162461bcd60e51b815260206004820152601a60248201527f427269646765506f6f6c3a20496e76616c6964207369676e657200000000000060448201526064016105ab565b60a1546000906001600160a01b03168015610dfd576001600160a01b038a166000908152609e602052604090205461271090610d4e908a61315d565b610d58919061313d565b9150610d64828961317c565b97508115610dfd57610d806001600160a01b038b168284612024565b6040516307ac097560e41b81526001600160a01b038b81166004830152821690637ac0975090602401602060405180830381600087803b158015610dc357600080fd5b505af1158015610dd7573d6000803e3d6000fd5b505050506040513d601f19601f82011682018060405250810190610dfb9190612ea6565b505b610e116001600160a01b038b168a8a612024565b604080516001600160a01b0385811682528b811660208301528c1681830152606081018a90526080810184905290517fc9fbf9f295770004fd3f75553aff7c914cfda0e68ae990146b01fcfa48a276359181900360a00190a1509598975050505050505050565b60a0602090815260009283526040909220815180830184018051928152908401929093019190912091528054610ead906131bf565b80601f0160208091040260200160405190810160405280929190818152602001828054610ed9906131bf565b8015610f265780601f10610efb57610100808354040283529160200191610f26565b820191906000526020600020905b815481529060010190602001808311610f0957829003601f168201915b505050505081565b6000806000610f3f89898989611ee4565b9050600080610f848388888080601f01602080910402602001604051908101604052809392919081815260200183838082843760009201919091525061208c92505050565b909c909b509950505050505050505050565b609b546000906001600160a01b03163314610fc35760405162461bcd60e51b81526004016105ab906130aa565b6108203387878787876120ad565b610fd9611a25565b6001600160a01b0381166110255760405162461bcd60e51b815260206004820152601360248201527210940e881c9bdd5d195c881c995c5d5c9a5959606a1b60448201526064016105ab565b609b80546001600160a01b0319166001600160a01b0392909216919091179055565b61104f611a25565b6001600160a01b03811661109a5760405162461bcd60e51b81526020600482015260126024820152712130b2102332b2a234b9ba3934b13aba37b960711b60448201526064016105ab565b60a180546001600160a01b0319166001600160a01b0392909216919091179055565b609b546000906001600160a01b031633146110e95760405162461bcd60e51b81526004016105ab906130aa565b6001600160a01b03841661110f5760405162461bcd60e51b81526004016105ab90613083565b6001600160a01b0383166111555760405162461bcd60e51b815260206004820152600d60248201526c42503a2062616420706179656560981b60448201526064016105ab565b816111725760405162461bcd60e51b81526004016105ab90613011565b6001600160a01b038416600090815260a2602052604090205460ff1615156001146111df5760405162461bcd60e51b815260206004820152601a60248201527f746f6b656e206973206e6f7420666f756e64727920617373657400000000000060448201526064016105ab565b6040516370a0823160e01b81523060048201526000906001600160a01b038616906370a082319060240160206040518083038186803b15801561122157600080fd5b505afa158015611235573d6000803e3d6000fd5b505050506040513d601f19601f820116820180604052508101906112599190612ea6565b9050828110156112bf5760405162461bcd60e51b815260206004820152602b60248201527f696e73756666696369656e7420666f756e647279206173736574206c6971756960448201526a191a5d1e48185b5bdd5b9d60aa1b60648201526084016105ab565b6112d36001600160a01b0386168585612024565b50909392505050565b609a546001600160a01b03163314806112ff57506068546001600160a01b031633145b61131b5760405162461bcd60e51b81526004016105ab9061305c565b6001600160a01b0382166113415760405162461bcd60e51b81526004016105ab90613039565b8061137c5760405162461bcd60e51b815260206004820152600b60248201526a1098590818da185a5b925960aa1b60448201526064016105ab565b6001600160a01b039091166000908152609f602090815260408083209383529290522080546001600160a01b0319169055565b609a546001600160a01b03163314806113d257506068546001600160a01b031633145b6113ee5760405162461bcd60e51b81526004016105ab9061305c565b6001600160a01b0382166114145760405162461bcd60e51b81526004016105ab90613039565b6001600160a01b038216600090815260a0602052604090819020905161143b908390612eea565b9081526020016040518091039020600061145591906128f6565b5050565b609a546001600160a01b031633148061147c57506068546001600160a01b031633145b6114985760405162461bcd60e51b81526004016105ab9061305c565b6001600160a01b0382166114be5760405162461bcd60e51b81526004016105ab90613039565b6103e88111156115005760405162461bcd60e51b815260206004820152600d60248201526c46656520746f6f206c6172676560981b60448201526064016105ab565b6001600160a01b039091166000908152609e6020526040902055565b6000816115655760405162461bcd60e51b8152602060048201526017602482015276416d6f756e74206d75737420626520706f73697469766560481b60448201526064016105ab565b6001600160a01b03831661158b5760405162461bcd60e51b81526004016105ab90613039565b6001600160a01b038316600090815260a2602052604090205460ff1615156001146116035760405162461bcd60e51b815260206004820152602260248201527f4f6e6c7920666f756e647279206173736574732063616e2062652072656d6f76604482015261195960f21b60648201526084016105ab565b6001600160a01b0383166000908152609d602090815260408083203384529091529020548281101561166e5760405162461bcd60e51b81526020600482015260146024820152734e6f7420656e6f756768206c697175696469747960601b60448201526064016105ab565b6040516370a0823160e01b81523060048201526000906001600160a01b038616906370a082319060240160206040518083038186803b1580156116b057600080fd5b505afa1580156116c4573d6000803e3d6000fd5b505050506040513d601f19601f820116820180604052508101906116e89190612ea6565b905060008482116116f957816116fb565b845b6001600160a01b0387166000908152609d6020908152604080832033845290915290205490915061172d90829061317c565b6001600160a01b0387166000908152609d6020908152604080832033845290915290205580156117b55761176b6001600160a01b0387163383612024565b604080513381526001600160a01b03881660208201529081018690527f5204091f3aba3d16dbb7fcc090386ce24245ac12f57ae5bf9785e0ab9a79be739060600160405180910390a15b95945050505050565b6117c6611a25565b6001600160a01b0381166118095760405162461bcd60e51b815260206004820152600a6024820152692130b21039b4b3b732b960b11b60448201526064016105ab565b6001600160a01b03166000908152609c60205260409020805460ff19166001179055565b609a546001600160a01b031633148061185057506068546001600160a01b031633145b61186c5760405162461bcd60e51b81526004016105ab9061305c565b6001600160a01b0383166118925760405162461bcd60e51b81526004016105ab90613039565b6001600160a01b038316600090815260a060205260409081902090518291906118bc908590612eea565b908152602001604051809103902090805190602001906118dd929190612932565b50505050565b609a546001600160a01b031633148061190657506068546001600160a01b031633145b6119225760405162461bcd60e51b81526004016105ab9061305c565b6001600160a01b0381166119485760405162461bcd60e51b81526004016105ab90613039565b6001600160a01b0316600090815260a260205260409020805460ff19169055565b611971611a25565b6001600160a01b0381166119d65760405162461bcd60e51b815260206004820152602660248201527f4f776e61626c653a206e6577206f776e657220697320746865207a65726f206160448201526564647265737360d01b60648201526084016105ab565b610b8e81611e1f565b609b546000906001600160a01b03163314611a0c5760405162461bcd60e51b81526004016105ab906130aa565b611a1a338686868633611a7f565b90505b949350505050565b6068546001600160a01b03163314610a1d5760405162461bcd60e51b815260206004820181905260248201527f4f776e61626c653a2063616c6c6572206973206e6f7420746865206f776e657260448201526064016105ab565b60006001600160a01b038716611ac65760405162461bcd60e51b815260206004820152600c60248201526b42503a206261642066726f6d60a01b60448201526064016105ab565b6001600160a01b038616611aec5760405162461bcd60e51b81526004016105ab90613083565b83611b395760405162461bcd60e51b815260206004820152601d60248201527f42503a207461726765744e6574776f726b20697320726571757269656400000060448201526064016105ab565b6001600160a01b038316611b865760405162461bcd60e51b815260206004820152601460248201527321281d103130b2103a30b933b2ba103a37b5b2b760611b60448201526064016105ab565b84611ba35760405162461bcd60e51b81526004016105ab90613011565b6001600160a01b038681166000908152609f60209081526040808320888452909152902054811690841614611c135760405162461bcd60e51b815260206004820152601660248201527510940e881d185c99d95d081b9bdd08185b1b1bddd95960521b60448201526064016105ab565b611c1f86883088611c8f565b604080516001600160a01b038a8116825260208201889052868116928201929092528482166060820152608081018390529196508716907f0752ea9a96cdaf45ba08b0e73e0bbecc3d4a19e96da74d1ac80edea784d4c62c9060a0015b60405180910390a2509295945050505050565b6040516370a0823160e01b81526001600160a01b03838116600483015260009182918716906370a082319060240160206040518083038186803b158015611cd557600080fd5b505afa158015611ce9573d6000803e3d6000fd5b505050506040513d601f19601f82011682018060405250810190611d0d9190612ea6565b9050611d246001600160a01b03871686868661224d565b6040516370a0823160e01b81526001600160a01b038581166004830152600091908816906370a082319060240160206040518083038186803b158015611d6957600080fd5b505afa158015611d7d573d6000803e3d6000fd5b505050506040513d601f19601f82011682018060405250810190611da19190612ea6565b9050611dad828261317c565b925083831115611e155760405162461bcd60e51b815260206004820152602d60248201527f53413a2061637475616c20616d6f756e74206c6172676572207468616e20747260448201526c185b9cd9995c88185b5bdd5b9d609a1b60648201526084016105ab565b5050949350505050565b606880546001600160a01b038381166001600160a01b0319831681179093556040519116919082907f8be0079c531659141344cd1fd0a4f28419497f9722a3daafe3b4186f6b6457e090600090a35050565b6001600160a01b0381163b15155b919050565b600054610100900460ff16611eab5760405162461bcd60e51b81526004016105ab906130da565b6114558282612285565b600054610100900460ff16611edc5760405162461bcd60e51b81526004016105ab906130da565b610a1d6122c6565b604080517fbf78e0e468a2675e8ce0f0c1c79b1d9da1bf9cdef7cb74b324d5f733249250c76020808301919091526001600160a01b0396871682840152949095166060860152608085019290925260a0808501919091528151808503909101815260c09093019052815191012090565b600080611f61848461208c565b60008281526035602052604090205490935090915060ff1615611fbd5760405162461bcd60e51b815260206004820152601460248201527313595cdcd859d948185b1c9958591e481d5cd95960621b60448201526064016105ab565b6000908152603560205260409020805460ff1916600117905592915050565b6040516001600160a01b0382166024820152610b8e9060440160408051601f198184030181529190526020810180516001600160e01b031663161765e160e11b1790526122f6565b6040516001600160a01b03831660248201526044810182905261208790849063a9059cbb60e01b906064015b60408051601f198184030181529190526020810180516001600160e01b03166001600160e01b031990931692909217909152612317565b505050565b600080612098846123e9565b91506120a4828461243d565b90509250929050565b60006001600160a01b0387166120f45760405162461bcd60e51b815260206004820152600c60248201526b42503a206261642066726f6d60a01b60448201526064016105ab565b6001600160a01b03861661211a5760405162461bcd60e51b81526004016105ab90613083565b846121375760405162461bcd60e51b81526004016105ab90613011565b826040516020016121489190612eea565b60408051601f1981840301815282825280516020918201206001600160a01b038a16600090815260a09092529190209091612184908790612eea565b90815260200160405180910390206040516020016121a29190612f06565b60405160208183030381529060405280519060200120146121fe5760405162461bcd60e51b815260206004820152601660248201527510940e881d185c99d95d081b9bdd08185b1b1bddd95960521b60448201526064016105ab565b61220a86883088611c8f565b9450856001600160a01b03167fa825a80150cb3c9b95b0ab34ded2764d9bd690896b16e8a5f838ff0ae6b7626f888686868a604051611c7c959493929190612fa1565b6040516001600160a01b03808516602483015283166044820152606481018290526118dd9085906323b872dd60e01b90608401612050565b600054610100900460ff166122ac5760405162461bcd60e51b81526004016105ab906130da565b815160209283012081519190920120600191909155600255565b600054610100900460ff166122ed5760405162461bcd60e51b81526004016105ab906130da565b610a1d33611e1f565b80516a636f6e736f6c652e6c6f67602083016000808483855afa5050505050565b600061236c826040518060400160405280602081526020017f5361666545524332303a206c6f772d6c6576656c2063616c6c206661696c6564815250856001600160a01b03166124619092919063ffffffff16565b805190915015612087578080602001905181019061238a9190612e6e565b6120875760405162461bcd60e51b815260206004820152602a60248201527f5361666545524332303a204552433230206f7065726174696f6e20646964206e6044820152691bdd081cdd58d8d9595960b21b60648201526084016105ab565b60006124376123f6612470565b8360405161190160f01b6020820152602281018390526042810182905260009060620160405160208183030381529060405280519060200120905092915050565b92915050565b600080600061244c85856124f0565b9150915061245981612536565b509392505050565b6060611a1d84846000856126be565b60006124eb7f8b73c3c69bb8fe3d512ecc4cf759cc79239f7b179b0ffacaa9a75d522b39400f61249f60015490565b6002546040805160208101859052908101839052606081018290524660808201523060a082015260009060c0016040516020818303038152906040528051906020012090509392505050565b905090565b6000808251604114156125275760208301516040840151606085015160001a61251b87828585612799565b9450945050505061252f565b506000905060025b9250929050565b600081600481111561255857634e487b7160e01b600052602160045260246000fd5b141561256357610b8e565b600181600481111561258557634e487b7160e01b600052602160045260246000fd5b14156125d35760405162461bcd60e51b815260206004820152601860248201527f45434453413a20696e76616c6964207369676e6174757265000000000000000060448201526064016105ab565b60028160048111156125f557634e487b7160e01b600052602160045260246000fd5b14156126435760405162461bcd60e51b815260206004820152601f60248201527f45434453413a20696e76616c6964207369676e6174757265206c656e6774680060448201526064016105ab565b600381600481111561266557634e487b7160e01b600052602160045260246000fd5b1415610b8e5760405162461bcd60e51b815260206004820152602260248201527f45434453413a20696e76616c6964207369676e6174757265202773272076616c604482015261756560f01b60648201526084016105ab565b60608247101561271f5760405162461bcd60e51b815260206004820152602660248201527f416464726573733a20696e73756666696369656e742062616c616e636520666f6044820152651c8818d85b1b60d21b60648201526084016105ab565b600080866001600160a01b0316858760405161273b9190612eea565b60006040518083038185875af1925050503d8060008114612778576040519150601f19603f3d011682016040523d82523d6000602084013e61277d565b606091505b509150915061278e8783838761285d565b979650505050505050565b6000807f7fffffffffffffffffffffffffffffff5d576e7357a4501ddfe92f46681b20a08311156127d05750600090506003612854565b6040805160008082526020820180845289905260ff881692820192909252606081018690526080810185905260019060a0016020604051602081039080840390855afa158015612824573d6000803e3d6000fd5b5050604051601f1901519150506001600160a01b03811661284d57600060019250925050612854565b9150600090505b94509492505050565b606083156128c75782516128c05761287485611e71565b6128c05760405162461bcd60e51b815260206004820152601d60248201527f416464726573733a2063616c6c20746f206e6f6e2d636f6e747261637400000060448201526064016105ab565b5081611a1d565b611a1d83838151156128dc5781518083602001fd5b8060405162461bcd60e51b81526004016105ab9190612ffe565b508054612902906131bf565b6000825580601f106129145750610b8e565b601f016020900490600052602060002090810190610b8e91906129b6565b82805461293e906131bf565b90600052602060002090601f01602090048101928261296057600085556129a6565b82601f1061297957805160ff19168380011785556129a6565b828001600101855582156129a6579182015b828111156129a657825182559160200191906001019061298b565b506129b29291506129b6565b5090565b5b808211156129b257600081556001016129b7565b600067ffffffffffffffff808411156129e6576129e6613210565b604051601f8501601f19908116603f01168101908282118183101715612a0e57612a0e613210565b81604052809350858152868686011115612a2757600080fd5b858560208301376000602087830101525050509392505050565b80356001600160a01b0381168114611e7f57600080fd5b600082601f830112612a68578081fd5b612a77838335602085016129cb565b9392505050565b600060208284031215612a8f578081fd5b612a7782612a41565b60008060408385031215612aaa578081fd5b612ab383612a41565b91506120a460208401612a41565b600080600060608486031215612ad5578081fd5b612ade84612a41565b9250612aec60208501612a41565b9150604084013590509250925092565b60008060008060008060a08789031215612b14578182fd5b612b1d87612a41565b9550612b2b60208801612a41565b94506040870135935060608701359250608087013567ffffffffffffffff80821115612b55578384fd5b818901915089601f830112612b68578384fd5b813581811115612b76578485fd5b8a6020828501011115612b87578485fd5b6020830194508093505050509295509295509295565b600080600080600060a08688031215612bb4578081fd5b612bbd86612a41565b9450612bcb60208701612a41565b93506040860135925060608601359150608086013567ffffffffffffffff811115612bf4578182fd5b8601601f81018813612c04578182fd5b612c13888235602084016129cb565b9150509295509295909350565b60008060408385031215612c32578182fd5b612c3b83612a41565b9150602083013567ffffffffffffffff811115612c56578182fd5b612c6285828601612a58565b9150509250929050565b600080600060608486031215612c80578283fd5b612c8984612a41565b9250602084013567ffffffffffffffff80821115612ca5578384fd5b612cb187838801612a58565b93506040860135915080821115612cc6578283fd5b50612cd386828701612a58565b9150509250925092565b60008060408385031215612cef578182fd5b612cf883612a41565b946020939093013593505050565b600080600060608486031215612d1a578283fd5b612d2384612a41565b925060208401359150612d3860408501612a41565b90509250925092565b600080600080600060a08688031215612d58578081fd5b612d6186612a41565b945060208601359350604086013567ffffffffffffffff80821115612d84578283fd5b612d9089838a01612a58565b94506060880135915080821115612da5578283fd5b612db189838a01612a58565b93506080880135915080821115612dc6578283fd5b50612c1388828901612a58565b60008060008060808587031215612de8578182fd5b612df185612a41565b93506020850135925060408501359150612e0d60608601612a41565b905092959194509250565b600080600080600060a08688031215612e2f578283fd5b612e3886612a41565b94506020860135935060408601359250612e5460608701612a41565b9150612e6260808701612a41565b90509295509295909350565b600060208284031215612e7f578081fd5b81518015158114612a77578182fd5b600060208284031215612e9f578081fd5b5035919050565b600060208284031215612eb7578081fd5b5051919050565b60008151808452612ed6816020860160208601613193565b601f01601f19169290920160200192915050565b60008251612efc818460208701613193565b9190910192915050565b8154600090819060028104600180831680612f2257607f831692505b6020808410821415612f4257634e487b7160e01b87526022600452602487fd5b818015612f565760018114612f6757612f93565b60ff19861689528489019650612f93565b60008a815260209020885b86811015612f8b5781548b820152908501908301612f72565b505084890196505b509498975050505050505050565b6001600160a01b038616815260a060208201819052600090612fc590830187612ebe565b8281036040840152612fd78187612ebe565b90508281036060840152612feb8186612ebe565b9150508260808301529695505050505050565b600060208252612a776020830184612ebe565b6020808252600e908201526d10940e8818985908185b5bdd5b9d60921b604082015260600190565b6020808252600990820152682130b2103a37b5b2b760b91b604082015260600190565b6020808252600d908201526c2ba09d103737ba1030b236b4b760991b604082015260600190565b6020808252600d908201526c21281d103130b2103a37b5b2b760991b604082015260600190565b60208082526016908201527510940e8813db9b1e481c9bdd5d195c881b595d1a1bd960521b604082015260600190565b6020808252602b908201527f496e697469616c697a61626c653a20636f6e7472616374206973206e6f74206960408201526a6e697469616c697a696e6760a81b606082015260800190565b60008219821115613138576131386131fa565b500190565b60008261315857634e487b7160e01b81526012600452602481fd5b500490565b6000816000190483118215151615613177576131776131fa565b500290565b60008282101561318e5761318e6131fa565b500390565b60005b838110156131ae578181015183820152602001613196565b838111156118dd5750506000910152565b6002810460018216806131d357607f821691505b602082108114156131f457634e487b7160e01b600052602260045260246000fd5b50919050565b634e487b7160e01b600052601160045260246000fd5b634e487b7160e01b600052604160045260246000fdfea2646970667358221220113f68ff19bcfa0be98b3ee52351286060d629fc81dcc173d26e65ea2ed20ae064736f6c63430008020033",
  "linkReferences": {},
  "deployedLinkReferences": {}
}