{
  "_format": "hh-sol-artifact-1",
  "contractName": "FundManager",
  "sourceName": "contracts/upgradeable-Bridge/FundManager.sol",
  "abi": [
    {
      "anonymous": false,
      "inputs": [
        {
          "indexed": false,
          "internalType": "address",
          "name": "admin",
          "type": "address"
        }
      ],
      "name": "AdminSet",
      "type": "event"
    },
    {
      "anonymous": false,
      "inputs": [
        {
          "indexed": false,
          "internalType": "address",
          "name": "actor",
          "type": "address"
        },
        {
          "indexed": false,
          "internalType": "address",
          "name": "token",
          "type": "address"
        },
        {
          "indexed": false,
          "internalType": "uint256",
          "name": "amount",
          "type": "uint256"
        }
      ],
      "name": "BridgeLiquidityAdded",
      "type": "event"
    },
    {
      "anonymous": false,
      "inputs": [
        {
          "indexed": false,
          "internalType": "address",
          "name": "actor",
          "type": "address"
        },
        {
          "indexed": false,
          "internalType": "address",
          "name": "token",
          "type": "address"
        },
        {
          "indexed": false,
          "internalType": "uint256",
          "name": "amount",
          "type": "uint256"
        }
      ],
      "name": "BridgeLiquidityRemoved",
      "type": "event"
    },
    {
      "anonymous": false,
      "inputs": [
        {
          "indexed": false,
          "internalType": "address",
          "name": "from",
          "type": "address"
        },
        {
          "indexed": true,
          "internalType": "address",
          "name": "token",
          "type": "address"
        },
        {
          "indexed": false,
          "internalType": "uint256",
          "name": "targetNetwork",
          "type": "uint256"
        },
        {
          "indexed": false,
          "internalType": "address",
          "name": "targetToken",
          "type": "address"
        },
        {
          "indexed": false,
          "internalType": "address",
          "name": "targetAddrdess",
          "type": "address"
        },
        {
          "indexed": false,
          "internalType": "uint256",
          "name": "amount",
          "type": "uint256"
        }
      ],
      "name": "BridgeSwap",
      "type": "event"
    },
    {
      "anonymous": false,
      "inputs": [
        {
          "indexed": false,
          "internalType": "uint8",
          "name": "version",
          "type": "uint8"
        }
      ],
      "name": "Initialized",
      "type": "event"
    },
    {
      "anonymous": false,
      "inputs": [
        {
          "indexed": true,
          "internalType": "address",
          "name": "previousOwner",
          "type": "address"
        },
        {
          "indexed": true,
          "internalType": "address",
          "name": "newOwner",
          "type": "address"
        }
      ],
      "name": "OwnershipTransferred",
      "type": "event"
    },
    {
      "anonymous": false,
      "inputs": [
        {
          "indexed": false,
          "internalType": "address",
          "name": "signer",
          "type": "address"
        },
        {
          "indexed": false,
          "internalType": "address",
          "name": "receiver",
          "type": "address"
        },
        {
          "indexed": false,
          "internalType": "address",
          "name": "token",
          "type": "address"
        },
        {
          "indexed": false,
          "internalType": "uint256",
          "name": "amount",
          "type": "uint256"
        }
      ],
      "name": "TransferBySignature",
      "type": "event"
    },
    {
      "inputs": [
        {
          "internalType": "address",
          "name": "token",
          "type": "address"
        }
      ],
      "name": "addFoundryAsset",
      "outputs": [],
      "stateMutability": "nonpayable",
      "type": "function"
    },
    {
      "inputs": [
        {
          "internalType": "address",
          "name": "token",
          "type": "address"
        },
        {
          "internalType": "uint256",
          "name": "amount",
          "type": "uint256"
        }
      ],
      "name": "addLiquidity",
      "outputs": [],
      "stateMutability": "nonpayable",
      "type": "function"
    },
    {
      "inputs": [
        {
          "internalType": "address",
          "name": "_signer",
          "type": "address"
        }
      ],
      "name": "addSigner",
      "outputs": [],
      "stateMutability": "nonpayable",
      "type": "function"
    },
    {
      "inputs": [],
      "name": "admin",
      "outputs": [
        {
          "internalType": "address",
          "name": "",
          "type": "address"
        }
      ],
      "stateMutability": "view",
      "type": "function"
    },
    {
      "inputs": [
        {
          "internalType": "address",
          "name": "token",
          "type": "address"
        },
        {
          "internalType": "uint256",
          "name": "chainId",
          "type": "uint256"
        },
        {
          "internalType": "address",
          "name": "targetToken",
          "type": "address"
        }
      ],
      "name": "allowTarget",
      "outputs": [],
      "stateMutability": "nonpayable",
      "type": "function"
    },
    {
      "inputs": [
        {
          "internalType": "address",
          "name": "",
          "type": "address"
        },
        {
          "internalType": "uint256",
          "name": "",
          "type": "uint256"
        }
      ],
      "name": "allowedTargets",
      "outputs": [
        {
          "internalType": "address",
          "name": "",
          "type": "address"
        }
      ],
      "stateMutability": "view",
      "type": "function"
    },
    {
      "inputs": [
        {
          "internalType": "address",
          "name": "token",
          "type": "address"
        },
        {
          "internalType": "uint256",
          "name": "chainId",
          "type": "uint256"
        }
      ],
      "name": "disallowTarget",
      "outputs": [],
      "stateMutability": "nonpayable",
      "type": "function"
    },
    {
      "inputs": [],
      "name": "feeDistributor",
      "outputs": [
        {
          "internalType": "address",
          "name": "",
          "type": "address"
        }
      ],
      "stateMutability": "view",
      "type": "function"
    },
    {
      "inputs": [
        {
          "internalType": "address",
          "name": "",
          "type": "address"
        }
      ],
      "name": "fees",
      "outputs": [
        {
          "internalType": "uint256",
          "name": "",
          "type": "uint256"
        }
      ],
      "stateMutability": "view",
      "type": "function"
    },
    {
      "inputs": [],
      "name": "initialize",
      "outputs": [],
      "stateMutability": "nonpayable",
      "type": "function"
    },
    {
      "inputs": [
        {
          "internalType": "address",
          "name": "",
          "type": "address"
        }
      ],
      "name": "isFoundryAsset",
      "outputs": [
        {
          "internalType": "bool",
          "name": "",
          "type": "bool"
        }
      ],
      "stateMutability": "view",
      "type": "function"
    },
    {
      "inputs": [
        {
          "internalType": "address",
          "name": "token",
          "type": "address"
        },
        {
          "internalType": "address",
          "name": "liquidityAdder",
          "type": "address"
        }
      ],
      "name": "liquidity",
      "outputs": [
        {
          "internalType": "uint256",
          "name": "",
          "type": "uint256"
        }
      ],
      "stateMutability": "view",
      "type": "function"
    },
    {
      "inputs": [],
      "name": "owner",
      "outputs": [
        {
          "internalType": "address",
          "name": "",
          "type": "address"
        }
      ],
      "stateMutability": "view",
      "type": "function"
    },
    {
      "inputs": [
        {
          "internalType": "address",
          "name": "token",
          "type": "address"
        }
      ],
      "name": "removeFoundryAsset",
      "outputs": [],
      "stateMutability": "nonpayable",
      "type": "function"
    },
    {
      "inputs": [
        {
          "internalType": "address",
          "name": "token",
          "type": "address"
        },
        {
          "internalType": "uint256",
          "name": "amount",
          "type": "uint256"
        }
      ],
      "name": "removeLiquidityIfPossible",
      "outputs": [
        {
          "internalType": "uint256",
          "name": "",
          "type": "uint256"
        }
      ],
      "stateMutability": "nonpayable",
      "type": "function"
    },
    {
      "inputs": [
        {
          "internalType": "address",
          "name": "_signer",
          "type": "address"
        }
      ],
      "name": "removeSigner",
      "outputs": [],
      "stateMutability": "nonpayable",
      "type": "function"
    },
    {
      "inputs": [],
      "name": "renounceOwnership",
      "outputs": [],
      "stateMutability": "nonpayable",
      "type": "function"
    },
    {
      "inputs": [],
      "name": "router",
      "outputs": [
        {
          "internalType": "address",
          "name": "",
          "type": "address"
        }
      ],
      "stateMutability": "view",
      "type": "function"
    },
    {
      "inputs": [
        {
          "internalType": "address",
          "name": "_admin",
          "type": "address"
        }
      ],
      "name": "setAdmin",
      "outputs": [],
      "stateMutability": "nonpayable",
      "type": "function"
    },
    {
      "inputs": [
        {
          "internalType": "address",
          "name": "token",
          "type": "address"
        },
        {
          "internalType": "uint256",
          "name": "fee10000",
          "type": "uint256"
        }
      ],
      "name": "setFee",
      "outputs": [],
      "stateMutability": "nonpayable",
      "type": "function"
    },
    {
      "inputs": [
        {
          "internalType": "address",
          "name": "_feeDistributor",
          "type": "address"
        }
      ],
      "name": "setFeeDistributor",
      "outputs": [],
      "stateMutability": "nonpayable",
      "type": "function"
    },
    {
      "inputs": [
        {
          "internalType": "address",
          "name": "_router",
          "type": "address"
        }
      ],
      "name": "setRouter",
      "outputs": [],
      "stateMutability": "nonpayable",
      "type": "function"
    },
    {
      "inputs": [
        {
          "internalType": "address",
          "name": "",
          "type": "address"
        }
      ],
      "name": "signers",
      "outputs": [
        {
          "internalType": "bool",
          "name": "",
          "type": "bool"
        }
      ],
      "stateMutability": "view",
      "type": "function"
    },
    {
      "inputs": [
        {
          "internalType": "address",
          "name": "token",
          "type": "address"
        },
        {
          "internalType": "uint256",
          "name": "amount",
          "type": "uint256"
        },
        {
          "internalType": "uint256",
          "name": "targetNetwork",
          "type": "uint256"
        },
        {
          "internalType": "address",
          "name": "targetToken",
          "type": "address"
        }
      ],
      "name": "swap",
      "outputs": [
        {
          "internalType": "uint256",
          "name": "",
          "type": "uint256"
        }
      ],
      "stateMutability": "nonpayable",
      "type": "function"
    },
    {
      "inputs": [
        {
          "internalType": "address",
          "name": "token",
          "type": "address"
        },
        {
          "internalType": "uint256",
          "name": "amount",
          "type": "uint256"
        },
        {
          "internalType": "uint256",
          "name": "targetNetwork",
          "type": "uint256"
        },
        {
          "internalType": "address",
          "name": "targetToken",
          "type": "address"
        },
        {
          "internalType": "address",
          "name": "targetAddress",
          "type": "address"
        }
      ],
      "name": "swapToAddress",
      "outputs": [
        {
          "internalType": "uint256",
          "name": "",
          "type": "uint256"
        }
      ],
      "stateMutability": "nonpayable",
      "type": "function"
    },
    {
      "inputs": [
        {
          "internalType": "address",
          "name": "newOwner",
          "type": "address"
        }
      ],
      "name": "transferOwnership",
      "outputs": [],
      "stateMutability": "nonpayable",
      "type": "function"
    },
    {
      "inputs": [
        {
          "internalType": "bytes32",
          "name": "",
          "type": "bytes32"
        }
      ],
      "name": "usedHashes",
      "outputs": [
        {
          "internalType": "bool",
          "name": "",
          "type": "bool"
        }
      ],
      "stateMutability": "view",
      "type": "function"
    },
    {
      "inputs": [
        {
          "internalType": "address",
          "name": "token",
          "type": "address"
        },
        {
          "internalType": "address",
          "name": "payee",
          "type": "address"
        },
        {
          "internalType": "uint256",
          "name": "amount",
          "type": "uint256"
        },
        {
          "internalType": "bytes32",
          "name": "salt",
          "type": "bytes32"
        },
        {
          "internalType": "bytes",
          "name": "signature",
          "type": "bytes"
        }
      ],
      "name": "withdrawSigned",
      "outputs": [
        {
          "internalType": "uint256",
          "name": "",
          "type": "uint256"
        }
      ],
      "stateMutability": "nonpayable",
      "type": "function"
    },
    {
      "inputs": [
        {
          "internalType": "address",
          "name": "token",
          "type": "address"
        },
        {
          "internalType": "address",
          "name": "payee",
          "type": "address"
        },
        {
          "internalType": "uint256",
          "name": "amount",
          "type": "uint256"
        },
        {
          "internalType": "bytes32",
          "name": "salt",
          "type": "bytes32"
        },
        {
          "internalType": "bytes",
          "name": "signature",
          "type": "bytes"
        }
      ],
      "name": "withdrawSignedVerify",
      "outputs": [
        {
          "internalType": "bytes32",
          "name": "",
          "type": "bytes32"
        },
        {
          "internalType": "address",
          "name": "",
          "type": "address"
        }
      ],
      "stateMutability": "view",
      "type": "function"
    }
  ],
  "bytecode": "0x608060405234801561001057600080fd5b5061268e806100206000396000f3fe608060405234801561001057600080fd5b50600436106101cf5760003560e01c8063aa36acfb11610104578063e91b79bc116100a2578063f3e6ea8a11610071578063f3e6ea8a14610468578063f851a4401461047b578063f887ea401461048e578063faaebd21146104a1576101cf565b8063e91b79bc1461041c578063eb12d61e1461042f578063f2117d4514610442578063f2fde38b14610455576101cf565b8063c0d78655116100de578063c0d78655146103d0578063ccfc2e8d146103e3578063dcb0f2d3146103f6578063e55156b514610409576101cf565b8063aa36acfb14610344578063aef18bf714610374578063b221728114610397576101cf565b8063704b6c02116101715780638129fc1c1161014b5780638129fc1c146102f55780638d6e9291146102fd5780638da5cb5b146103105780639d90d0a114610321576101cf565b8063704b6c02146102a7578063715018a6146102ba578063736c0d5b146102c2576101cf565b80632839c21a116101ad5780632839c21a1461024d57806344da82711461026057806352f9567d146102735780635668870014610294576101cf565b80630d43e8ad146101d45780630e316ab714610204578063278c13fe14610219575b600080fd5b60a0546101e7906001600160a01b031681565b6040516001600160a01b0390911681526020015b60405180910390f35b6102176102123660046121a2565b6104c1565b005b6101e761022736600461236e565b609f6020908152600092835260408084209091529082529020546001600160a01b031681565b61021761025b3660046121a2565b610532565b61021761026e366004612397565b6105bb565b610286610281366004612417565b6106de565b6040519081526020016101fb565b6102176102a236600461236e565b610787565b6102176102b53660046121a2565b61090b565b610217610968565b6102e56102d03660046121a2565b609c6020526000908152604090205460ff1681565b60405190151581526020016101fb565b61021761097c565b61028661030b36600461228d565b610aee565b6068546001600160a01b03166101e7565b6102e561032f3660046121a2565b60a16020526000908152604090205460ff1681565b6103576103523660046121ec565b610d22565b604080519283526001600160a01b039091166020830152016101fb565b6102e561038236600461248d565b60356020526000908152604090205460ff1681565b6102866103a53660046121c3565b6001600160a01b039182166000908152609d6020908152604080832093909416825291909152205490565b6102176103de3660046121a2565b610d8a565b6102176103f13660046121a2565b610e00565b61021761040436600461236e565b610e2a565b61021761041736600461236e565b610efd565b61028661042a36600461236e565b610fc0565b61021761043d3660046121a2565b611262565b6102176104503660046121a2565b6112d1565b6102176104633660046121a2565b611357565b6102866104763660046123d2565b6113cd565b609a546101e7906001600160a01b031681565b609b546101e7906001600160a01b031681565b6102866104af3660046121a2565b609e6020526000908152604090205481565b6104c9611413565b6001600160a01b0381166105115760405162461bcd60e51b815260206004820152600a6024820152692130b21039b4b3b732b960b11b60448201526064015b60405180910390fd5b6001600160a01b03166000908152609c60205260409020805460ff19169055565b609a546001600160a01b031633148061055557506068546001600160a01b031633145b6105715760405162461bcd60e51b81526004016105089061252f565b6001600160a01b0381166105975760405162461bcd60e51b81526004016105089061250c565b6001600160a01b0316600090815260a160205260409020805460ff19166001179055565b609a546001600160a01b03163314806105de57506068546001600160a01b031633145b6105fa5760405162461bcd60e51b81526004016105089061252f565b6001600160a01b0383166106205760405162461bcd60e51b81526004016105089061250c565b6001600160a01b0381166106685760405162461bcd60e51b815260206004820152600f60248201526e2130b2103a30b933b2ba2a37b5b2b760891b6044820152606401610508565b816106a35760405162461bcd60e51b815260206004820152600b60248201526a1098590818da185a5b925960aa1b6044820152606401610508565b6001600160a01b039283166000908152609f602090815260408083209483529390529190912080546001600160a01b03191691909216179055565b609b546000906001600160a01b0316331461070b5760405162461bcd60e51b815260040161050890612556565b6001600160a01b03821661076f5760405162461bcd60e51b815260206004820152602560248201527f427269646765506f6f6c3a2074617267657441646472657373206973207265716044820152641d5a5c995960da1b6064820152608401610508565b61077d33878787878761146d565b9695505050505050565b806107ce5760405162461bcd60e51b8152602060048201526017602482015276416d6f756e74206d75737420626520706f73697469766560481b6044820152606401610508565b6001600160a01b0382166107f45760405162461bcd60e51b81526004016105089061250c565b6001600160a01b038216600090815260a1602052604090205460ff1615156001146108615760405162461bcd60e51b815260206004820181905260248201527f4f6e6c7920666f756e647279206173736574732063616e2062652061646465646044820152606401610508565b61086d823330846116ba565b6001600160a01b0383166000908152609d6020908152604080832033845290915290205490915061089f9082906125d1565b6001600160a01b0383166000818152609d6020908152604080832033808552908352928190209490945583519182528101919091529081018290527fef3f81f7842dc4087d754ab30e98bb596b7345a806ff6db3c82f0c7d77b749609060600160405180910390a15050565b610913611413565b609a80546001600160a01b0319166001600160a01b0383169081179091556040519081527f8fe72c3e0020beb3234e76ae6676fa576fbfcae600af1c4fea44784cf0db329c906020015b60405180910390a150565b610970611413565b61097a600061184a565b565b600054610100900460ff161580801561099c5750600054600160ff909116105b806109bd57506109ab3061189c565b1580156109bd575060005460ff166001145b610a205760405162461bcd60e51b815260206004820152602e60248201527f496e697469616c697a61626c653a20636f6e747261637420697320616c72656160448201526d191e481a5b9a5d1a585b1a5e995960921b6064820152608401610508565b6000805460ff191660011790558015610a43576000805461ff0019166101001790555b610aa16040518060400160405280601881526020017f46455252554d5f544f4b454e5f4252494447455f504f4f4c0000000000000000815250604051806040016040528060078152602001660c0c0c0b8c0c0d60ca1b8152506118af565b610aa96118e4565b8015610aeb576000805461ff0019169055604051600181527f7f26b83ff96e1f2b6a682f133852f6798a09c465da95921460cefb38474024989060200161095d565b50565b609b546000906001600160a01b03163314610b1b5760405162461bcd60e51b815260040161050890612556565b6001600160a01b038616610b615760405162461bcd60e51b815260206004820152600d60248201526c21281d103130b2103a37b5b2b760991b6044820152606401610508565b6001600160a01b038516610ba75760405162461bcd60e51b815260206004820152600d60248201526c42503a2062616420706179656560981b6044820152606401610508565b82610be35760405162461bcd60e51b815260206004820152600c60248201526b10940e88189859081cd85b1d60a21b6044820152606401610508565b83610c215760405162461bcd60e51b815260206004820152600e60248201526d10940e8818985908185b5bdd5b9d60921b6044820152606401610508565b6000610c2f87878787611913565b90506000610c3d8285611983565b9050610c4881611a0b565b6001600160a01b0381166000908152609c602052604090205460ff16610cb05760405162461bcd60e51b815260206004820152601a60248201527f427269646765506f6f6c3a20496e76616c6964207369676e65720000000000006044820152606401610508565b610cc46001600160a01b0389168888611a53565b604080516001600160a01b03838116825289811660208301528a16818301526060810188905290517f20866f1bbd1aa6fdb9e631ab723d2060dcc7e4719ec6a43ecd7231557dcec8d99181900360800190a150939695505050505050565b6000806000610d3389898989611913565b9050600080610d788388888080601f016020809104026020016040519081016040528093929190818152602001838380828437600092019190915250611abb92505050565b909c909b509950505050505050505050565b610d92611413565b6001600160a01b038116610dde5760405162461bcd60e51b815260206004820152601360248201527210940e881c9bdd5d195c881c995c5d5c9a5959606a1b6044820152606401610508565b609b80546001600160a01b0319166001600160a01b0392909216919091179055565b610e08611413565b60a080546001600160a01b0319166001600160a01b0392909216919091179055565b609a546001600160a01b0316331480610e4d57506068546001600160a01b031633145b610e695760405162461bcd60e51b81526004016105089061252f565b6001600160a01b038216610e8f5760405162461bcd60e51b81526004016105089061250c565b80610eca5760405162461bcd60e51b815260206004820152600b60248201526a1098590818da185a5b925960aa1b6044820152606401610508565b6001600160a01b039091166000908152609f602090815260408083209383529290522080546001600160a01b0319169055565b609a546001600160a01b0316331480610f2057506068546001600160a01b031633145b610f3c5760405162461bcd60e51b81526004016105089061252f565b6001600160a01b038216610f625760405162461bcd60e51b81526004016105089061250c565b6103e8811115610fa45760405162461bcd60e51b815260206004820152600d60248201526c46656520746f6f206c6172676560981b6044820152606401610508565b6001600160a01b039091166000908152609e6020526040902055565b6000816110095760405162461bcd60e51b8152602060048201526017602482015276416d6f756e74206d75737420626520706f73697469766560481b6044820152606401610508565b6001600160a01b03831661102f5760405162461bcd60e51b81526004016105089061250c565b6001600160a01b038316600090815260a1602052604090205460ff1615156001146110a75760405162461bcd60e51b815260206004820152602260248201527f4f6e6c7920666f756e647279206173736574732063616e2062652072656d6f76604482015261195960f21b6064820152608401610508565b6001600160a01b0383166000908152609d60209081526040808320338452909152902054828110156111125760405162461bcd60e51b81526020600482015260146024820152734e6f7420656e6f756768206c697175696469747960601b6044820152606401610508565b6040516370a0823160e01b81523060048201526000906001600160a01b038616906370a082319060240160206040518083038186803b15801561115457600080fd5b505afa158015611168573d6000803e3d6000fd5b505050506040513d601f19601f8201168201806040525081019061118c91906124a5565b9050600084821161119d578161119f565b845b6001600160a01b0387166000908152609d602090815260408083203384529091529020549091506111d19082906125e9565b6001600160a01b0387166000908152609d6020908152604080832033845290915290205580156112595761120f6001600160a01b0387163383611a53565b604080513381526001600160a01b03881660208201529081018690527f5204091f3aba3d16dbb7fcc090386ce24245ac12f57ae5bf9785e0ab9a79be739060600160405180910390a15b95945050505050565b61126a611413565b6001600160a01b0381166112ad5760405162461bcd60e51b815260206004820152600a6024820152692130b21039b4b3b732b960b11b6044820152606401610508565b6001600160a01b03166000908152609c60205260409020805460ff19166001179055565b609a546001600160a01b03163314806112f457506068546001600160a01b031633145b6113105760405162461bcd60e51b81526004016105089061252f565b6001600160a01b0381166113365760405162461bcd60e51b81526004016105089061250c565b6001600160a01b0316600090815260a160205260409020805460ff19169055565b61135f611413565b6001600160a01b0381166113c45760405162461bcd60e51b815260206004820152602660248201527f4f776e61626c653a206e6577206f776e657220697320746865207a65726f206160448201526564647265737360d01b6064820152608401610508565b610aeb8161184a565b609b546000906001600160a01b031633146113fa5760405162461bcd60e51b815260040161050890612556565b61140833868686863361146d565b90505b949350505050565b6068546001600160a01b0316331461097a5760405162461bcd60e51b815260206004820181905260248201527f4f776e61626c653a2063616c6c6572206973206e6f7420746865206f776e65726044820152606401610508565b60006001600160a01b0387166114b45760405162461bcd60e51b815260206004820152600c60248201526b42503a206261642066726f6d60a01b6044820152606401610508565b6001600160a01b0386166114fa5760405162461bcd60e51b815260206004820152600d60248201526c21281d103130b2103a37b5b2b760991b6044820152606401610508565b836115475760405162461bcd60e51b815260206004820152601d60248201527f42503a207461726765744e6574776f726b2069732072657175726965640000006044820152606401610508565b6001600160a01b0383166115945760405162461bcd60e51b815260206004820152601460248201527321281d103130b2103a30b933b2ba103a37b5b2b760611b6044820152606401610508565b846115d25760405162461bcd60e51b815260206004820152600e60248201526d10940e8818985908185b5bdd5b9d60921b6044820152606401610508565b6001600160a01b038681166000908152609f602090815260408083208884529091529020548116908416146116425760405162461bcd60e51b815260206004820152601660248201527510940e881d185c99d95d081b9bdd08185b1b1bddd95960521b6044820152606401610508565b61164e868830886116ba565b604080516001600160a01b038a8116825260208201889052868116828401528581166060830152608082018490529151929750908816917f0752ea9a96cdaf45ba08b0e73e0bbecc3d4a19e96da74d1ac80edea784d4c62c9181900360a00190a2509295945050505050565b6040516370a0823160e01b81526001600160a01b03838116600483015260009182918716906370a082319060240160206040518083038186803b15801561170057600080fd5b505afa158015611714573d6000803e3d6000fd5b505050506040513d601f19601f8201168201806040525081019061173891906124a5565b905061174f6001600160a01b038716868686611adc565b6040516370a0823160e01b81526001600160a01b038581166004830152600091908816906370a082319060240160206040518083038186803b15801561179457600080fd5b505afa1580156117a8573d6000803e3d6000fd5b505050506040513d601f19601f820116820180604052508101906117cc91906124a5565b90506117d882826125e9565b9250838311156118405760405162461bcd60e51b815260206004820152602d60248201527f53413a2061637475616c20616d6f756e74206c6172676572207468616e20747260448201526c185b9cd9995c88185b5bdd5b9d609a1b6064820152608401610508565b5050949350505050565b606880546001600160a01b038381166001600160a01b0319831681179093556040519116919082907f8be0079c531659141344cd1fd0a4f28419497f9722a3daafe3b4186f6b6457e090600090a35050565b6001600160a01b0381163b15155b919050565b600054610100900460ff166118d65760405162461bcd60e51b815260040161050890612586565b6118e08282611b1a565b5050565b600054610100900460ff1661190b5760405162461bcd60e51b815260040161050890612586565b61097a611b5b565b604080517fbf78e0e468a2675e8ce0f0c1c79b1d9da1bf9cdef7cb74b324d5f733249250c76020808301919091526001600160a01b0396871682840152949095166060860152608085019290925260a0808501919091528151808503909101815260c09093019052815191012090565b6000806119908484611abb565b60008281526035602052604090205490935090915060ff16156119ec5760405162461bcd60e51b815260206004820152601460248201527313595cdcd859d948185b1c9958591e481d5cd95960621b6044820152606401610508565b6000908152603560205260409020805460ff1916600117905592915050565b6040516001600160a01b0382166024820152610aeb9060440160408051601f198184030181529190526020810180516001600160e01b031663161765e160e11b179052611b8b565b6040516001600160a01b038316602482015260448101829052611ab690849063a9059cbb60e01b906064015b60408051601f198184030181529190526020810180516001600160e01b03166001600160e01b031990931692909217909152611bac565b505050565b600080611ac784611c7e565b9150611ad38284611cd2565b90509250929050565b6040516001600160a01b0380851660248301528316604482015260648101829052611b149085906323b872dd60e01b90608401611a7f565b50505050565b600054610100900460ff16611b415760405162461bcd60e51b815260040161050890612586565b815160209283012081519190920120600191909155600255565b600054610100900460ff16611b825760405162461bcd60e51b815260040161050890612586565b61097a3361184a565b80516a636f6e736f6c652e6c6f67602083016000808483855afa5050505050565b6000611c01826040518060400160405280602081526020017f5361666545524332303a206c6f772d6c6576656c2063616c6c206661696c6564815250856001600160a01b0316611cf69092919063ffffffff16565b805190915015611ab65780806020019051810190611c1f919061246d565b611ab65760405162461bcd60e51b815260206004820152602a60248201527f5361666545524332303a204552433230206f7065726174696f6e20646964206e6044820152691bdd081cdd58d8d9595960b21b6064820152608401610508565b6000611ccc611c8b611d05565b8360405161190160f01b6020820152602281018390526042810182905260009060620160405160208183030381529060405280519060200120905092915050565b92915050565b6000806000611ce18585611d85565b91509150611cee81611dcb565b509392505050565b606061140b8484600085611f53565b6000611d807f8b73c3c69bb8fe3d512ecc4cf759cc79239f7b179b0ffacaa9a75d522b39400f611d3460015490565b6002546040805160208101859052908101839052606081018290524660808201523060a082015260009060c0016040516020818303038152906040528051906020012090509392505050565b905090565b600080825160411415611dbc5760208301516040840151606085015160001a611db08782858561202e565b94509450505050611dc4565b506000905060025b9250929050565b6000816004811115611ded57634e487b7160e01b600052602160045260246000fd5b1415611df857610aeb565b6001816004811115611e1a57634e487b7160e01b600052602160045260246000fd5b1415611e685760405162461bcd60e51b815260206004820152601860248201527f45434453413a20696e76616c6964207369676e617475726500000000000000006044820152606401610508565b6002816004811115611e8a57634e487b7160e01b600052602160045260246000fd5b1415611ed85760405162461bcd60e51b815260206004820152601f60248201527f45434453413a20696e76616c6964207369676e6174757265206c656e677468006044820152606401610508565b6003816004811115611efa57634e487b7160e01b600052602160045260246000fd5b1415610aeb5760405162461bcd60e51b815260206004820152602260248201527f45434453413a20696e76616c6964207369676e6174757265202773272076616c604482015261756560f01b6064820152608401610508565b606082471015611fb45760405162461bcd60e51b815260206004820152602660248201527f416464726573733a20696e73756666696369656e742062616c616e636520666f6044820152651c8818d85b1b60d21b6064820152608401610508565b600080866001600160a01b03168587604051611fd091906124bd565b60006040518083038185875af1925050503d806000811461200d576040519150601f19603f3d011682016040523d82523d6000602084013e612012565b606091505b5091509150612023878383876120f2565b979650505050505050565b6000807f7fffffffffffffffffffffffffffffff5d576e7357a4501ddfe92f46681b20a083111561206557506000905060036120e9565b6040805160008082526020820180845289905260ff881692820192909252606081018690526080810185905260019060a0016020604051602081039080840390855afa1580156120b9573d6000803e3d6000fd5b5050604051601f1901519150506001600160a01b0381166120e2576000600192509250506120e9565b9150600090505b94509492505050565b6060831561215c578251612155576121098561189c565b6121555760405162461bcd60e51b815260206004820152601d60248201527f416464726573733a2063616c6c20746f206e6f6e2d636f6e74726163740000006044820152606401610508565b508161140b565b61140b83838151156121715781518083602001fd5b8060405162461bcd60e51b815260040161050891906124d9565b80356001600160a01b03811681146118aa57600080fd5b6000602082840312156121b3578081fd5b6121bc8261218b565b9392505050565b600080604083850312156121d5578081fd5b6121de8361218b565b9150611ad36020840161218b565b60008060008060008060a08789031215612204578182fd5b61220d8761218b565b955061221b6020880161218b565b94506040870135935060608701359250608087013567ffffffffffffffff80821115612245578384fd5b818901915089601f830112612258578384fd5b813581811115612266578485fd5b8a6020828501011115612277578485fd5b6020830194508093505050509295509295509295565b600080600080600060a086880312156122a4578081fd5b6122ad8661218b565b94506122bb6020870161218b565b93506040860135925060608601359150608086013567ffffffffffffffff808211156122e5578283fd5b818801915088601f8301126122f8578283fd5b81358181111561230a5761230a612642565b604051601f8201601f19908116603f0116810190838211818310171561233257612332612642565b816040528281528b602084870101111561234a578586fd5b82602086016020830137856020848301015280955050505050509295509295909350565b60008060408385031215612380578182fd5b6123898361218b565b946020939093013593505050565b6000806000606084860312156123ab578283fd5b6123b48461218b565b9250602084013591506123c96040850161218b565b90509250925092565b600080600080608085870312156123e7578384fd5b6123f08561218b565b9350602085013592506040850135915061240c6060860161218b565b905092959194509250565b600080600080600060a0868803121561242e578081fd5b6124378661218b565b945060208601359350604086013592506124536060870161218b565b91506124616080870161218b565b90509295509295909350565b60006020828403121561247e578081fd5b815180151581146121bc578182fd5b60006020828403121561249e578081fd5b5035919050565b6000602082840312156124b6578081fd5b5051919050565b600082516124cf818460208701612600565b9190910192915050565b60006020825282518060208401526124f8816040850160208701612600565b601f01601f19169190910160400192915050565b6020808252600990820152682130b2103a37b5b2b760b91b604082015260600190565b6020808252600d908201526c2ba09d103737ba1030b236b4b760991b604082015260600190565b60208082526016908201527510940e8813db9b1e481c9bdd5d195c881b595d1a1bd960521b604082015260600190565b6020808252602b908201527f496e697469616c697a61626c653a20636f6e7472616374206973206e6f74206960408201526a6e697469616c697a696e6760a81b606082015260800190565b600082198211156125e4576125e461262c565b500190565b6000828210156125fb576125fb61262c565b500390565b60005b8381101561261b578181015183820152602001612603565b83811115611b145750506000910152565b634e487b7160e01b600052601160045260246000fd5b634e487b7160e01b600052604160045260246000fdfea2646970667358221220a74bbde57af664571b198c7c7903beb01affce3ad1ba98900ce1b253165d134e64736f6c63430008020033",
  "linkReferences": {},
  "deployedLinkReferences": {}
}